{
  "_format": "hh-sol-artifact-1",
  "contractName": "Presale",
  "sourceName": "contracts/Presale.sol",
  "abi": [
    {
      "inputs": [],
      "stateMutability": "nonpayable",
      "type": "constructor"
    },
    {
      "inputs": [
        {
          "internalType": "uint256",
          "name": "currentContribution",
          "type": "uint256"
        },
        {
          "internalType": "uint256",
          "name": "maxContribution",
          "type": "uint256"
        }
      ],
      "name": "HardCapExceeded",
      "type": "error"
    },
    {
      "inputs": [
        {
          "internalType": "uint256",
          "name": "amountSent",
          "type": "uint256"
        },
        {
          "internalType": "uint256",
          "name": "requiredAmount",
          "type": "uint256"
        }
      ],
      "name": "InvalidEtherSent",
      "type": "error"
    },
    {
      "inputs": [],
      "name": "InvalidInitialization",
      "type": "error"
    },
    {
      "inputs": [],
      "name": "InvalidSoftCapPrice",
      "type": "error"
    },
    {
      "inputs": [],
      "name": "NoContributionToRefund",
      "type": "error"
    },
    {
      "inputs": [],
      "name": "NoTokensToClaim",
      "type": "error"
    },
    {
      "inputs": [],
      "name": "NotInitializing",
      "type": "error"
    },
    {
      "inputs": [
        {
          "internalType": "address",
          "name": "owner",
          "type": "address"
        }
      ],
      "name": "OwnableInvalidOwner",
      "type": "error"
    },
    {
      "inputs": [
        {
          "internalType": "address",
          "name": "account",
          "type": "address"
        }
      ],
      "name": "OwnableUnauthorizedAccount",
      "type": "error"
    },
    {
      "inputs": [],
      "name": "PresaleEnded",
      "type": "error"
    },
    {
      "inputs": [],
      "name": "PresaleFailed",
      "type": "error"
    },
    {
      "inputs": [],
      "name": "PresaleFailedNoRefund",
      "type": "error"
    },
    {
      "inputs": [],
      "name": "PresaleNotStarted",
      "type": "error"
    },
    {
      "inputs": [],
      "name": "PresaleStillActive",
      "type": "error"
    },
    {
      "inputs": [],
      "name": "SoftCapAlreadyReached",
      "type": "error"
    },
    {
      "inputs": [],
      "name": "SoftCapNotReached",
      "type": "error"
    },
    {
      "inputs": [],
      "name": "SoftCapRequiresTimeLimit",
      "type": "error"
    },
    {
      "anonymous": false,
      "inputs": [
        {
          "indexed": true,
          "internalType": "address",
          "name": "user",
          "type": "address"
        },
        {
          "indexed": false,
          "internalType": "uint256",
          "name": "amount",
          "type": "uint256"
        }
      ],
      "name": "EthRefunded",
      "type": "event"
    },
    {
      "anonymous": false,
      "inputs": [
        {
          "indexed": true,
          "internalType": "address",
          "name": "to",
          "type": "address"
        },
        {
          "indexed": false,
          "internalType": "uint256",
          "name": "amount",
          "type": "uint256"
        }
      ],
      "name": "EtherWithdrawn",
      "type": "event"
    },
    {
      "anonymous": false,
      "inputs": [
        {
          "indexed": false,
          "internalType": "uint64",
          "name": "version",
          "type": "uint64"
        }
      ],
      "name": "Initialized",
      "type": "event"
    },
    {
      "anonymous": false,
      "inputs": [
        {
          "indexed": true,
          "internalType": "address",
          "name": "contributor",
          "type": "address"
        },
        {
          "indexed": false,
          "internalType": "uint256",
          "name": "amount",
          "type": "uint256"
        }
      ],
      "name": "NewContribution",
      "type": "event"
    },
    {
      "anonymous": false,
      "inputs": [
        {
          "indexed": true,
          "internalType": "address",
          "name": "previousOwner",
          "type": "address"
        },
        {
          "indexed": true,
          "internalType": "address",
          "name": "newOwner",
          "type": "address"
        }
      ],
      "name": "OwnershipTransferred",
      "type": "event"
    },
    {
      "anonymous": false,
      "inputs": [
        {
          "indexed": true,
          "internalType": "address",
          "name": "to",
          "type": "address"
        },
        {
          "indexed": false,
          "internalType": "uint256",
          "name": "amount",
          "type": "uint256"
        }
      ],
      "name": "TokenWithdrawn",
      "type": "event"
    },
    {
      "anonymous": false,
      "inputs": [
        {
          "indexed": true,
          "internalType": "address",
          "name": "claimer",
          "type": "address"
        },
        {
          "indexed": false,
          "internalType": "uint256",
          "name": "amount",
          "type": "uint256"
        }
      ],
      "name": "TokensClaimed",
      "type": "event"
    },
    {
      "inputs": [],
      "name": "claimTokens",
      "outputs": [],
      "stateMutability": "nonpayable",
      "type": "function"
    },
    {
      "inputs": [
        {
          "internalType": "uint256",
          "name": "amount",
          "type": "uint256"
        }
      ],
      "name": "contribute",
      "outputs": [],
      "stateMutability": "payable",
      "type": "function"
    },
    {
      "inputs": [],
      "name": "currentPrice",
      "outputs": [
        {
          "internalType": "uint256",
          "name": "",
          "type": "uint256"
        }
      ],
      "stateMutability": "view",
      "type": "function"
    },
    {
      "inputs": [],
      "name": "endTime",
      "outputs": [
        {
          "internalType": "uint256",
          "name": "",
          "type": "uint256"
        }
      ],
      "stateMutability": "view",
      "type": "function"
    },
    {
      "inputs": [
        {
          "internalType": "address",
          "name": "",
          "type": "address"
        }
      ],
      "name": "ethContributions",
      "outputs": [
        {
          "internalType": "uint256",
          "name": "",
          "type": "uint256"
        }
      ],
      "stateMutability": "view",
      "type": "function"
    },
    {
      "inputs": [],
      "name": "factoryAddress",
      "outputs": [
        {
          "internalType": "address",
          "name": "",
          "type": "address"
        }
      ],
      "stateMutability": "view",
      "type": "function"
    },
    {
      "inputs": [],
      "name": "hardCap",
      "outputs": [
        {
          "internalType": "uint256",
          "name": "",
          "type": "uint256"
        }
      ],
      "stateMutability": "view",
      "type": "function"
    },
    {
      "inputs": [],
      "name": "hasSoftCap",
      "outputs": [
        {
          "internalType": "bool",
          "name": "",
          "type": "bool"
        }
      ],
      "stateMutability": "view",
      "type": "function"
    },
    {
      "inputs": [
        {
          "internalType": "address",
          "name": "owner_",
          "type": "address"
        },
        {
          "internalType": "address",
          "name": "token_",
          "type": "address"
        },
        {
          "internalType": "uint256",
          "name": "price_",
          "type": "uint256"
        },
        {
          "internalType": "uint256",
          "name": "hardCap_",
          "type": "uint256"
        },
        {
          "internalType": "uint256",
          "name": "softCap_",
          "type": "uint256"
        },
        {
          "internalType": "uint256",
          "name": "startTime_",
          "type": "uint256"
        },
        {
          "internalType": "uint256",
          "name": "endTime_",
          "type": "uint256"
        },
        {
          "internalType": "uint256",
          "name": "softCapPrice_",
          "type": "uint256"
        },
        {
          "internalType": "address",
          "name": "factoryAddress_",
          "type": "address"
        }
      ],
      "name": "initialize",
      "outputs": [],
      "stateMutability": "nonpayable",
      "type": "function"
    },
    {
      "inputs": [],
      "name": "owner",
      "outputs": [
        {
          "internalType": "address",
          "name": "",
          "type": "address"
        }
      ],
      "stateMutability": "view",
      "type": "function"
    },
    {
      "inputs": [],
      "name": "presaleFailed",
      "outputs": [
        {
          "internalType": "bool",
          "name": "",
          "type": "bool"
        }
      ],
      "stateMutability": "view",
      "type": "function"
    },
    {
      "inputs": [],
      "name": "price",
      "outputs": [
        {
          "internalType": "uint256",
          "name": "",
          "type": "uint256"
        }
      ],
      "stateMutability": "view",
      "type": "function"
    },
    {
      "inputs": [],
      "name": "refund",
      "outputs": [],
      "stateMutability": "nonpayable",
      "type": "function"
    },
    {
      "inputs": [],
      "name": "renounceOwnership",
      "outputs": [],
      "stateMutability": "nonpayable",
      "type": "function"
    },
    {
      "inputs": [],
      "name": "softCap",
      "outputs": [
        {
          "internalType": "uint256",
          "name": "",
          "type": "uint256"
        }
      ],
      "stateMutability": "view",
      "type": "function"
    },
    {
      "inputs": [],
      "name": "softCapPrice",
      "outputs": [
        {
          "internalType": "uint256",
          "name": "",
          "type": "uint256"
        }
      ],
      "stateMutability": "view",
      "type": "function"
    },
    {
      "inputs": [],
      "name": "softCapReached",
      "outputs": [
        {
          "internalType": "bool",
          "name": "",
          "type": "bool"
        }
      ],
      "stateMutability": "view",
      "type": "function"
    },
    {
      "inputs": [],
      "name": "startTime",
      "outputs": [
        {
          "internalType": "uint256",
          "name": "",
          "type": "uint256"
        }
      ],
      "stateMutability": "view",
      "type": "function"
    },
    {
      "inputs": [],
      "name": "token",
      "outputs": [
        {
          "internalType": "contract MintableERC20",
          "name": "",
          "type": "address"
        }
      ],
      "stateMutability": "view",
      "type": "function"
    },
    {
      "inputs": [
        {
          "internalType": "address",
          "name": "",
          "type": "address"
        }
      ],
      "name": "tokenContributions",
      "outputs": [
        {
          "internalType": "uint256",
          "name": "",
          "type": "uint256"
        }
      ],
      "stateMutability": "view",
      "type": "function"
    },
    {
      "inputs": [],
      "name": "totalContributed",
      "outputs": [
        {
          "internalType": "uint256",
          "name": "",
          "type": "uint256"
        }
      ],
      "stateMutability": "view",
      "type": "function"
    },
    {
      "inputs": [
        {
          "internalType": "address",
          "name": "newOwner",
          "type": "address"
        }
      ],
      "name": "transferOwnership",
      "outputs": [],
      "stateMutability": "nonpayable",
      "type": "function"
    },
    {
      "inputs": [],
      "name": "withdrawETH",
      "outputs": [],
      "stateMutability": "nonpayable",
      "type": "function"
    },
    {
      "inputs": [
        {
          "internalType": "address",
          "name": "token_",
          "type": "address"
        }
      ],
      "name": "withdrawToken",
      "outputs": [],
      "stateMutability": "nonpayable",
      "type": "function"
    }
  ],
  "bytecode": "0x6080806040523460d2577ff0c57e16840df040f15088dc2f81fe391c3923bec73e23a9662efc9c229c6a005460ff8160401c1660c1576002600160401b03196001600160401b03821601605c575b604051610f5890816100d88239f35b6001600160401b0319166001600160401b039081177ff0c57e16840df040f15088dc2f81fe391c3923bec73e23a9662efc9c229c6a005581527fc7f505b2f371ae2175ee4913f4499e1f2633a7b5936321eed1cdaeb6115181d290602090a13880604d565b63f92ee8a960e01b60005260046000fd5b600080fdfe608080604052600436101561001357600080fd5b600090813560e01c908163023f414714610c57575080631790366214610c325780632b9edee914610c0f5780633197cbb614610bf15780634578784414610bb857806348c54b9d14610ab857806355d1b4d314610a9a578063590e1ae314610a81578063715018a614610a1757806378e97925146109f957806380d021a9146107ef57806389476069146106035780638da5cb5b146105cd578063906a26e0146105af578063966dae0e146105885780639d1b464a14610565578063a035b1fe14610547578063b588202114610527578063c1cbbca71461030c578063e086e5ec146101d8578063e730395a1461019f578063f2fde38b14610172578063fb86a404146101545763fc0c546a1461012957600080fd5b346101515780600319360112610151576001546040516001600160a01b039091168152602090f35b80fd5b50346101515780600319360112610151576020600354604051908152f35b50346101515760203660031901126101515761019c61018f610c73565b610197610e7e565b610e08565b80f35b5034610151576020366003190112610151576020906040906001600160a01b036101c7610c73565b168152600b83522054604051908152f35b50346101515780600319360112610151576101f1610e7e565b6101f9610c89565b6102f0576004541515806102ff575b6102f0574760648104808203918083116102dc57908391828080808560018060a01b038254168282156102d3575bf1156102c85782848193829360018060a01b03600080516020610ee38339815191525416918491146102bf575bf1156102b257600080516020610ee3833981519152546040519182526001600160a01b0316907f06097061aeda806b5e9cb4133d9899f332ff0913956567fc0f7ea15e3d19947c90602090a280f35b50604051903d90823e3d90fd5b506108fc610263565b6040513d84823e3d90fd5b506108fc610236565b634e487b7160e01b84526011600452602484fd5b632bdc91ad60e01b8152600490fd5b5060ff6009541615610208565b5060203660031901126101515760043560055442106105185761032d610c89565b6105095760065480151590816104ff575b506104f05761035461034e610dbc565b82610dd2565b3481036104da57506008546103693482610dfb565b6003548091116104c2575061037f903490610dfb565b600855338252600b60205260408220610399348254610dfb565b905560015460405163313ce56760e01b815290602090829060049082906001600160a01b03165afa80156104b7578390610476575b60ff915016604d8111610462576103e890600a0a82610dd2565b338352600a6020526103ff60408420918254610dfb565b905560095460ff81161580610454575b610444575b506040519081527fbdaa686eb6f59012d211a74523da260341c516896e9e5be954163d6ecf26ffa260203392a280f35b60ff191660011760095538610414565b50600854600454111561040f565b634e487b7160e01b83526011600452602483fd5b506020813d6020116104af575b8161049060209383610cb2565b810103126104ab575160ff811681036104ab5760ff906103ce565b8280fd5b3d9150610483565b6040513d85823e3d90fd5b631af68b1160e21b8452600491909152602452604482fd5b6326fea35b60e01b835234600452602452604482fd5b631eb1561f60e01b8252600482fd5b905042113861033e565b6372f50aa160e11b8252600482fd5b631385865760e21b8252600482fd5b503461015157806003193601126101515760206004541515604051908152f35b50346101515780600319360112610151576020600254604051908152f35b50346101515780600319360112610151576020610580610dbc565b604051908152f35b5034610151578060031936011261015157546040516001600160a01b039091168152602090f35b50346101515780600319360112610151576020600454604051908152f35b5034610151578060031936011261015157600080516020610ee3833981519152546040516001600160a01b039091168152602090f35b50346101515760203660031901126101515761061d610c73565b610625610e7e565b600080516020610ee3833981519152546001546040516370a0823160e01b8152306004820152916001600160a01b039081169160209184916024918391165afa9182156107e45784926107ae575b5060405163a9059cbb60e01b81526001600160a01b0390911660048201526024810191909152906020908290818581604481015b03926001600160a01b03165af180156102c857610776575b50600080516020610ee3833981519152546001546040516370a0823160e01b81523060048201526001600160a01b0392831692909160209183916024918391165afa9081156104b757839161073e575b5060207fa2bd9fcfcdba69f52bcd9a520846ad4bd685b187483f53efc42d035b2ddebff091604051908152a280f35b90506020813d60201161076e575b8161075960209383610cb2565b810103126107695751602061070f565b600080fd5b3d915061074c565b6020813d6020116107a6575b8161078f60209383610cb2565b810103126107a2575180151581146106bf575b5080fd5b3d9150610782565b91506020823d6020116107dc575b816107c960209383610cb2565b81010312610769579051906106a7610673565b3d91506107bc565b6040513d86823e3d90fd5b5034610151576101203660031901126101515761080a610c73565b6024356001600160a01b038116908190036104ab5760443560843560c4359160e435936101043560018060a01b0381168091036109f557600080516020610f03833981519152549660ff8860401c16159767ffffffffffffffff8116801590816109ed575b60011490816109e3575b1590816109da575b506109cb5767ffffffffffffffff198116600117600080516020610f03833981519152556108c191908961099e575b506108b9610eb4565b610197610eb4565b8361096e575b6bffffffffffffffffffffffff60a01b8854161787556bffffffffffffffffffffffff60a01b600154161760015560025560643560035560045560a4356005556006556007556109145780f35b68ff000000000000000019600080516020610f038339815191525416600080516020610f03833981519152557fc7f505b2f371ae2175ee4913f4499e1f2633a7b5936321eed1cdaeb6115181d2602060405160018152a180f35b851561098f5782861061098f57846108c75763309767f560e21b8852600488fd5b6323187ae360e01b8852600488fd5b68ffffffffffffffffff19166801000000000000000117600080516020610f0383398151915255386108b0565b63f92ee8a960e01b8a5260048afd5b90501538610881565b303b159150610879565b8a915061086f565b8780fd5b50346101515780600319360112610151576020600554604051908152f35b5034610151578060031936011261015157610a30610e7e565b600080516020610ee383398151915280546001600160a01b0319811690915581906001600160a01b03167f8be0079c531659141344cd1fd0a4f28419497f9722a3daafe3b4186f6b6457e08280a380f35b503461015157806003193601126101515761019c610cea565b50346101515780600319360112610151576020600754604051908152f35b5034610151578060031936011261015157610ad1610c89565b610ba957600454151580610b9c575b6102f057338152600a6020526040812054908115610b8e57338152600a602052604081208190556001546001600160a01b0316803b156107a2576040516340c10f1960e01b8152336004820152602481018490529082908290604490829084905af180156102c857610b7e575b50906040519081527f896e034966eaaf1adc54acc0f257056febbd300c9e47182cf761982cf1f5e43060203392a280f35b81610b8891610cb2565b38610b4d565b62f3f86160e41b8152600490fd5b5060ff6009541615610ae0565b636dd6f92960e11b8152600490fd5b5034610151576020366003190112610151576020906040906001600160a01b03610be0610c73565b168152600a83522054604051908152f35b50346101515780600319360112610151576020600654604051908152f35b5034610151578060031936011261015157602060ff600954166040519015158152f35b50346101515780600319360112610151576020610c4d610c89565b6040519015158152f35b9050346107a257816003193601126107a2576020906008548152f35b600435906001600160a01b038216820361076957565b600454151580610ca5575b80610c9c5790565b50600654421190565b5060ff6009541615610c94565b90601f8019910116810190811067ffffffffffffffff821117610cd457604052565b634e487b7160e01b600052604160045260246000fd5b33600052600b6020526040600020548015610dab57610d07610c89565b610d46576006541580610d9e575b610d465760095460ff1615610d3557635780964b60e01b60005260046000fd5b6365603eed60e11b60005260046000fd5b33600052600b602052600060408120556000808080843382f115610d92576040519081527fffab3269bdaceca4d1bbc53e74b982ac2b306687e17e21f1e499e7fdf6751ac860203392a2565b6040513d6000823e3d90fd5b5060ff6009541615610d15565b63634b67f560e11b60005260046000fd5b60ff60095416610dcc5760025490565b60075490565b81810292918115918404141715610de557565b634e487b7160e01b600052601160045260246000fd5b91908201809211610de557565b6001600160a01b03168015610e6857600080516020610ee383398151915280546001600160a01b0319811683179091556001600160a01b03167f8be0079c531659141344cd1fd0a4f28419497f9722a3daafe3b4186f6b6457e0600080a3565b631e4fbdf760e01b600052600060045260246000fd5b600080516020610ee3833981519152546001600160a01b03163303610e9f57565b63118cdaa760e01b6000523360045260246000fd5b60ff600080516020610f038339815191525460401c1615610ed157565b631afcd79f60e31b60005260046000fdfe9016d09d72d40fdae2fd8ceac6b6234c7706214fd39c1cd1e609a0528c199300f0c57e16840df040f15088dc2f81fe391c3923bec73e23a9662efc9c229c6a00a26469706673582212209ae56379413fc3be8820c5ff246f451d74eb83d19f70b937df94c0a2ab32d1bb64736f6c634300081a0033",
  "linkReferences": {},
  "deployedLinkReferences": {}
}