{
  "_format": "hh-sol-artifact-1",
  "contractName": "MintableERC20",
  "sourceName": "contracts/MintableERC20.sol",
  "abi": [
    {
      "inputs": [],
      "stateMutability": "nonpayable",
      "type": "constructor"
    },
    {
      "inputs": [],
      "name": "AccessControlBadConfirmation",
      "type": "error"
    },
    {
      "inputs": [
        {
          "internalType": "address",
          "name": "account",
          "type": "address"
        },
        {
          "internalType": "bytes32",
          "name": "neededRole",
          "type": "bytes32"
        }
      ],
      "name": "AccessControlUnauthorizedAccount",
      "type": "error"
    },
    {
      "inputs": [
        {
          "internalType": "address",
          "name": "spender",
          "type": "address"
        },
        {
          "internalType": "uint256",
          "name": "allowance",
          "type": "uint256"
        },
        {
          "internalType": "uint256",
          "name": "needed",
          "type": "uint256"
        }
      ],
      "name": "ERC20InsufficientAllowance",
      "type": "error"
    },
    {
      "inputs": [
        {
          "internalType": "address",
          "name": "sender",
          "type": "address"
        },
        {
          "internalType": "uint256",
          "name": "balance",
          "type": "uint256"
        },
        {
          "internalType": "uint256",
          "name": "needed",
          "type": "uint256"
        }
      ],
      "name": "ERC20InsufficientBalance",
      "type": "error"
    },
    {
      "inputs": [
        {
          "internalType": "address",
          "name": "approver",
          "type": "address"
        }
      ],
      "name": "ERC20InvalidApprover",
      "type": "error"
    },
    {
      "inputs": [
        {
          "internalType": "address",
          "name": "receiver",
          "type": "address"
        }
      ],
      "name": "ERC20InvalidReceiver",
      "type": "error"
    },
    {
      "inputs": [
        {
          "internalType": "address",
          "name": "sender",
          "type": "address"
        }
      ],
      "name": "ERC20InvalidSender",
      "type": "error"
    },
    {
      "inputs": [
        {
          "internalType": "address",
          "name": "spender",
          "type": "address"
        }
      ],
      "name": "ERC20InvalidSpender",
      "type": "error"
    },
    {
      "inputs": [],
      "name": "InvalidInitialization",
      "type": "error"
    },
    {
      "inputs": [],
      "name": "NotInitializing",
      "type": "error"
    },
    {
      "anonymous": false,
      "inputs": [
        {
          "indexed": true,
          "internalType": "address",
          "name": "owner",
          "type": "address"
        },
        {
          "indexed": true,
          "internalType": "address",
          "name": "spender",
          "type": "address"
        },
        {
          "indexed": false,
          "internalType": "uint256",
          "name": "value",
          "type": "uint256"
        }
      ],
      "name": "Approval",
      "type": "event"
    },
    {
      "anonymous": false,
      "inputs": [
        {
          "indexed": false,
          "internalType": "uint64",
          "name": "version",
          "type": "uint64"
        }
      ],
      "name": "Initialized",
      "type": "event"
    },
    {
      "anonymous": false,
      "inputs": [
        {
          "indexed": true,
          "internalType": "bytes32",
          "name": "role",
          "type": "bytes32"
        },
        {
          "indexed": true,
          "internalType": "bytes32",
          "name": "previousAdminRole",
          "type": "bytes32"
        },
        {
          "indexed": true,
          "internalType": "bytes32",
          "name": "newAdminRole",
          "type": "bytes32"
        }
      ],
      "name": "RoleAdminChanged",
      "type": "event"
    },
    {
      "anonymous": false,
      "inputs": [
        {
          "indexed": true,
          "internalType": "bytes32",
          "name": "role",
          "type": "bytes32"
        },
        {
          "indexed": true,
          "internalType": "address",
          "name": "account",
          "type": "address"
        },
        {
          "indexed": true,
          "internalType": "address",
          "name": "sender",
          "type": "address"
        }
      ],
      "name": "RoleGranted",
      "type": "event"
    },
    {
      "anonymous": false,
      "inputs": [
        {
          "indexed": true,
          "internalType": "bytes32",
          "name": "role",
          "type": "bytes32"
        },
        {
          "indexed": true,
          "internalType": "address",
          "name": "account",
          "type": "address"
        },
        {
          "indexed": true,
          "internalType": "address",
          "name": "sender",
          "type": "address"
        }
      ],
      "name": "RoleRevoked",
      "type": "event"
    },
    {
      "anonymous": false,
      "inputs": [
        {
          "indexed": true,
          "internalType": "address",
          "name": "from",
          "type": "address"
        },
        {
          "indexed": true,
          "internalType": "address",
          "name": "to",
          "type": "address"
        },
        {
          "indexed": false,
          "internalType": "uint256",
          "name": "value",
          "type": "uint256"
        }
      ],
      "name": "Transfer",
      "type": "event"
    },
    {
      "inputs": [],
      "name": "DEFAULT_ADMIN_ROLE",
      "outputs": [
        {
          "internalType": "bytes32",
          "name": "",
          "type": "bytes32"
        }
      ],
      "stateMutability": "view",
      "type": "function"
    },
    {
      "inputs": [],
      "name": "MINTER_ROLE",
      "outputs": [
        {
          "internalType": "bytes32",
          "name": "",
          "type": "bytes32"
        }
      ],
      "stateMutability": "view",
      "type": "function"
    },
    {
      "inputs": [
        {
          "internalType": "address",
          "name": "owner",
          "type": "address"
        },
        {
          "internalType": "address",
          "name": "spender",
          "type": "address"
        }
      ],
      "name": "allowance",
      "outputs": [
        {
          "internalType": "uint256",
          "name": "",
          "type": "uint256"
        }
      ],
      "stateMutability": "view",
      "type": "function"
    },
    {
      "inputs": [
        {
          "internalType": "address",
          "name": "spender",
          "type": "address"
        },
        {
          "internalType": "uint256",
          "name": "value",
          "type": "uint256"
        }
      ],
      "name": "approve",
      "outputs": [
        {
          "internalType": "bool",
          "name": "",
          "type": "bool"
        }
      ],
      "stateMutability": "nonpayable",
      "type": "function"
    },
    {
      "inputs": [
        {
          "internalType": "address",
          "name": "account",
          "type": "address"
        }
      ],
      "name": "balanceOf",
      "outputs": [
        {
          "internalType": "uint256",
          "name": "",
          "type": "uint256"
        }
      ],
      "stateMutability": "view",
      "type": "function"
    },
    {
      "inputs": [],
      "name": "decimals",
      "outputs": [
        {
          "internalType": "uint8",
          "name": "",
          "type": "uint8"
        }
      ],
      "stateMutability": "view",
      "type": "function"
    },
    {
      "inputs": [
        {
          "internalType": "bytes32",
          "name": "role",
          "type": "bytes32"
        }
      ],
      "name": "getRoleAdmin",
      "outputs": [
        {
          "internalType": "bytes32",
          "name": "",
          "type": "bytes32"
        }
      ],
      "stateMutability": "view",
      "type": "function"
    },
    {
      "inputs": [
        {
          "internalType": "bytes32",
          "name": "role",
          "type": "bytes32"
        },
        {
          "internalType": "address",
          "name": "account",
          "type": "address"
        }
      ],
      "name": "grantRole",
      "outputs": [],
      "stateMutability": "nonpayable",
      "type": "function"
    },
    {
      "inputs": [
        {
          "internalType": "bytes32",
          "name": "role",
          "type": "bytes32"
        },
        {
          "internalType": "address",
          "name": "account",
          "type": "address"
        }
      ],
      "name": "hasRole",
      "outputs": [
        {
          "internalType": "bool",
          "name": "",
          "type": "bool"
        }
      ],
      "stateMutability": "view",
      "type": "function"
    },
    {
      "inputs": [
        {
          "internalType": "address",
          "name": "defaultAdmin_",
          "type": "address"
        },
        {
          "internalType": "address",
          "name": "minter_",
          "type": "address"
        },
        {
          "internalType": "string",
          "name": "name_",
          "type": "string"
        },
        {
          "internalType": "string",
          "name": "symbol_",
          "type": "string"
        },
        {
          "internalType": "uint256",
          "name": "initialSupply_",
          "type": "uint256"
        }
      ],
      "name": "initialize",
      "outputs": [],
      "stateMutability": "nonpayable",
      "type": "function"
    },
    {
      "inputs": [
        {
          "internalType": "address",
          "name": "to",
          "type": "address"
        },
        {
          "internalType": "uint256",
          "name": "amount",
          "type": "uint256"
        }
      ],
      "name": "mint",
      "outputs": [],
      "stateMutability": "nonpayable",
      "type": "function"
    },
    {
      "inputs": [],
      "name": "name",
      "outputs": [
        {
          "internalType": "string",
          "name": "",
          "type": "string"
        }
      ],
      "stateMutability": "view",
      "type": "function"
    },
    {
      "inputs": [],
      "name": "presaleAddress",
      "outputs": [
        {
          "internalType": "address",
          "name": "",
          "type": "address"
        }
      ],
      "stateMutability": "view",
      "type": "function"
    },
    {
      "inputs": [
        {
          "internalType": "bytes32",
          "name": "role",
          "type": "bytes32"
        },
        {
          "internalType": "address",
          "name": "callerConfirmation",
          "type": "address"
        }
      ],
      "name": "renounceRole",
      "outputs": [],
      "stateMutability": "nonpayable",
      "type": "function"
    },
    {
      "inputs": [
        {
          "internalType": "bytes32",
          "name": "role",
          "type": "bytes32"
        },
        {
          "internalType": "address",
          "name": "account",
          "type": "address"
        }
      ],
      "name": "revokeRole",
      "outputs": [],
      "stateMutability": "nonpayable",
      "type": "function"
    },
    {
      "inputs": [
        {
          "internalType": "bytes4",
          "name": "interfaceId",
          "type": "bytes4"
        }
      ],
      "name": "supportsInterface",
      "outputs": [
        {
          "internalType": "bool",
          "name": "",
          "type": "bool"
        }
      ],
      "stateMutability": "view",
      "type": "function"
    },
    {
      "inputs": [],
      "name": "symbol",
      "outputs": [
        {
          "internalType": "string",
          "name": "",
          "type": "string"
        }
      ],
      "stateMutability": "view",
      "type": "function"
    },
    {
      "inputs": [],
      "name": "totalSupply",
      "outputs": [
        {
          "internalType": "uint256",
          "name": "",
          "type": "uint256"
        }
      ],
      "stateMutability": "view",
      "type": "function"
    },
    {
      "inputs": [
        {
          "internalType": "address",
          "name": "to",
          "type": "address"
        },
        {
          "internalType": "uint256",
          "name": "value",
          "type": "uint256"
        }
      ],
      "name": "transfer",
      "outputs": [
        {
          "internalType": "bool",
          "name": "",
          "type": "bool"
        }
      ],
      "stateMutability": "nonpayable",
      "type": "function"
    },
    {
      "inputs": [
        {
          "internalType": "address",
          "name": "from",
          "type": "address"
        },
        {
          "internalType": "address",
          "name": "to",
          "type": "address"
        },
        {
          "internalType": "uint256",
          "name": "value",
          "type": "uint256"
        }
      ],
      "name": "transferFrom",
      "outputs": [
        {
          "internalType": "bool",
          "name": "",
          "type": "bool"
        }
      ],
      "stateMutability": "nonpayable",
      "type": "function"
    }
  ],
  "bytecode": "0x6080806040523460d2577ff0c57e16840df040f15088dc2f81fe391c3923bec73e23a9662efc9c229c6a005460ff8160401c1660c1576002600160401b03196001600160401b03821601605c575b60405161143590816100d88239f35b6001600160401b0319166001600160401b039081177ff0c57e16840df040f15088dc2f81fe391c3923bec73e23a9662efc9c229c6a005581527fc7f505b2f371ae2175ee4913f4499e1f2633a7b5936321eed1cdaeb6115181d290602090a13880604d565b63f92ee8a960e01b60005260046000fd5b600080fdfe608080604052600436101561001357600080fd5b60003560e01c90816301ffc9a714610c795750806306fdde0314610bb7578063095ea7b314610b36578063122fe68514610b0d57806318160ddd14610ad057806323b872dd146109ec578063248a9ca3146109c65780632f2ff15d14610995578063313ce5671461097957806336568abe1461093357806340c10f191461089d57806370a082311461085657806391d14854146107fc57806393d239231461030057806395d89b4114610209578063a217fddf146101ed578063a9059cbb146101bc578063d539139314610181578063d547741f146101495763dd62ed3e146100fb57600080fd5b3461014457604036600319011261014457610114610d15565b61012561011f610d2b565b91610dec565b9060018060a01b03166000526020526020604060002054604051908152f35b600080fd5b346101445760403660031901126101445761017f600435610168610d2b565b9061017a61017582610dcb565b610f5b565b6111ce565b005b346101445760003660031901126101445760206040517f9f2df0fed2c77648de5860a4cc508cd0818c85b8b8a1ab4ceeef8d981c8956a68152f35b34610144576040366003190112610144576101e26101d8610d15565b6024359033610e6c565b602060405160018152f35b3461014457600036600319011261014457602060405160008152f35b346101445760003660031901126101445760405160006000805160206113a08339815191525461023881610d6f565b80845290600181169081156102dc5750600114610270575b61026c8361026081850382610da9565b60405191829182610ccc565b0390f35b6000805160206113a083398151915260009081527f46a2803e59a4de4e7a4c574b1243f25977ac4c77d5a1a4a609b5394cebb4a2aa939250905b8082106102c257509091508101602001610260610250565b9192600181602092548385880101520191019092916102aa565b60ff191660208086019190915291151560051b840190910191506102609050610250565b346101445760a036600319011261014457610319610d15565b610321610d2b565b9060443567ffffffffffffffff811161014457610342903690600401610d41565b92909160643567ffffffffffffffff811161014457610365903690600401610d41565b94906000805160206113e08339815191525460ff8160401c16159567ffffffffffffffff8216801590816107f4575b60011490816107ea575b1590816107e1575b506107d05767ffffffffffffffff1982166001176000805160206113e0833981519152556103e8936103e092886107a3575b503691610e25565b953691610e25565b936103f1611331565b6103f9611331565b80519067ffffffffffffffff821161068357819061042560008051602061136083398151915254610d6f565b601f8111610726575b50602090601f83116001146106a457600092610699575b50508160011b916000199060031b1c191617600080516020611360833981519152555b835167ffffffffffffffff8111610683576104916000805160206113a083398151915254610d6f565b601f8111610611575b506020601f821160011461058a57819061050094959660009261057f575b50508160011b916000199060031b1c1916176000805160206113a0833981519152555b6104e3611331565b6104ec81610fa5565b506104f683611057565b506084359061126e565b60018060a01b03166bffffffffffffffffffffffff60a01b600054161760005561052657005b68ff0000000000000000196000805160206113e083398151915254166000805160206113e0833981519152557fc7f505b2f371ae2175ee4913f4499e1f2633a7b5936321eed1cdaeb6115181d2602060405160018152a1005b0151905086806104b8565b601f198216956000805160206113a0833981519152600052816000209660005b8181106105f9575091610500959697918460019594106105e0575b505050811b016000805160206113a0833981519152556104db565b015160001960f88460031b161c191690558680806105c5565b838301518955600190980197602093840193016105aa565b6000805160206113a08339815191526000527f46a2803e59a4de4e7a4c574b1243f25977ac4c77d5a1a4a609b5394cebb4a2aa601f830160051c81019160208410610679575b601f0160051c01905b81811061066d575061049a565b60008155600101610660565b9091508190610657565b634e487b7160e01b600052604160045260246000fd5b015190508680610445565b60008051602061136083398151915260009081528281209350601f198516905b81811061070e57509084600195949392106106f5575b505050811b0160008051602061136083398151915255610468565b015160001960f88460031b161c191690558680806106da565b929360206001819287860151815501950193016106c4565b6000805160206113608339815191526000529091507f2ae08a8e29253f69ac5d979a101956ab8f8d9d7ded63fa7a83b16fc47648eab0601f840160051c81019160208510610799575b90601f859493920160051c01905b81811061078a575061042e565b6000815584935060010161077d565b909150819061076f565b68ffffffffffffffffff191668010000000000000001176000805160206113e083398151915255896103d8565b63f92ee8a960e01b60005260046000fd5b905015896103a6565b303b15915061039e565b889150610394565b3461014457604036600319011261014457610815610d2b565b6004356000526000805160206113c083398151915260205260406000209060018060a01b0316600052602052602060ff604060002054166040519015158152f35b34610144576020366003190112610144576001600160a01b03610877610d15565b166000526000805160206113808339815191526020526020604060002054604051908152f35b34610144576040366003190112610144576108b6610d15565b3360009081527f549fe2656c81d2947b3b913f0a53b9ea86c71e049f3a1b8aa23c09a8a05cb8d4602052604090205460ff16156108fa5761017f906024359061126e565b63e2517d3f60e01b600052336004527f9f2df0fed2c77648de5860a4cc508cd0818c85b8b8a1ab4ceeef8d981c8956a660245260446000fd5b346101445760403660031901126101445761094c610d2b565b336001600160a01b038216036109685761017f906004356111ce565b63334bd91960e11b60005260046000fd5b3461014457600036600319011261014457602060405160128152f35b346101445760403660031901126101445761017f6004356109b4610d2b565b906109c161017582610dcb565b611125565b346101445760203660031901126101445760206109e4600435610dcb565b604051908152f35b3461014457606036600319011261014457610a05610d15565b610a0d610d2b565b60443590610a1a83610dec565b3360009081526020919091526040902054926000198410610a40575b6101e29350610e6c565b828410610ab3576001600160a01b03811615610a9d573315610a87576101e293610a6982610dec565b60018060a01b03331660005260205283604060002091039055610a36565b634a1406b160e11b600052600060045260246000fd5b63e602df0560e01b600052600060045260246000fd5b8284637dc7a0d960e11b6000523360045260245260445260646000fd5b346101445760003660031901126101445760207f52c63247e1f47db19d5ce0460030c497f067ca4cebf71ba98eeadabe20bace0254604051908152f35b34610144576000366003190112610144576000546040516001600160a01b039091168152602090f35b3461014457604036600319011261014457610b4f610d15565b602435903315610a9d576001600160a01b0316908115610a8757610b7233610dec565b82600052602052806040600020556040519081527f8c5be1e5ebec7d5bd14f71427d1e84f3dd0314c0f7b2291e5b200ac8c7c3b92560203392a3602060405160018152f35b3461014457600036600319011261014457604051600060008051602061136083398151915254610be681610d6f565b80845290600181169081156102dc5750600114610c0d5761026c8361026081850382610da9565b60008051602061136083398151915260009081527f2ae08a8e29253f69ac5d979a101956ab8f8d9d7ded63fa7a83b16fc47648eab0939250905b808210610c5f57509091508101602001610260610250565b919260018160209254838588010152019101909291610c47565b34610144576020366003190112610144576004359063ffffffff60e01b821680920361014457602091637965db0b60e01b8114908115610cbb575b5015158152f35b6301ffc9a760e01b14905083610cb4565b91909160208152825180602083015260005b818110610cff575060409293506000838284010152601f8019910116010190565b8060208092870101516040828601015201610cde565b600435906001600160a01b038216820361014457565b602435906001600160a01b038216820361014457565b9181601f840112156101445782359167ffffffffffffffff8311610144576020838186019501011161014457565b90600182811c92168015610d9f575b6020831014610d8957565b634e487b7160e01b600052602260045260246000fd5b91607f1691610d7e565b90601f8019910116810190811067ffffffffffffffff82111761068357604052565b6000526000805160206113c083398151915260205260016040600020015490565b6001600160a01b031660009081527f52c63247e1f47db19d5ce0460030c497f067ca4cebf71ba98eeadabe20bace016020526040902090565b92919267ffffffffffffffff82116106835760405191610e4f601f8201601f191660200184610da9565b829481845281830111610144578281602093846000960137010152565b6001600160a01b0316908115610f45576001600160a01b0316918215610f2f5760008281526000805160206113808339815191526020526040812054828110610f155791604082827fddf252ad1be2c89b69c2b068fc378daa952ba7f163c4a11628f55a4df523b3ef95876020965260008051602061138083398151915286520382822055868152600080516020611380833981519152845220818154019055604051908152a3565b916064928463391434e360e21b8452600452602452604452fd5b63ec442f0560e01b600052600060045260246000fd5b634b637e8f60e11b600052600060045260246000fd5b60008181526000805160206113c08339815191526020908152604080832033845290915290205460ff1615610f8d5750565b63e2517d3f60e01b6000523360045260245260446000fd5b6001600160a01b03811660009081527fb7db2dd08fcb62d0c9e08c51941cae53c267786a0b75803fb7960902fc8ef97d602052604090205460ff16611051576001600160a01b031660008181527fb7db2dd08fcb62d0c9e08c51941cae53c267786a0b75803fb7960902fc8ef97d60205260408120805460ff191660011790553391907f2f8788117e7eff1d82e926ec794901d17c78024a50270940304540a733656f0d8180a4600190565b50600090565b6001600160a01b03811660009081527f549fe2656c81d2947b3b913f0a53b9ea86c71e049f3a1b8aa23c09a8a05cb8d4602052604090205460ff16611051576001600160a01b031660008181527f549fe2656c81d2947b3b913f0a53b9ea86c71e049f3a1b8aa23c09a8a05cb8d460205260408120805460ff191660011790553391907f9f2df0fed2c77648de5860a4cc508cd0818c85b8b8a1ab4ceeef8d981c8956a6907f2f8788117e7eff1d82e926ec794901d17c78024a50270940304540a733656f0d9080a4600190565b60008181526000805160206113c0833981519152602090815260408083206001600160a01b038616845290915290205460ff166111c75760008181526000805160206113c0833981519152602090815260408083206001600160a01b0395909516808452949091528120805460ff19166001179055339291907f2f8788117e7eff1d82e926ec794901d17c78024a50270940304540a733656f0d9080a4600190565b5050600090565b60008181526000805160206113c0833981519152602090815260408083206001600160a01b038616845290915290205460ff16156111c75760008181526000805160206113c0833981519152602090815260408083206001600160a01b0395909516808452949091528120805460ff19169055339291907ff6391f5c32d9c69d2a47ea670b442974b53935d1edc7fd64eb21e047a839171b9080a4600190565b6001600160a01b0316908115610f2f577f52c63247e1f47db19d5ce0460030c497f067ca4cebf71ba98eeadabe20bace02549080820180921161131b5760207fddf252ad1be2c89b69c2b068fc378daa952ba7f163c4a11628f55a4df523b3ef916000937f52c63247e1f47db19d5ce0460030c497f067ca4cebf71ba98eeadabe20bace0255848452600080516020611380833981519152825260408420818154019055604051908152a3565b634e487b7160e01b600052601160045260246000fd5b60ff6000805160206113e08339815191525460401c161561134e57565b631afcd79f60e31b60005260046000fdfe52c63247e1f47db19d5ce0460030c497f067ca4cebf71ba98eeadabe20bace0352c63247e1f47db19d5ce0460030c497f067ca4cebf71ba98eeadabe20bace0052c63247e1f47db19d5ce0460030c497f067ca4cebf71ba98eeadabe20bace0402dd7bc7dec4dceedda775e58dd541e08a116c6c53815c0bd028192f7b626800f0c57e16840df040f15088dc2f81fe391c3923bec73e23a9662efc9c229c6a00a2646970667358221220c14771c6241103663e0c41bef9a1f7d8c29f9a7ca02ae92e8f3147f8f550326464736f6c634300081a0033",
  "linkReferences": {},
  "deployedLinkReferences": {}
}