{
  "_format": "hh-sol-artifact-1",
  "contractName": "PresaleFactory",
  "sourceName": "contracts/PresaleFactory.sol",
  "abi": [
    {
      "inputs": [
        {
          "internalType": "address",
          "name": "presale_",
          "type": "address"
        },
        {
          "internalType": "address",
          "name": "token_",
          "type": "address"
        },
        {
          "internalType": "uint256",
          "name": "initialFee",
          "type": "uint256"
        },
        {
          "internalType": "address",
          "name": "ownerAddress",
          "type": "address"
        }
      ],
      "stateMutability": "nonpayable",
      "type": "constructor"
    },
    {
      "inputs": [],
      "name": "FailedDeployment",
      "type": "error"
    },
    {
      "inputs": [
        {
          "internalType": "uint256",
          "name": "sent",
          "type": "uint256"
        },
        {
          "internalType": "uint256",
          "name": "required",
          "type": "uint256"
        }
      ],
      "name": "IncorrectPresaleCreationFee",
      "type": "error"
    },
    {
      "inputs": [
        {
          "internalType": "uint256",
          "name": "balance",
          "type": "uint256"
        },
        {
          "internalType": "uint256",
          "name": "needed",
          "type": "uint256"
        }
      ],
      "name": "InsufficientBalance",
      "type": "error"
    },
    {
      "inputs": [
        {
          "internalType": "address",
          "name": "owner",
          "type": "address"
        }
      ],
      "name": "OwnableInvalidOwner",
      "type": "error"
    },
    {
      "inputs": [
        {
          "internalType": "address",
          "name": "account",
          "type": "address"
        }
      ],
      "name": "OwnableUnauthorizedAccount",
      "type": "error"
    },
    {
      "anonymous": false,
      "inputs": [
        {
          "indexed": true,
          "internalType": "address",
          "name": "previousOwner",
          "type": "address"
        },
        {
          "indexed": true,
          "internalType": "address",
          "name": "newOwner",
          "type": "address"
        }
      ],
      "name": "OwnershipTransferred",
      "type": "event"
    },
    {
      "anonymous": false,
      "inputs": [
        {
          "indexed": true,
          "internalType": "address",
          "name": "presale",
          "type": "address"
        }
      ],
      "name": "PresaleCreated",
      "type": "event"
    },
    {
      "inputs": [
        {
          "internalType": "uint256",
          "name": "",
          "type": "uint256"
        }
      ],
      "name": "allPresales",
      "outputs": [
        {
          "internalType": "address",
          "name": "",
          "type": "address"
        }
      ],
      "stateMutability": "view",
      "type": "function"
    },
    {
      "inputs": [
        {
          "internalType": "string",
          "name": "name",
          "type": "string"
        },
        {
          "internalType": "string",
          "name": "symbol",
          "type": "string"
        },
        {
          "internalType": "uint256",
          "name": "supply",
          "type": "uint256"
        },
        {
          "internalType": "uint256",
          "name": "price",
          "type": "uint256"
        },
        {
          "internalType": "uint256",
          "name": "hardCap",
          "type": "uint256"
        },
        {
          "internalType": "uint256",
          "name": "softCap",
          "type": "uint256"
        },
        {
          "internalType": "uint256",
          "name": "startTime",
          "type": "uint256"
        },
        {
          "internalType": "uint256",
          "name": "endTime",
          "type": "uint256"
        },
        {
          "internalType": "uint256",
          "name": "softCapPrice",
          "type": "uint256"
        }
      ],
      "name": "createPresale",
      "outputs": [],
      "stateMutability": "payable",
      "type": "function"
    },
    {
      "inputs": [],
      "name": "getFactoryBalance",
      "outputs": [
        {
          "internalType": "uint256",
          "name": "",
          "type": "uint256"
        }
      ],
      "stateMutability": "view",
      "type": "function"
    },
    {
      "inputs": [
        {
          "internalType": "uint256",
          "name": "page",
          "type": "uint256"
        }
      ],
      "name": "getPaginatedPresales",
      "outputs": [
        {
          "internalType": "address[]",
          "name": "",
          "type": "address[]"
        }
      ],
      "stateMutability": "view",
      "type": "function"
    },
    {
      "inputs": [
        {
          "internalType": "uint256",
          "name": "page",
          "type": "uint256"
        },
        {
          "internalType": "uint256",
          "name": "pageSize",
          "type": "uint256"
        }
      ],
      "name": "getPaginatedPresalesDecreasingByCreation",
      "outputs": [
        {
          "internalType": "address[]",
          "name": "",
          "type": "address[]"
        }
      ],
      "stateMutability": "view",
      "type": "function"
    },
    {
      "inputs": [
        {
          "internalType": "address",
          "name": "user",
          "type": "address"
        }
      ],
      "name": "getUserCreatedTokens",
      "outputs": [
        {
          "internalType": "address[]",
          "name": "",
          "type": "address[]"
        }
      ],
      "stateMutability": "view",
      "type": "function"
    },
    {
      "inputs": [],
      "name": "owner",
      "outputs": [
        {
          "internalType": "address",
          "name": "",
          "type": "address"
        }
      ],
      "stateMutability": "view",
      "type": "function"
    },
    {
      "inputs": [],
      "name": "presale",
      "outputs": [
        {
          "internalType": "contract Presale",
          "name": "",
          "type": "address"
        }
      ],
      "stateMutability": "view",
      "type": "function"
    },
    {
      "inputs": [],
      "name": "presaleCreationFee",
      "outputs": [
        {
          "internalType": "uint256",
          "name": "",
          "type": "uint256"
        }
      ],
      "stateMutability": "view",
      "type": "function"
    },
    {
      "inputs": [],
      "name": "renounceOwnership",
      "outputs": [],
      "stateMutability": "nonpayable",
      "type": "function"
    },
    {
      "inputs": [
        {
          "internalType": "uint256",
          "name": "_newFee",
          "type": "uint256"
        }
      ],
      "name": "setPresaleCreationFee",
      "outputs": [],
      "stateMutability": "nonpayable",
      "type": "function"
    },
    {
      "inputs": [],
      "name": "token",
      "outputs": [
        {
          "internalType": "contract MintableERC20",
          "name": "",
          "type": "address"
        }
      ],
      "stateMutability": "view",
      "type": "function"
    },
    {
      "inputs": [
        {
          "internalType": "address",
          "name": "newOwner",
          "type": "address"
        }
      ],
      "name": "transferOwnership",
      "outputs": [],
      "stateMutability": "nonpayable",
      "type": "function"
    },
    {
      "inputs": [],
      "name": "withdrawFees",
      "outputs": [],
      "stateMutability": "nonpayable",
      "type": "function"
    },
    {
      "stateMutability": "payable",
      "type": "receive"
    }
  ],
  "bytecode": "0x60c03461011557601f610c6538819003918201601f19168301916001600160401b0383118484101761011a578084926080946040528339810103126101155761004781610130565b9061005460208201610130565b6040820151916001600160a01b039061006f90606001610130565b169283156100ff57600080546001600160a01b031981168617825560405195916001600160a01b03909116907f8be0079c531659141344cd1fd0a4f28419497f9722a3daafe3b4186f6b6457e09080a36001600160a01b039081166080521660a052600155610b209081610145823960805181818160d60152610481015260a05181818161011e015261044f0152f35b631e4fbdf760e01b600052600060045260246000fd5b600080fd5b634e487b7160e01b600052604160045260246000fd5b51906001600160a01b03821682036101155756fe6080604052600436101561001b575b361561001957600080fd5b005b6000803560e01c80630d30e9bc146106fa578063168269d7146106d757806331008f3d146103d7578063476343ee14610389578063715018a61461032f57806380878418146103115780638da5cb5b146102ea578063a9e1a14a146102a6578063c00be1a014610227578063dcff36c01461020b578063ee443750146101db578063f2fde38b1461014d578063fc0c546a146101085763fdea8e0b146100c1575061000e565b346101055780600319360112610105576040517f00000000000000000000000000000000000000000000000000000000000000006001600160a01b03168152602090f35b80fd5b50346101055780600319360112610105576040517f00000000000000000000000000000000000000000000000000000000000000006001600160a01b03168152602090f35b5034610105576020366003190112610105576004356001600160a01b038116908190036101d75761017c610a5a565b80156101c35781546001600160a01b03198116821783556001600160a01b03167f8be0079c531659141344cd1fd0a4f28419497f9722a3daafe3b4186f6b6457e08380a380f35b631e4fbdf760e01b82526004829052602482fd5b5080fd5b5034610105576020366003190112610105576102076101fb6004356109a6565b6040519182918261071d565b0390f35b5034610105578060031936011261010557602047604051908152f35b5034610105576020366003190112610105576004356001600160a01b038116908190036101d7578152600360205260408120604051918260208354918281520192825260208220915b81811061028757610207856101fb818703826107dc565b82546001600160a01b0316845260209093019260019283019201610270565b503461010557602036600319011261010557600435906002548210156101055760206102d183610793565b905460405160039290921b1c6001600160a01b03168152f35b5034610105578060031936011261010557546040516001600160a01b039091168152602090f35b50346101055780600319360112610105576020600154604051908152f35b5034610105578060031936011261010557610348610a5a565b80546001600160a01b03198116825581906001600160a01b03167f8be0079c531659141344cd1fd0a4f28419497f9722a3daafe3b4186f6b6457e08280a380f35b50346101055780600319360112610105576103a2610a5a565b808080804760018060a01b038254168282156103ce575bf1156103c25780f35b604051903d90823e3d90fd5b506108fc6103b9565b506101203660031901126101055760043567ffffffffffffffff81116101d757610405903690600401610760565b60243567ffffffffffffffff81116106a757610425903690600401610760565b926001548034036106c157508490818034156106b8575b8180809234903090f1156106ab5761047c7f00000000000000000000000000000000000000000000000000000000000000006001600160a01b0316610a83565b6104ae7f00000000000000000000000000000000000000000000000000000000000000006001600160a01b0316610a83565b6001600160a01b0390911695863b156106a7576040516393d2392360e01b81523360048201526001600160a01b039092166024830181905260a060448401529591948593849361051993916105079160a4870191610985565b84810360031901606486015291610985565b6044356084830152038183875af1801561069c57610688575b50803b1561067957826040516380d021a960e01b81523360048201528360248201526064356044820152608435606482015260a435608482015260c43560a482015260e43560c48201526101043560e48201523061010482015281816101248183875af1801561067d57610664575b5050600254600160401b811015610650578060016105c4920160025560026107c4565b81546001600160a01b0360039290921b91821b19169083901b1790557f8b27b1a9a5960fe85b0267737620545414f3bb7d104301f7ef6b397e7ebfc9938380a2338252600360205260408220805490600160401b821015610650579061062f916001820181556107c4565b81546001600160a01b0360039290921b91821b191692901b91909117905580f35b634e487b7160e01b84526041600452602484fd5b8161066e916107dc565b6106795782386105a1565b8280fd5b6040513d84823e3d90fd5b83610695919492946107dc565b9138610532565b6040513d86823e3d90fd5b8380fd5b50604051903d90823e3d90fd5b506108fc61043c565b631d50115d60e01b865234600452602452604485fd5b5034610105576040366003190112610105576102076101fb6024356004356108a2565b503461010557602036600319011261010557610714610a5a565b60043560015580f35b602060408183019282815284518094520192019060005b8181106107415750505090565b82516001600160a01b0316845260209384019390920191600101610734565b9181601f8401121561078e5782359167ffffffffffffffff831161078e576020838186019501011161078e57565b600080fd5b6002548110156107ae57600260005260206000200190600090565b634e487b7160e01b600052603260045260246000fd5b80548210156107ae5760005260206000200190600090565b90601f8019910116810190811067ffffffffffffffff8211176107fe57604052565b634e487b7160e01b600052604160045260246000fd5b67ffffffffffffffff81116107fe5760051b60200190565b9061083682610814565b61084360405191826107dc565b8281528092610854601f1991610814565b0190602036910137565b9190820391821161086b57565b634e487b7160e01b600052601160045260246000fd5b9190820180921161086b57565b80518210156107ae5760209160051b010190565b90600254908115801561097d575b61096057600019830192831161086b578083029280840482149015171561086b578183101561096057816108e48285610881565b11610950575b6108f38161082c565b92600019830192831160005b83811061090e57505050505090565b8161086b578061093161092c600193610927878a61085e565b61085e565b610793565b838060a01b0391549060031b1c16610949828961088e565b52016108ff565b5061095b828261085e565b6108ea565b5050506040516109716020826107dc565b60008152600036813790565b5082156108b0565b908060209392818452848401376000828201840152601f01601f1916010190565b906002548215610a4957600019830192831161086b57600a830292808404600a149015171561086b5780831015610a4957600a83019081841161086b576109f7918491808211610a41575b5061085e565b610a008161082c565b9060005b818110610a12575090925050565b80610a2261092c60019388610881565b838060a01b0391549060031b1c16610a3a828661088e565b5201610a04565b9050386109f1565b5090506040516109716020826107dc565b6000546001600160a01b03163303610a6e57565b63118cdaa760e01b6000523360045260246000fd5b6e5af43d82803e903d91602b57fd5bf390763d602d80600a3d3981f3363d3d373d3d3d363d7300000062ffffff8260881c161760005260781b17602052603760096000f0906001600160a01b03821615610ad957565b63b06ebf3d60e01b60005260046000fdfea26469706673582212200ada611fe9eb4858d003990ebccfab8fe20f9f5d9e559429f684c87965eef6b464736f6c634300081a0033",
  "linkReferences": {},
  "deployedLinkReferences": {}
}