{
  "_format": "hh3-artifact-1",
  "contractName": "MintableERC20",
  "sourceName": "contracts/MintableERC20.sol",
  "abi": [
    {
      "inputs": [],
      "stateMutability": "nonpayable",
      "type": "constructor"
    },
    {
      "inputs": [],
      "name": "AccessControlBadConfirmation",
      "type": "error"
    },
    {
      "inputs": [
        {
          "internalType": "address",
          "name": "account",
          "type": "address"
        },
        {
          "internalType": "bytes32",
          "name": "neededRole",
          "type": "bytes32"
        }
      ],
      "name": "AccessControlUnauthorizedAccount",
      "type": "error"
    },
    {
      "inputs": [
        {
          "internalType": "address",
          "name": "spender",
          "type": "address"
        },
        {
          "internalType": "uint256",
          "name": "allowance",
          "type": "uint256"
        },
        {
          "internalType": "uint256",
          "name": "needed",
          "type": "uint256"
        }
      ],
      "name": "ERC20InsufficientAllowance",
      "type": "error"
    },
    {
      "inputs": [
        {
          "internalType": "address",
          "name": "sender",
          "type": "address"
        },
        {
          "internalType": "uint256",
          "name": "balance",
          "type": "uint256"
        },
        {
          "internalType": "uint256",
          "name": "needed",
          "type": "uint256"
        }
      ],
      "name": "ERC20InsufficientBalance",
      "type": "error"
    },
    {
      "inputs": [
        {
          "internalType": "address",
          "name": "approver",
          "type": "address"
        }
      ],
      "name": "ERC20InvalidApprover",
      "type": "error"
    },
    {
      "inputs": [
        {
          "internalType": "address",
          "name": "receiver",
          "type": "address"
        }
      ],
      "name": "ERC20InvalidReceiver",
      "type": "error"
    },
    {
      "inputs": [
        {
          "internalType": "address",
          "name": "sender",
          "type": "address"
        }
      ],
      "name": "ERC20InvalidSender",
      "type": "error"
    },
    {
      "inputs": [
        {
          "internalType": "address",
          "name": "spender",
          "type": "address"
        }
      ],
      "name": "ERC20InvalidSpender",
      "type": "error"
    },
    {
      "inputs": [],
      "name": "InvalidInitialization",
      "type": "error"
    },
    {
      "inputs": [],
      "name": "NotInitializing",
      "type": "error"
    },
    {
      "anonymous": false,
      "inputs": [
        {
          "indexed": true,
          "internalType": "address",
          "name": "owner",
          "type": "address"
        },
        {
          "indexed": true,
          "internalType": "address",
          "name": "spender",
          "type": "address"
        },
        {
          "indexed": false,
          "internalType": "uint256",
          "name": "value",
          "type": "uint256"
        }
      ],
      "name": "Approval",
      "type": "event"
    },
    {
      "anonymous": false,
      "inputs": [
        {
          "indexed": false,
          "internalType": "uint64",
          "name": "version",
          "type": "uint64"
        }
      ],
      "name": "Initialized",
      "type": "event"
    },
    {
      "anonymous": false,
      "inputs": [
        {
          "indexed": true,
          "internalType": "bytes32",
          "name": "role",
          "type": "bytes32"
        },
        {
          "indexed": true,
          "internalType": "bytes32",
          "name": "previousAdminRole",
          "type": "bytes32"
        },
        {
          "indexed": true,
          "internalType": "bytes32",
          "name": "newAdminRole",
          "type": "bytes32"
        }
      ],
      "name": "RoleAdminChanged",
      "type": "event"
    },
    {
      "anonymous": false,
      "inputs": [
        {
          "indexed": true,
          "internalType": "bytes32",
          "name": "role",
          "type": "bytes32"
        },
        {
          "indexed": true,
          "internalType": "address",
          "name": "account",
          "type": "address"
        },
        {
          "indexed": true,
          "internalType": "address",
          "name": "sender",
          "type": "address"
        }
      ],
      "name": "RoleGranted",
      "type": "event"
    },
    {
      "anonymous": false,
      "inputs": [
        {
          "indexed": true,
          "internalType": "bytes32",
          "name": "role",
          "type": "bytes32"
        },
        {
          "indexed": true,
          "internalType": "address",
          "name": "account",
          "type": "address"
        },
        {
          "indexed": true,
          "internalType": "address",
          "name": "sender",
          "type": "address"
        }
      ],
      "name": "RoleRevoked",
      "type": "event"
    },
    {
      "anonymous": false,
      "inputs": [
        {
          "indexed": true,
          "internalType": "address",
          "name": "from",
          "type": "address"
        },
        {
          "indexed": true,
          "internalType": "address",
          "name": "to",
          "type": "address"
        },
        {
          "indexed": false,
          "internalType": "uint256",
          "name": "value",
          "type": "uint256"
        }
      ],
      "name": "Transfer",
      "type": "event"
    },
    {
      "inputs": [],
      "name": "DEFAULT_ADMIN_ROLE",
      "outputs": [
        {
          "internalType": "bytes32",
          "name": "",
          "type": "bytes32"
        }
      ],
      "stateMutability": "view",
      "type": "function"
    },
    {
      "inputs": [],
      "name": "MINTER_ROLE",
      "outputs": [
        {
          "internalType": "bytes32",
          "name": "",
          "type": "bytes32"
        }
      ],
      "stateMutability": "view",
      "type": "function"
    },
    {
      "inputs": [
        {
          "internalType": "address",
          "name": "owner",
          "type": "address"
        },
        {
          "internalType": "address",
          "name": "spender",
          "type": "address"
        }
      ],
      "name": "allowance",
      "outputs": [
        {
          "internalType": "uint256",
          "name": "",
          "type": "uint256"
        }
      ],
      "stateMutability": "view",
      "type": "function"
    },
    {
      "inputs": [
        {
          "internalType": "address",
          "name": "spender",
          "type": "address"
        },
        {
          "internalType": "uint256",
          "name": "value",
          "type": "uint256"
        }
      ],
      "name": "approve",
      "outputs": [
        {
          "internalType": "bool",
          "name": "",
          "type": "bool"
        }
      ],
      "stateMutability": "nonpayable",
      "type": "function"
    },
    {
      "inputs": [
        {
          "internalType": "address",
          "name": "account",
          "type": "address"
        }
      ],
      "name": "balanceOf",
      "outputs": [
        {
          "internalType": "uint256",
          "name": "",
          "type": "uint256"
        }
      ],
      "stateMutability": "view",
      "type": "function"
    },
    {
      "inputs": [],
      "name": "decimals",
      "outputs": [
        {
          "internalType": "uint8",
          "name": "",
          "type": "uint8"
        }
      ],
      "stateMutability": "view",
      "type": "function"
    },
    {
      "inputs": [
        {
          "internalType": "bytes32",
          "name": "role",
          "type": "bytes32"
        }
      ],
      "name": "getRoleAdmin",
      "outputs": [
        {
          "internalType": "bytes32",
          "name": "",
          "type": "bytes32"
        }
      ],
      "stateMutability": "view",
      "type": "function"
    },
    {
      "inputs": [
        {
          "internalType": "bytes32",
          "name": "role",
          "type": "bytes32"
        },
        {
          "internalType": "address",
          "name": "account",
          "type": "address"
        }
      ],
      "name": "grantRole",
      "outputs": [],
      "stateMutability": "nonpayable",
      "type": "function"
    },
    {
      "inputs": [
        {
          "internalType": "bytes32",
          "name": "role",
          "type": "bytes32"
        },
        {
          "internalType": "address",
          "name": "account",
          "type": "address"
        }
      ],
      "name": "hasRole",
      "outputs": [
        {
          "internalType": "bool",
          "name": "",
          "type": "bool"
        }
      ],
      "stateMutability": "view",
      "type": "function"
    },
    {
      "inputs": [
        {
          "internalType": "address",
          "name": "defaultAdmin_",
          "type": "address"
        },
        {
          "internalType": "address",
          "name": "minter_",
          "type": "address"
        },
        {
          "internalType": "string",
          "name": "name_",
          "type": "string"
        },
        {
          "internalType": "string",
          "name": "symbol_",
          "type": "string"
        },
        {
          "internalType": "uint256",
          "name": "initialSupply_",
          "type": "uint256"
        }
      ],
      "name": "initialize",
      "outputs": [],
      "stateMutability": "nonpayable",
      "type": "function"
    },
    {
      "inputs": [
        {
          "internalType": "address",
          "name": "to",
          "type": "address"
        },
        {
          "internalType": "uint256",
          "name": "amount",
          "type": "uint256"
        }
      ],
      "name": "mint",
      "outputs": [],
      "stateMutability": "nonpayable",
      "type": "function"
    },
    {
      "inputs": [],
      "name": "name",
      "outputs": [
        {
          "internalType": "string",
          "name": "",
          "type": "string"
        }
      ],
      "stateMutability": "view",
      "type": "function"
    },
    {
      "inputs": [],
      "name": "presaleAddress",
      "outputs": [
        {
          "internalType": "address",
          "name": "",
          "type": "address"
        }
      ],
      "stateMutability": "view",
      "type": "function"
    },
    {
      "inputs": [
        {
          "internalType": "bytes32",
          "name": "role",
          "type": "bytes32"
        },
        {
          "internalType": "address",
          "name": "callerConfirmation",
          "type": "address"
        }
      ],
      "name": "renounceRole",
      "outputs": [],
      "stateMutability": "nonpayable",
      "type": "function"
    },
    {
      "inputs": [
        {
          "internalType": "bytes32",
          "name": "role",
          "type": "bytes32"
        },
        {
          "internalType": "address",
          "name": "account",
          "type": "address"
        }
      ],
      "name": "revokeRole",
      "outputs": [],
      "stateMutability": "nonpayable",
      "type": "function"
    },
    {
      "inputs": [
        {
          "internalType": "bytes4",
          "name": "interfaceId",
          "type": "bytes4"
        }
      ],
      "name": "supportsInterface",
      "outputs": [
        {
          "internalType": "bool",
          "name": "",
          "type": "bool"
        }
      ],
      "stateMutability": "view",
      "type": "function"
    },
    {
      "inputs": [],
      "name": "symbol",
      "outputs": [
        {
          "internalType": "string",
          "name": "",
          "type": "string"
        }
      ],
      "stateMutability": "view",
      "type": "function"
    },
    {
      "inputs": [],
      "name": "totalSupply",
      "outputs": [
        {
          "internalType": "uint256",
          "name": "",
          "type": "uint256"
        }
      ],
      "stateMutability": "view",
      "type": "function"
    },
    {
      "inputs": [
        {
          "internalType": "address",
          "name": "to",
          "type": "address"
        },
        {
          "internalType": "uint256",
          "name": "value",
          "type": "uint256"
        }
      ],
      "name": "transfer",
      "outputs": [
        {
          "internalType": "bool",
          "name": "",
          "type": "bool"
        }
      ],
      "stateMutability": "nonpayable",
      "type": "function"
    },
    {
      "inputs": [
        {
          "internalType": "address",
          "name": "from",
          "type": "address"
        },
        {
          "internalType": "address",
          "name": "to",
          "type": "address"
        },
        {
          "internalType": "uint256",
          "name": "value",
          "type": "uint256"
        }
      ],
      "name": "transferFrom",
      "outputs": [
        {
          "internalType": "bool",
          "name": "",
          "type": "bool"
        }
      ],
      "stateMutability": "nonpayable",
      "type": "function"
    }
  ],
  "bytecode": "0x6080604052348015600e575f80fd5b5060156019565b60c9565b7ff0c57e16840df040f15088dc2f81fe391c3923bec73e23a9662efc9c229c6a00805468010000000000000000900460ff161560685760405163f92ee8a960e01b815260040160405180910390fd5b80546001600160401b039081161460c65780546001600160401b0319166001600160401b0390811782556040519081527fc7f505b2f371ae2175ee4913f4499e1f2633a7b5936321eed1cdaeb6115181d29060200160405180910390a15b50565b61110f806100d65f395ff3fe608060405234801561000f575f80fd5b5060043610610127575f3560e01c806340c10f19116100a9578063a217fddf1161006e578063a217fddf146102a8578063a9059cbb146102af578063d5391393146102c2578063d547741f146102e9578063dd62ed3e146102fc575f80fd5b806340c10f191461023357806370a082311461024657806391d148541461027a57806393d239231461028d57806395d89b41146102a0575f80fd5b806323b872dd116100ef57806323b872dd146101d6578063248a9ca3146101e95780632f2ff15d146101fc578063313ce5671461021157806336568abe14610220575f80fd5b806301ffc9a71461012b57806306fdde0314610153578063095ea7b314610168578063122fe6851461017b57806318160ddd146101a5575b5f80fd5b61013e610139366004610cf0565b61030f565b60405190151581526020015b60405180910390f35b61015b610345565b60405161014a9190610d1e565b61013e610176366004610d6e565b610405565b5f5461018d906001600160a01b031681565b6040516001600160a01b03909116815260200161014a565b7f52c63247e1f47db19d5ce0460030c497f067ca4cebf71ba98eeadabe20bace02545b60405190815260200161014a565b61013e6101e4366004610d96565b61041c565b6101c86101f7366004610dd0565b61043f565b61020f61020a366004610de7565b61045f565b005b6040516012815260200161014a565b61020f61022e366004610de7565b610481565b61020f610241366004610d6e565b6104b9565b6101c8610254366004610e11565b6001600160a01b03165f9081525f8051602061109a833981519152602052604090205490565b61013e610288366004610de7565b6104ed565b61020f61029b366004610e6f565b610523565b61015b6106ec565b6101c85f81565b61013e6102bd366004610d6e565b61072a565b6101c87f9f2df0fed2c77648de5860a4cc508cd0818c85b8b8a1ab4ceeef8d981c8956a681565b61020f6102f7366004610de7565b610737565b6101c861030a366004610f07565b610753565b5f6001600160e01b03198216637965db0b60e01b148061033f57506301ffc9a760e01b6001600160e01b03198316145b92915050565b7f52c63247e1f47db19d5ce0460030c497f067ca4cebf71ba98eeadabe20bace0380546060915f8051602061109a8339815191529161038390610f2f565b80601f01602080910402602001604051908101604052809291908181526020018280546103af90610f2f565b80156103fa5780601f106103d1576101008083540402835291602001916103fa565b820191905f5260205f20905b8154815290600101906020018083116103dd57829003601f168201915b505050505091505090565b5f3361041281858561079c565b5060019392505050565b5f336104298582856107a9565b61043485858561080c565b506001949350505050565b5f9081525f805160206110ba833981519152602052604090206001015490565b6104688261043f565b61047181610869565b61047b8383610876565b50505050565b6001600160a01b03811633146104aa5760405163334bd91960e11b815260040160405180910390fd5b6104b48282610917565b505050565b7f9f2df0fed2c77648de5860a4cc508cd0818c85b8b8a1ab4ceeef8d981c8956a66104e381610869565b6104b48383610990565b5f9182525f805160206110ba833981519152602090815260408084206001600160a01b0393909316845291905290205460ff1690565b5f61052c6109c8565b805490915060ff600160401b820416159067ffffffffffffffff165f811580156105535750825b90505f8267ffffffffffffffff16600114801561056f5750303b155b90508115801561057d575080155b1561059b5760405163f92ee8a960e01b815260040160405180910390fd5b845467ffffffffffffffff1916600117855583156105c557845460ff60401b1916600160401b1785555b6106368a8a8080601f0160208091040260200160405190810160405280939291908181526020018383808284375f9201919091525050604080516020601f8e018190048102820181019092528c815292508c91508b90819084018382808284375f920191909152506109f092505050565b61063e610a02565b6106485f8d610876565b506106737f9f2df0fed2c77648de5860a4cc508cd0818c85b8b8a1ab4ceeef8d981c8956a68c610876565b5061067e8c87610990565b5f80546001600160a01b0319166001600160a01b038d1617905583156106de57845460ff60401b19168555604051600181527fc7f505b2f371ae2175ee4913f4499e1f2633a7b5936321eed1cdaeb6115181d29060200160405180910390a15b505050505050505050505050565b7f52c63247e1f47db19d5ce0460030c497f067ca4cebf71ba98eeadabe20bace0480546060915f8051602061109a8339815191529161038390610f2f565b5f3361041281858561080c565b6107408261043f565b61074981610869565b61047b8383610917565b6001600160a01b039182165f9081527f52c63247e1f47db19d5ce0460030c497f067ca4cebf71ba98eeadabe20bace016020908152604080832093909416825291909152205490565b6104b48383836001610a0c565b5f6107b48484610753565b90505f1981101561047b57818110156107fe57604051637dc7a0d960e11b81526001600160a01b038416600482015260248101829052604481018390526064015b60405180910390fd5b61047b84848484035f610a0c565b6001600160a01b03831661083557604051634b637e8f60e11b81525f60048201526024016107f5565b6001600160a01b03821661085e5760405163ec442f0560e01b81525f60048201526024016107f5565b6104b4838383610af0565b6108738133610c29565b50565b5f5f805160206110ba83398151915261088f84846104ed565b61090e575f848152602082815260408083206001600160a01b03871684529091529020805460ff191660011790556108c43390565b6001600160a01b0316836001600160a01b0316857f2f8788117e7eff1d82e926ec794901d17c78024a50270940304540a733656f0d60405160405180910390a4600191505061033f565b5f91505061033f565b5f5f805160206110ba83398151915261093084846104ed565b1561090e575f848152602082815260408083206001600160a01b0387168085529252808320805460ff1916905551339287917ff6391f5c32d9c69d2a47ea670b442974b53935d1edc7fd64eb21e047a839171b9190a4600191505061033f565b6001600160a01b0382166109b95760405163ec442f0560e01b81525f60048201526024016107f5565b6109c45f8383610af0565b5050565b5f807ff0c57e16840df040f15088dc2f81fe391c3923bec73e23a9662efc9c229c6a0061033f565b6109f8610c62565b6109c48282610c87565b610a0a610c62565b565b5f8051602061109a8339815191526001600160a01b038516610a435760405163e602df0560e01b81525f60048201526024016107f5565b6001600160a01b038416610a6c57604051634a1406b160e11b81525f60048201526024016107f5565b6001600160a01b038086165f90815260018301602090815260408083209388168352929052208390558115610ae957836001600160a01b0316856001600160a01b03167f8c5be1e5ebec7d5bd14f71427d1e84f3dd0314c0f7b2291e5b200ac8c7c3b92585604051610ae091815260200190565b60405180910390a35b5050505050565b5f8051602061109a8339815191526001600160a01b038416610b2a5781816002015f828254610b1f9190610f67565b90915550610b9a9050565b6001600160a01b0384165f9081526020829052604090205482811015610b7c5760405163391434e360e21b81526001600160a01b038616600482015260248101829052604481018490526064016107f5565b6001600160a01b0385165f9081526020839052604090209083900390555b6001600160a01b038316610bb8576002810180548390039055610bd6565b6001600160a01b0383165f9081526020829052604090208054830190555b826001600160a01b0316846001600160a01b03167fddf252ad1be2c89b69c2b068fc378daa952ba7f163c4a11628f55a4df523b3ef84604051610c1b91815260200190565b60405180910390a350505050565b610c3382826104ed565b6109c45760405163e2517d3f60e01b81526001600160a01b0382166004820152602481018390526044016107f5565b610c6a610cd7565b610a0a57604051631afcd79f60e31b815260040160405180910390fd5b610c8f610c62565b5f8051602061109a8339815191527f52c63247e1f47db19d5ce0460030c497f067ca4cebf71ba98eeadabe20bace03610cc88482610fde565b506004810161047b8382610fde565b5f610ce06109c8565b54600160401b900460ff16919050565b5f60208284031215610d00575f80fd5b81356001600160e01b031981168114610d17575f80fd5b9392505050565b602081525f82518060208401528060208501604085015e5f604082850101526040601f19601f83011684010191505092915050565b80356001600160a01b0381168114610d69575f80fd5b919050565b5f8060408385031215610d7f575f80fd5b610d8883610d53565b946020939093013593505050565b5f805f60608486031215610da8575f80fd5b610db184610d53565b9250610dbf60208501610d53565b929592945050506040919091013590565b5f60208284031215610de0575f80fd5b5035919050565b5f8060408385031215610df8575f80fd5b82359150610e0860208401610d53565b90509250929050565b5f60208284031215610e21575f80fd5b610d1782610d53565b5f8083601f840112610e3a575f80fd5b50813567ffffffffffffffff811115610e51575f80fd5b602083019150836020828501011115610e68575f80fd5b9250929050565b5f805f805f805f60a0888a031215610e85575f80fd5b610e8e88610d53565b9650610e9c60208901610d53565b9550604088013567ffffffffffffffff811115610eb7575f80fd5b610ec38a828b01610e2a565b909650945050606088013567ffffffffffffffff811115610ee2575f80fd5b610eee8a828b01610e2a565b989b979a50959894979596608090950135949350505050565b5f8060408385031215610f18575f80fd5b610f2183610d53565b9150610e0860208401610d53565b600181811c90821680610f4357607f821691505b602082108103610f6157634e487b7160e01b5f52602260045260245ffd5b50919050565b8082018082111561033f57634e487b7160e01b5f52601160045260245ffd5b634e487b7160e01b5f52604160045260245ffd5b601f8211156104b457805f5260205f20601f840160051c81016020851015610fbf5750805b601f840160051c820191505b81811015610ae9575f8155600101610fcb565b815167ffffffffffffffff811115610ff857610ff8610f86565b61100c816110068454610f2f565b84610f9a565b6020601f82116001811461103e575f83156110275750848201515b5f19600385901b1c1916600184901b178455610ae9565b5f84815260208120601f198516915b8281101561106d578785015182556020948501946001909201910161104d565b508482101561108a57868401515f19600387901b60f8161c191681555b50505050600190811b0190555056fe52c63247e1f47db19d5ce0460030c497f067ca4cebf71ba98eeadabe20bace0002dd7bc7dec4dceedda775e58dd541e08a116c6c53815c0bd028192f7b626800a26469706673582212201ae678e4e46a23f474d8a8c85fcddab28cd7ebef9f481b7c0c051937883aebfe64736f6c634300081a0033",
  "linkReferences": {},
  "deployedLinkReferences": {},
  "immutableReferences": {},
  "inputSourceName": "project/contracts/MintableERC20.sol",
  "buildInfoId": "solc-0_8_26-21dc08efa24601f5bc5257965af65be0a94df8a5"
}