{
  "_format": "hh3-artifact-1",
  "contractName": "Presale",
  "sourceName": "contracts/Presale.sol",
  "abi": [
    {
      "inputs": [],
      "stateMutability": "nonpayable",
      "type": "constructor"
    },
    {
      "inputs": [
        {
          "internalType": "uint256",
          "name": "currentContribution",
          "type": "uint256"
        },
        {
          "internalType": "uint256",
          "name": "maxContribution",
          "type": "uint256"
        }
      ],
      "name": "HardCapExceeded",
      "type": "error"
    },
    {
      "inputs": [
        {
          "internalType": "uint256",
          "name": "amountSent",
          "type": "uint256"
        },
        {
          "internalType": "uint256",
          "name": "requiredAmount",
          "type": "uint256"
        }
      ],
      "name": "InvalidEtherSent",
      "type": "error"
    },
    {
      "inputs": [],
      "name": "InvalidInitialization",
      "type": "error"
    },
    {
      "inputs": [],
      "name": "InvalidSoftCapPrice",
      "type": "error"
    },
    {
      "inputs": [],
      "name": "NoContributionToRefund",
      "type": "error"
    },
    {
      "inputs": [],
      "name": "NoTokensToClaim",
      "type": "error"
    },
    {
      "inputs": [],
      "name": "NotInitializing",
      "type": "error"
    },
    {
      "inputs": [
        {
          "internalType": "address",
          "name": "owner",
          "type": "address"
        }
      ],
      "name": "OwnableInvalidOwner",
      "type": "error"
    },
    {
      "inputs": [
        {
          "internalType": "address",
          "name": "account",
          "type": "address"
        }
      ],
      "name": "OwnableUnauthorizedAccount",
      "type": "error"
    },
    {
      "inputs": [],
      "name": "PresaleEnded",
      "type": "error"
    },
    {
      "inputs": [],
      "name": "PresaleFailed",
      "type": "error"
    },
    {
      "inputs": [],
      "name": "PresaleFailedNoRefund",
      "type": "error"
    },
    {
      "inputs": [],
      "name": "PresaleNotStarted",
      "type": "error"
    },
    {
      "inputs": [],
      "name": "PresaleStillActive",
      "type": "error"
    },
    {
      "inputs": [],
      "name": "SoftCapAlreadyReached",
      "type": "error"
    },
    {
      "inputs": [],
      "name": "SoftCapNotReached",
      "type": "error"
    },
    {
      "inputs": [],
      "name": "SoftCapRequiresTimeLimit",
      "type": "error"
    },
    {
      "anonymous": false,
      "inputs": [
        {
          "indexed": true,
          "internalType": "address",
          "name": "user",
          "type": "address"
        },
        {
          "indexed": false,
          "internalType": "uint256",
          "name": "amount",
          "type": "uint256"
        }
      ],
      "name": "EthRefunded",
      "type": "event"
    },
    {
      "anonymous": false,
      "inputs": [
        {
          "indexed": true,
          "internalType": "address",
          "name": "to",
          "type": "address"
        },
        {
          "indexed": false,
          "internalType": "uint256",
          "name": "amount",
          "type": "uint256"
        }
      ],
      "name": "EtherWithdrawn",
      "type": "event"
    },
    {
      "anonymous": false,
      "inputs": [
        {
          "indexed": false,
          "internalType": "uint64",
          "name": "version",
          "type": "uint64"
        }
      ],
      "name": "Initialized",
      "type": "event"
    },
    {
      "anonymous": false,
      "inputs": [
        {
          "indexed": true,
          "internalType": "address",
          "name": "contributor",
          "type": "address"
        },
        {
          "indexed": false,
          "internalType": "uint256",
          "name": "amount",
          "type": "uint256"
        }
      ],
      "name": "NewContribution",
      "type": "event"
    },
    {
      "anonymous": false,
      "inputs": [
        {
          "indexed": true,
          "internalType": "address",
          "name": "previousOwner",
          "type": "address"
        },
        {
          "indexed": true,
          "internalType": "address",
          "name": "newOwner",
          "type": "address"
        }
      ],
      "name": "OwnershipTransferred",
      "type": "event"
    },
    {
      "anonymous": false,
      "inputs": [
        {
          "indexed": true,
          "internalType": "address",
          "name": "to",
          "type": "address"
        },
        {
          "indexed": false,
          "internalType": "uint256",
          "name": "amount",
          "type": "uint256"
        }
      ],
      "name": "TokenWithdrawn",
      "type": "event"
    },
    {
      "anonymous": false,
      "inputs": [
        {
          "indexed": true,
          "internalType": "address",
          "name": "claimer",
          "type": "address"
        },
        {
          "indexed": false,
          "internalType": "uint256",
          "name": "amount",
          "type": "uint256"
        }
      ],
      "name": "TokensClaimed",
      "type": "event"
    },
    {
      "inputs": [],
      "name": "claimTokens",
      "outputs": [],
      "stateMutability": "nonpayable",
      "type": "function"
    },
    {
      "inputs": [
        {
          "internalType": "uint256",
          "name": "amount",
          "type": "uint256"
        }
      ],
      "name": "contribute",
      "outputs": [],
      "stateMutability": "payable",
      "type": "function"
    },
    {
      "inputs": [],
      "name": "currentPrice",
      "outputs": [
        {
          "internalType": "uint256",
          "name": "",
          "type": "uint256"
        }
      ],
      "stateMutability": "view",
      "type": "function"
    },
    {
      "inputs": [],
      "name": "endTime",
      "outputs": [
        {
          "internalType": "uint256",
          "name": "",
          "type": "uint256"
        }
      ],
      "stateMutability": "view",
      "type": "function"
    },
    {
      "inputs": [
        {
          "internalType": "address",
          "name": "",
          "type": "address"
        }
      ],
      "name": "ethContributions",
      "outputs": [
        {
          "internalType": "uint256",
          "name": "",
          "type": "uint256"
        }
      ],
      "stateMutability": "view",
      "type": "function"
    },
    {
      "inputs": [],
      "name": "factoryAddress",
      "outputs": [
        {
          "internalType": "address",
          "name": "",
          "type": "address"
        }
      ],
      "stateMutability": "view",
      "type": "function"
    },
    {
      "inputs": [],
      "name": "hardCap",
      "outputs": [
        {
          "internalType": "uint256",
          "name": "",
          "type": "uint256"
        }
      ],
      "stateMutability": "view",
      "type": "function"
    },
    {
      "inputs": [],
      "name": "hasSoftCap",
      "outputs": [
        {
          "internalType": "bool",
          "name": "",
          "type": "bool"
        }
      ],
      "stateMutability": "view",
      "type": "function"
    },
    {
      "inputs": [
        {
          "internalType": "address",
          "name": "owner_",
          "type": "address"
        },
        {
          "internalType": "address",
          "name": "token_",
          "type": "address"
        },
        {
          "internalType": "uint256",
          "name": "price_",
          "type": "uint256"
        },
        {
          "internalType": "uint256",
          "name": "hardCap_",
          "type": "uint256"
        },
        {
          "internalType": "uint256",
          "name": "softCap_",
          "type": "uint256"
        },
        {
          "internalType": "uint256",
          "name": "startTime_",
          "type": "uint256"
        },
        {
          "internalType": "uint256",
          "name": "endTime_",
          "type": "uint256"
        },
        {
          "internalType": "uint256",
          "name": "softCapPrice_",
          "type": "uint256"
        },
        {
          "internalType": "address",
          "name": "factoryAddress_",
          "type": "address"
        }
      ],
      "name": "initialize",
      "outputs": [],
      "stateMutability": "nonpayable",
      "type": "function"
    },
    {
      "inputs": [],
      "name": "owner",
      "outputs": [
        {
          "internalType": "address",
          "name": "",
          "type": "address"
        }
      ],
      "stateMutability": "view",
      "type": "function"
    },
    {
      "inputs": [],
      "name": "presaleFailed",
      "outputs": [
        {
          "internalType": "bool",
          "name": "",
          "type": "bool"
        }
      ],
      "stateMutability": "view",
      "type": "function"
    },
    {
      "inputs": [],
      "name": "price",
      "outputs": [
        {
          "internalType": "uint256",
          "name": "",
          "type": "uint256"
        }
      ],
      "stateMutability": "view",
      "type": "function"
    },
    {
      "inputs": [],
      "name": "refund",
      "outputs": [],
      "stateMutability": "nonpayable",
      "type": "function"
    },
    {
      "inputs": [],
      "name": "renounceOwnership",
      "outputs": [],
      "stateMutability": "nonpayable",
      "type": "function"
    },
    {
      "inputs": [],
      "name": "softCap",
      "outputs": [
        {
          "internalType": "uint256",
          "name": "",
          "type": "uint256"
        }
      ],
      "stateMutability": "view",
      "type": "function"
    },
    {
      "inputs": [],
      "name": "softCapPrice",
      "outputs": [
        {
          "internalType": "uint256",
          "name": "",
          "type": "uint256"
        }
      ],
      "stateMutability": "view",
      "type": "function"
    },
    {
      "inputs": [],
      "name": "softCapReached",
      "outputs": [
        {
          "internalType": "bool",
          "name": "",
          "type": "bool"
        }
      ],
      "stateMutability": "view",
      "type": "function"
    },
    {
      "inputs": [],
      "name": "startTime",
      "outputs": [
        {
          "internalType": "uint256",
          "name": "",
          "type": "uint256"
        }
      ],
      "stateMutability": "view",
      "type": "function"
    },
    {
      "inputs": [],
      "name": "token",
      "outputs": [
        {
          "internalType": "contract MintableERC20",
          "name": "",
          "type": "address"
        }
      ],
      "stateMutability": "view",
      "type": "function"
    },
    {
      "inputs": [
        {
          "internalType": "address",
          "name": "",
          "type": "address"
        }
      ],
      "name": "tokenContributions",
      "outputs": [
        {
          "internalType": "uint256",
          "name": "",
          "type": "uint256"
        }
      ],
      "stateMutability": "view",
      "type": "function"
    },
    {
      "inputs": [],
      "name": "totalContributed",
      "outputs": [
        {
          "internalType": "uint256",
          "name": "",
          "type": "uint256"
        }
      ],
      "stateMutability": "view",
      "type": "function"
    },
    {
      "inputs": [
        {
          "internalType": "address",
          "name": "newOwner",
          "type": "address"
        }
      ],
      "name": "transferOwnership",
      "outputs": [],
      "stateMutability": "nonpayable",
      "type": "function"
    },
    {
      "inputs": [],
      "name": "withdrawETH",
      "outputs": [],
      "stateMutability": "nonpayable",
      "type": "function"
    },
    {
      "inputs": [
        {
          "internalType": "address",
          "name": "token_",
          "type": "address"
        }
      ],
      "name": "withdrawToken",
      "outputs": [],
      "stateMutability": "nonpayable",
      "type": "function"
    }
  ],
  "bytecode": "0x6080604052348015600e575f80fd5b5060156019565b60c9565b7ff0c57e16840df040f15088dc2f81fe391c3923bec73e23a9662efc9c229c6a00805468010000000000000000900460ff161560685760405163f92ee8a960e01b815260040160405180910390fd5b80546001600160401b039081161460c65780546001600160401b0319166001600160401b0390811782556040519081527fc7f505b2f371ae2175ee4913f4499e1f2633a7b5936321eed1cdaeb6115181d29060200160405180910390a15b50565b6111ea806100d65f395ff3fe608060405260043610610147575f3560e01c80638da5cb5b116100b3578063c1cbbca71161006d578063c1cbbca714610334578063e086e5ec14610347578063e730395a1461035b578063f2fde38b14610386578063fb86a404146103a5578063fc0c546a146103ba575f80fd5b80638da5cb5b14610296578063906a26e0146102c2578063966dae0e146102d75780639d1b464a146102f5578063a035b1fe14610309578063b58820211461031e575f80fd5b806355d1b4d31161010457806355d1b4d314610206578063590e1ae31461021b578063715018a61461022f57806378e979251461024357806380d021a9146102585780638947606914610277575f80fd5b8063023f41471461014b57806317903662146101735780632b9edee9146101975780633197cbb6146101b057806345787844146101c557806348c54b9d146101f0575b5f80fd5b348015610156575f80fd5b5061016060085481565b6040519081526020015b60405180910390f35b34801561017e575f80fd5b506101876103d9565b604051901515815260200161016a565b3480156101a2575f80fd5b506009546101879060ff1681565b3480156101bb575f80fd5b5061016060065481565b3480156101d0575f80fd5b506101606101df366004610f4e565b600a6020525f908152604090205481565b3480156101fb575f80fd5b50610204610406565b005b348015610211575f80fd5b5061016060075481565b348015610226575f80fd5b50610204610537565b34801561023a575f80fd5b5061020461066f565b34801561024e575f80fd5b5061016060055481565b348015610263575f80fd5b50610204610272366004610f6e565b610682565b348015610282575f80fd5b50610204610291366004610f4e565b61085f565b3480156102a1575f80fd5b506102aa6109f9565b6040516001600160a01b03909116815260200161016a565b3480156102cd575f80fd5b5061016060045481565b3480156102e2575f80fd5b505f546102aa906001600160a01b031681565b348015610300575f80fd5b50610160610a27565b348015610314575f80fd5b5061016060025481565b348015610329575f80fd5b506004541515610187565b610204610342366004610fe6565b610a42565b348015610352575f80fd5b50610204610c96565b348015610366575f80fd5b50610160610375366004610f4e565b600b6020525f908152604090205481565b348015610391575f80fd5b506102046103a0366004610f4e565b610dd6565b3480156103b0575f80fd5b5061016060035481565b3480156103c5575f80fd5b506001546102aa906001600160a01b031681565b5f6103e5600454151590565b80156103f2575060065442115b8015610401575060095460ff16155b905090565b61040e6103d9565b1561042c57604051636dd6f92960e11b815260040160405180910390fd5b60045415158015610440575060095460ff16155b1561045e57604051632bdc91ad60e01b815260040160405180910390fd5b335f908152600a60205260408120549081900361048d5760405162f3f86160e41b815260040160405180910390fd5b335f818152600a60205260408082209190915560015490516340c10f1960e01b81526004810192909252602482018390526001600160a01b0316906340c10f19906044015f604051808303815f87803b1580156104e8575f80fd5b505af11580156104fa573d5f803e3d5ffd5b50506040518381523392507f896e034966eaaf1adc54acc0f257056febbd300c9e47182cf761982cf1f5e43091506020015b60405180910390a250565b335f908152600b6020526040812054908190036105675760405163634b67f560e11b815260040160405180910390fd5b61056f6103d9565b156105df57335f818152600b60205260408082208290555183156108fc0291849190818181858888f193505050501580156105ac573d5f803e3d5ffd5b5060405181815233907fffab3269bdaceca4d1bbc53e74b982ac2b306687e17e21f1e499e7fdf6751ac89060200161052c565b6006541580156105f2575060095460ff16155b1561062f57335f818152600b60205260408082208290555183156108fc0291849190818181858888f193505050501580156105ac573d5f803e3d5ffd5b60095460ff161561065357604051635780964b60e01b815260040160405180910390fd5b6040516365603eed60e11b815260040160405180910390fd5b50565b610677610e10565b6106805f610e42565b565b5f61068b610eb2565b805490915060ff600160401b820416159067ffffffffffffffff165f811580156106b25750825b90505f8267ffffffffffffffff1660011480156106ce5750303b155b9050811580156106dc575080155b156106fa5760405163f92ee8a960e01b815260040160405180910390fd5b845467ffffffffffffffff19166001178555831561072457845460ff60401b1916600160401b1785555b61072d8e610edc565b891561079457865f03610753576040516323187ae360e01b815260040160405180910390fd5b8b871015610774576040516323187ae360e01b815260040160405180910390fd5b875f036107945760405163309767f560e21b815260040160405180910390fd5b855f806101000a8154816001600160a01b0302191690836001600160a01b031602179055508c60015f6101000a8154816001600160a01b0302191690836001600160a01b031602179055508b6002819055508a60038190555089600481905550886005819055508760068190555086600781905550831561084f57845460ff60401b19168555604051600181527fc7f505b2f371ae2175ee4913f4499e1f2633a7b5936321eed1cdaeb6115181d29060200160405180910390a15b5050505050505050505050505050565b610867610e10565b806001600160a01b031663a9059cbb61087e6109f9565b6001546040516370a0823160e01b81523060048201526001600160a01b03909116906370a0823190602401602060405180830381865afa1580156108c4573d5f803e3d5ffd5b505050506040513d601f19601f820116820180604052508101906108e89190610ffd565b6040516001600160e01b031960e085901b1681526001600160a01b03909216600483015260248201526044016020604051808303815f875af1158015610930573d5f803e3d5ffd5b505050506040513d601f19601f820116820180604052508101906109549190611014565b5061095d6109f9565b6001546040516370a0823160e01b81523060048201526001600160a01b03928316927fa2bd9fcfcdba69f52bcd9a520846ad4bd685b187483f53efc42d035b2ddebff09216906370a0823190602401602060405180830381865afa1580156109c7573d5f803e3d5ffd5b505050506040513d601f19601f820116820180604052508101906109eb9190610ffd565b60405190815260200161052c565b7f9016d09d72d40fdae2fd8ceac6b6234c7706214fd39c1cd1e609a0528c199300546001600160a01b031690565b6009545f9060ff1615610a3b575060075490565b5060025490565b600554421015610a6557604051631385865760e21b815260040160405180910390fd5b60065415801590610a77575060065442115b15610ac75760045415158015610a90575060095460ff16155b15610aae576040516372f50aa160e11b815260040160405180910390fd5b604051631eb1561f60e01b815260040160405180910390fd5b5f610ad0610a27565b610ada9083611047565b9050348114610b0a576040516326fea35b60e01b8152346004820152602481018290526044015b60405180910390fd5b60035434600854610b1b919061105e565b1115610b4957600854600354604051631af68b1160e21b815260048101929092526024820152604401610b01565b3460085f828254610b5a919061105e565b9091555050335f908152600b602052604081208054349290610b7d90849061105e565b90915550506001546040805163313ce56760e01b815290516001600160a01b039092169163313ce567916004808201926020929091908290030181865afa158015610bca573d5f803e3d5ffd5b505050506040513d601f19601f82011682018060405250810190610bee9190611071565b610bf990600a611174565b610c039083611047565b335f908152600a602052604081208054909190610c2190849061105e565b909155505060095460ff16158015610c3a575060045415155b8015610c4a575060045460085410155b15610c5d576009805460ff191660011790555b60405182815233907fbdaa686eb6f59012d211a74523da260341c516896e9e5be954163d6ecf26ffa29060200160405180910390a25050565b610c9e610e10565b610ca66103d9565b15610cc457604051632bdc91ad60e01b815260040160405180910390fd5b60045415158015610cd8575060095460ff16155b15610cf657604051632bdc91ad60e01b815260040160405180910390fd5b475f610d03606483611182565b90505f610d1082846111a1565b5f80546040519293506001600160a01b03169184156108fc0291859190818181858888f19350505050158015610d48573d5f803e3d5ffd5b50610d516109f9565b6001600160a01b03166108fc8290811502906040515f60405180830381858888f19350505050158015610d86573d5f803e3d5ffd5b50610d8f6109f9565b6001600160a01b03167f06097061aeda806b5e9cb4133d9899f332ff0913956567fc0f7ea15e3d19947c82604051610dc991815260200190565b60405180910390a2505050565b610dde610e10565b6001600160a01b038116610e0757604051631e4fbdf760e01b81525f6004820152602401610b01565b61066c81610e42565b33610e196109f9565b6001600160a01b0316146106805760405163118cdaa760e01b8152336004820152602401610b01565b7f9016d09d72d40fdae2fd8ceac6b6234c7706214fd39c1cd1e609a0528c19930080546001600160a01b031981166001600160a01b03848116918217845560405192169182907f8be0079c531659141344cd1fd0a4f28419497f9722a3daafe3b4186f6b6457e0905f90a3505050565b5f807ff0c57e16840df040f15088dc2f81fe391c3923bec73e23a9662efc9c229c6a005b92915050565b610ee4610eed565b61066c81610f12565b610ef5610f1a565b61068057604051631afcd79f60e31b815260040160405180910390fd5b610dde610eed565b5f610f23610eb2565b54600160401b900460ff16919050565b80356001600160a01b0381168114610f49575f80fd5b919050565b5f60208284031215610f5e575f80fd5b610f6782610f33565b9392505050565b5f805f805f805f805f6101208a8c031215610f87575f80fd5b610f908a610f33565b9850610f9e60208b01610f33565b975060408a0135965060608a0135955060808a0135945060a08a0135935060c08a0135925060e08a01359150610fd76101008b01610f33565b90509295985092959850929598565b5f60208284031215610ff6575f80fd5b5035919050565b5f6020828403121561100d575f80fd5b5051919050565b5f60208284031215611024575f80fd5b81518015158114610f67575f80fd5b634e487b7160e01b5f52601160045260245ffd5b8082028115828204841417610ed657610ed6611033565b80820180821115610ed657610ed6611033565b5f60208284031215611081575f80fd5b815160ff81168114610f67575f80fd5b6001815b60018411156110cc578085048111156110b0576110b0611033565b60018416156110be57908102905b60019390931c928002611095565b935093915050565b5f826110e257506001610ed6565b816110ee57505f610ed6565b8160018114611104576002811461110e5761112a565b6001915050610ed6565b60ff84111561111f5761111f611033565b50506001821b610ed6565b5060208310610133831016604e8410600b841016171561114d575081810a610ed6565b6111595f198484611091565b805f190482111561116c5761116c611033565b029392505050565b5f610f6760ff8416836110d4565b5f8261119c57634e487b7160e01b5f52601260045260245ffd5b500490565b81810381811115610ed657610ed661103356fea26469706673582212200dffcd31f46f0d92cfeff34ab2d6b72d7387cdfabb44133f828754062a337c8764736f6c634300081a0033",
  "linkReferences": {},
  "deployedLinkReferences": {},
  "immutableReferences": {},
  "inputSourceName": "project/contracts/Presale.sol",
  "buildInfoId": "solc-0_8_26-9db48a4c9e4d39d65330817f3c9d4c07b5b87bdf"
}