{
  "contracts/Presale.sol": {
    "Presale": {
      "abi": [
        {
          "inputs": [],
          "stateMutability": "nonpayable",
          "type": "constructor"
        },
        {
          "inputs": [
            {
              "internalType": "uint256",
              "name": "currentContribution",
              "type": "uint256"
            },
            {
              "internalType": "uint256",
              "name": "maxContribution",
              "type": "uint256"
            }
          ],
          "name": "HardCapExceeded",
          "type": "error"
        },
        {
          "inputs": [
            {
              "internalType": "uint256",
              "name": "amountSent",
              "type": "uint256"
            },
            {
              "internalType": "uint256",
              "name": "requiredAmount",
              "type": "uint256"
            }
          ],
          "name": "InvalidEtherSent",
          "type": "error"
        },
        {
          "inputs": [],
          "name": "InvalidInitialization",
          "type": "error"
        },
        {
          "inputs": [],
          "name": "InvalidSoftCapPrice",
          "type": "error"
        },
        {
          "inputs": [],
          "name": "NoContributionToRefund",
          "type": "error"
        },
        {
          "inputs": [],
          "name": "NoTokensToClaim",
          "type": "error"
        },
        {
          "inputs": [],
          "name": "NotInitializing",
          "type": "error"
        },
        {
          "inputs": [
            {
              "internalType": "address",
              "name": "owner",
              "type": "address"
            }
          ],
          "name": "OwnableInvalidOwner",
          "type": "error"
        },
        {
          "inputs": [
            {
              "internalType": "address",
              "name": "account",
              "type": "address"
            }
          ],
          "name": "OwnableUnauthorizedAccount",
          "type": "error"
        },
        {
          "inputs": [],
          "name": "PresaleEnded",
          "type": "error"
        },
        {
          "inputs": [],
          "name": "PresaleNotStarted",
          "type": "error"
        },
        {
          "inputs": [],
          "name": "PresaleStillActive",
          "type": "error"
        },
        {
          "inputs": [],
          "name": "SoftCapAlreadyReached",
          "type": "error"
        },
        {
          "inputs": [],
          "name": "SoftCapNotReached",
          "type": "error"
        },
        {
          "anonymous": false,
          "inputs": [
            {
              "indexed": true,
              "internalType": "address",
              "name": "user",
              "type": "address"
            },
            {
              "indexed": false,
              "internalType": "uint256",
              "name": "amount",
              "type": "uint256"
            }
          ],
          "name": "EthRefunded",
          "type": "event"
        },
        {
          "anonymous": false,
          "inputs": [
            {
              "indexed": true,
              "internalType": "address",
              "name": "to",
              "type": "address"
            },
            {
              "indexed": false,
              "internalType": "uint256",
              "name": "amount",
              "type": "uint256"
            }
          ],
          "name": "EtherWithdrawn",
          "type": "event"
        },
        {
          "anonymous": false,
          "inputs": [
            {
              "indexed": false,
              "internalType": "uint64",
              "name": "version",
              "type": "uint64"
            }
          ],
          "name": "Initialized",
          "type": "event"
        },
        {
          "anonymous": false,
          "inputs": [
            {
              "indexed": true,
              "internalType": "address",
              "name": "contributor",
              "type": "address"
            },
            {
              "indexed": false,
              "internalType": "uint256",
              "name": "amount",
              "type": "uint256"
            }
          ],
          "name": "NewContribution",
          "type": "event"
        },
        {
          "anonymous": false,
          "inputs": [
            {
              "indexed": true,
              "internalType": "address",
              "name": "previousOwner",
              "type": "address"
            },
            {
              "indexed": true,
              "internalType": "address",
              "name": "newOwner",
              "type": "address"
            }
          ],
          "name": "OwnershipTransferred",
          "type": "event"
        },
        {
          "anonymous": false,
          "inputs": [
            {
              "indexed": true,
              "internalType": "address",
              "name": "to",
              "type": "address"
            },
            {
              "indexed": false,
              "internalType": "uint256",
              "name": "amount",
              "type": "uint256"
            }
          ],
          "name": "TokenWithdrawn",
          "type": "event"
        },
        {
          "anonymous": false,
          "inputs": [
            {
              "indexed": true,
              "internalType": "address",
              "name": "claimer",
              "type": "address"
            },
            {
              "indexed": false,
              "internalType": "uint256",
              "name": "amount",
              "type": "uint256"
            }
          ],
          "name": "TokensClaimed",
          "type": "event"
        },
        {
          "inputs": [],
          "name": "claimTokens",
          "outputs": [],
          "stateMutability": "nonpayable",
          "type": "function"
        },
        {
          "inputs": [
            {
              "internalType": "uint256",
              "name": "amount",
              "type": "uint256"
            }
          ],
          "name": "contribute",
          "outputs": [],
          "stateMutability": "payable",
          "type": "function"
        },
        {
          "inputs": [],
          "name": "endTime",
          "outputs": [
            {
              "internalType": "uint256",
              "name": "",
              "type": "uint256"
            }
          ],
          "stateMutability": "view",
          "type": "function"
        },
        {
          "inputs": [
            {
              "internalType": "address",
              "name": "",
              "type": "address"
            }
          ],
          "name": "ethContributions",
          "outputs": [
            {
              "internalType": "uint256",
              "name": "",
              "type": "uint256"
            }
          ],
          "stateMutability": "view",
          "type": "function"
        },
        {
          "inputs": [],
          "name": "factoryAddress",
          "outputs": [
            {
              "internalType": "address",
              "name": "",
              "type": "address"
            }
          ],
          "stateMutability": "view",
          "type": "function"
        },
        {
          "inputs": [],
          "name": "hardCap",
          "outputs": [
            {
              "internalType": "uint256",
              "name": "",
              "type": "uint256"
            }
          ],
          "stateMutability": "view",
          "type": "function"
        },
        {
          "inputs": [
            {
              "internalType": "address",
              "name": "owner_",
              "type": "address"
            },
            {
              "internalType": "address",
              "name": "token_",
              "type": "address"
            },
            {
              "internalType": "uint256",
              "name": "price_",
              "type": "uint256"
            },
            {
              "internalType": "uint256",
              "name": "hardCap_",
              "type": "uint256"
            },
            {
              "internalType": "uint256",
              "name": "softCap_",
              "type": "uint256"
            },
            {
              "internalType": "uint256",
              "name": "startTime_",
              "type": "uint256"
            },
            {
              "internalType": "uint256",
              "name": "endTime_",
              "type": "uint256"
            },
            {
              "internalType": "uint256",
              "name": "softCapPrice_",
              "type": "uint256"
            },
            {
              "internalType": "address",
              "name": "factoryAddress_",
              "type": "address"
            }
          ],
          "name": "initialize",
          "outputs": [],
          "stateMutability": "nonpayable",
          "type": "function"
        },
        {
          "inputs": [],
          "name": "owner",
          "outputs": [
            {
              "internalType": "address",
              "name": "",
              "type": "address"
            }
          ],
          "stateMutability": "view",
          "type": "function"
        },
        {
          "inputs": [],
          "name": "price",
          "outputs": [
            {
              "internalType": "uint256",
              "name": "",
              "type": "uint256"
            }
          ],
          "stateMutability": "view",
          "type": "function"
        },
        {
          "inputs": [],
          "name": "refund",
          "outputs": [],
          "stateMutability": "nonpayable",
          "type": "function"
        },
        {
          "inputs": [],
          "name": "renounceOwnership",
          "outputs": [],
          "stateMutability": "nonpayable",
          "type": "function"
        },
        {
          "inputs": [],
          "name": "softCap",
          "outputs": [
            {
              "internalType": "uint256",
              "name": "",
              "type": "uint256"
            }
          ],
          "stateMutability": "view",
          "type": "function"
        },
        {
          "inputs": [],
          "name": "softCapPrice",
          "outputs": [
            {
              "internalType": "uint256",
              "name": "",
              "type": "uint256"
            }
          ],
          "stateMutability": "view",
          "type": "function"
        },
        {
          "inputs": [],
          "name": "softCapReached",
          "outputs": [
            {
              "internalType": "bool",
              "name": "",
              "type": "bool"
            }
          ],
          "stateMutability": "view",
          "type": "function"
        },
        {
          "inputs": [],
          "name": "startTime",
          "outputs": [
            {
              "internalType": "uint256",
              "name": "",
              "type": "uint256"
            }
          ],
          "stateMutability": "view",
          "type": "function"
        },
        {
          "inputs": [],
          "name": "token",
          "outputs": [
            {
              "internalType": "contract MintableERC20",
              "name": "",
              "type": "address"
            }
          ],
          "stateMutability": "view",
          "type": "function"
        },
        {
          "inputs": [
            {
              "internalType": "address",
              "name": "",
              "type": "address"
            }
          ],
          "name": "tokenContributions",
          "outputs": [
            {
              "internalType": "uint256",
              "name": "",
              "type": "uint256"
            }
          ],
          "stateMutability": "view",
          "type": "function"
        },
        {
          "inputs": [],
          "name": "totalContributed",
          "outputs": [
            {
              "internalType": "uint256",
              "name": "",
              "type": "uint256"
            }
          ],
          "stateMutability": "view",
          "type": "function"
        },
        {
          "inputs": [
            {
              "internalType": "address",
              "name": "newOwner",
              "type": "address"
            }
          ],
          "name": "transferOwnership",
          "outputs": [],
          "stateMutability": "nonpayable",
          "type": "function"
        },
        {
          "inputs": [],
          "name": "withdrawETH",
          "outputs": [],
          "stateMutability": "nonpayable",
          "type": "function"
        },
        {
          "inputs": [
            {
              "internalType": "address",
              "name": "token_",
              "type": "address"
            }
          ],
          "name": "withdrawToken",
          "outputs": [],
          "stateMutability": "nonpayable",
          "type": "function"
        }
      ],
      "evm": {
        "bytecode": {
          "linkReferences": {},
          "object": "6080806040523460d2577ff0c57e16840df040f15088dc2f81fe391c3923bec73e23a9662efc9c229c6a005460ff8160401c1660c1576002600160401b03196001600160401b03821601605c575b604051610e1390816100d88239f35b6001600160401b0319166001600160401b039081177ff0c57e16840df040f15088dc2f81fe391c3923bec73e23a9662efc9c229c6a005581527fc7f505b2f371ae2175ee4913f4499e1f2633a7b5936321eed1cdaeb6115181d290602090a13880604d565b63f92ee8a960e01b60005260046000fd5b600080fdfe608080604052600436101561001357600080fd5b600090813560e01c908163023f414714610c23575080632b9edee914610c005780633197cbb614610be25780634578784414610ba957806348c54b9d14610ac457806355d1b4d314610aa6578063590e1ae3146109f7578063715018a61461098d57806378e979251461096f57806380d021a91461077457806389476069146105885780638da5cb5b14610552578063906a26e014610534578063966dae0e1461050d578063a035b1fe146104ef578063c1cbbca7146102df578063e086e5ec146101b7578063e730395a1461017e578063f2fde38b14610151578063fb86a404146101335763fc0c546a1461010857600080fd5b346101305780600319360112610130576001546040516001600160a01b039091168152602090f35b80fd5b50346101305780600319360112610130576020600354604051908152f35b50346101305760203660031901126101305761017b61016e610c3f565b610176610d39565b610cc3565b80f35b5034610130576020366003190112610130576020906040906001600160a01b036101a6610c3f565b168152600b83522054604051908152f35b50346101305780600319360112610130576101d0610d39565b6004541515806102d2575b6102c3574760648104808203918083116102af57908391828080808560018060a01b038254168282156102a6575bf11561029b5782848193829360018060a01b03600080516020610d9e833981519152541691849114610292575bf11561028557600080516020610d9e833981519152546040519182526001600160a01b0316907f06097061aeda806b5e9cb4133d9899f332ff0913956567fc0f7ea15e3d19947c90602090a280f35b50604051903d90823e3d90fd5b506108fc610236565b6040513d84823e3d90fd5b506108fc610209565b634e487b7160e01b84526011600452602484fd5b632bdc91ad60e01b8152600490fd5b5060ff60095416156101db565b5060203660031901126101305760043560055442106104e05760065480151590816104d6575b506104c75760025460ff600954166104be575b6103229082610c8d565b3481036104a857506008546103373482610cb6565b600354809111610490575061034d903490610cb6565b600855338252600b60205260408220610367348254610cb6565b905560015460405163313ce56760e01b815290602090829060049082906001600160a01b03165afa8015610485578390610444575b60ff915016604d8111610430576103b690600a0a82610c8d565b338352600a6020526103cd60408420918254610cb6565b905560095460ff81161580610422575b610412575b506040519081527fbdaa686eb6f59012d211a74523da260341c516896e9e5be954163d6ecf26ffa260203392a280f35b60ff1916600117600955386103e2565b5060085460045411156103dd565b634e487b7160e01b83526011600452602483fd5b506020813d60201161047d575b8161045e60209383610c55565b81010312610479575160ff811681036104795760ff9061039c565b8280fd5b3d9150610451565b6040513d85823e3d90fd5b631af68b1160e21b8452600491909152602452604482fd5b6326fea35b60e01b835234600452602452604482fd5b50600754610318565b631eb1561f60e01b8252600482fd5b9050421138610305565b631385865760e21b8252600482fd5b50346101305780600319360112610130576020600254604051908152f35b5034610130578060031936011261013057546040516001600160a01b039091168152602090f35b50346101305780600319360112610130576020600454604051908152f35b5034610130578060031936011261013057600080516020610d9e833981519152546040516001600160a01b039091168152602090f35b5034610130576020366003190112610130576105a2610c3f565b6105aa610d39565b600080516020610d9e833981519152546001546040516370a0823160e01b8152306004820152916001600160a01b039081169160209184916024918391165afa918215610769578492610733575b5060405163a9059cbb60e01b81526001600160a01b0390911660048201526024810191909152906020908290818581604481015b03926001600160a01b03165af1801561029b576106fb575b50600080516020610d9e833981519152546001546040516370a0823160e01b81523060048201526001600160a01b0392831692909160209183916024918391165afa9081156104855783916106c3575b5060207fa2bd9fcfcdba69f52bcd9a520846ad4bd685b187483f53efc42d035b2ddebff091604051908152a280f35b90506020813d6020116106f3575b816106de60209383610c55565b810103126106ee57516020610694565b600080fd5b3d91506106d1565b6020813d60201161072b575b8161071460209383610c55565b8101031261072757518015158114610644575b5080fd5b3d9150610707565b91506020823d602011610761575b8161074e60209383610c55565b810103126106ee5790519061062c6105f8565b3d9150610741565b6040513d86823e3d90fd5b5034610130576101203660031901126101305761078f610c3f565b6024356001600160a01b038116908190036104795760e435906084359060443590610104356001600160a01b0381169081900361096b57600080516020610dbe833981519152549560ff8760401c16159667ffffffffffffffff811680159081610963575b6001149081610959575b159081610950575b506109415767ffffffffffffffff198116600117600080516020610dbe83398151915255610846919088610914575b5061083e610d6f565b610176610d6f565b836108f6575b6bffffffffffffffffffffffff60a01b8754161786556bffffffffffffffffffffffff60a01b600154161760015560025560643560035560045560a43560055560c43560065560075561089c5780f35b68ff000000000000000019600080516020610dbe8339815191525416600080516020610dbe833981519152557fc7f505b2f371ae2175ee4913f4499e1f2633a7b5936321eed1cdaeb6115181d2602060405160018152a180f35b8415610905578285101561084c575b6323187ae360e01b8752600487fd5b68ffffffffffffffffff19166801000000000000000117600080516020610dbe8339815191525538610835565b63f92ee8a960e01b8952600489fd5b90501538610806565b303b1591506107fe565b8991506107f4565b8680fd5b50346101305780600319360112610130576020600554604051908152f35b50346101305780600319360112610130576109a6610d39565b600080516020610d9e83398151915280546001600160a01b0319811690915581906001600160a01b03167f8be0079c531659141344cd1fd0a4f28419497f9722a3daafe3b4186f6b6457e08280a380f35b5034610130578060031936011261013057600654421115610a975760ff60095416610a8857338152600b60205260408120548015610a7957338252600b60205281604081205581808080843382f115610285576040519081527fffab3269bdaceca4d1bbc53e74b982ac2b306687e17e21f1e499e7fdf6751ac860203392a280f35b63634b67f560e11b8252600482fd5b635780964b60e01b8152600490fd5b6365603eed60e11b8152600490fd5b50346101305780600319360112610130576020600754604051908152f35b5034610130578060031936011261013057600454151580610b9c575b6102c357338152600a6020526040812054908115610b8e57338152600a602052604081208190556001546001600160a01b0316803b15610727576040516340c10f1960e01b8152336004820152602481018490529082908290604490829084905af1801561029b57610b7e575b50906040519081527f896e034966eaaf1adc54acc0f257056febbd300c9e47182cf761982cf1f5e43060203392a280f35b81610b8891610c55565b38610b4d565b62f3f86160e41b8152600490fd5b5060ff6009541615610ae0565b5034610130576020366003190112610130576020906040906001600160a01b03610bd1610c3f565b168152600a83522054604051908152f35b50346101305780600319360112610130576020600654604051908152f35b5034610130578060031936011261013057602060ff600954166040519015158152f35b9050346107275781600319360112610727576020906008548152f35b600435906001600160a01b03821682036106ee57565b90601f8019910116810190811067ffffffffffffffff821117610c7757604052565b634e487b7160e01b600052604160045260246000fd5b81810292918115918404141715610ca057565b634e487b7160e01b600052601160045260246000fd5b91908201809211610ca057565b6001600160a01b03168015610d2357600080516020610d9e83398151915280546001600160a01b0319811683179091556001600160a01b03167f8be0079c531659141344cd1fd0a4f28419497f9722a3daafe3b4186f6b6457e0600080a3565b631e4fbdf760e01b600052600060045260246000fd5b600080516020610d9e833981519152546001600160a01b03163303610d5a57565b63118cdaa760e01b6000523360045260246000fd5b60ff600080516020610dbe8339815191525460401c1615610d8c57565b631afcd79f60e31b60005260046000fdfe9016d09d72d40fdae2fd8ceac6b6234c7706214fd39c1cd1e609a0528c199300f0c57e16840df040f15088dc2f81fe391c3923bec73e23a9662efc9c229c6a00a264697066735822122053167b47defa58fd9b2863679b4f48164a2a3e5a6d23bbd9fb228a9799eea90a64736f6c634300081a0033",
          "opcodes": "PUSH1 0x80 DUP1 PUSH1 0x40 MSTORE CALLVALUE PUSH1 0xD2 JUMPI PUSH32 0xF0C57E16840DF040F15088DC2F81FE391C3923BEC73E23A9662EFC9C229C6A00 SLOAD PUSH1 0xFF DUP2 PUSH1 0x40 SHR AND PUSH1 0xC1 JUMPI PUSH1 0x2 PUSH1 0x1 PUSH1 0x40 SHL SUB NOT PUSH1 0x1 PUSH1 0x1 PUSH1 0x40 SHL SUB DUP3 AND ADD PUSH1 0x5C JUMPI JUMPDEST PUSH1 0x40 MLOAD PUSH2 0xE13 SWAP1 DUP2 PUSH2 0xD8 DUP3 CODECOPY RETURN JUMPDEST PUSH1 0x1 PUSH1 0x1 PUSH1 0x40 SHL SUB NOT AND PUSH1 0x1 PUSH1 0x1 PUSH1 0x40 SHL SUB SWAP1 DUP2 OR PUSH32 0xF0C57E16840DF040F15088DC2F81FE391C3923BEC73E23A9662EFC9C229C6A00 SSTORE DUP2 MSTORE PUSH32 0xC7F505B2F371AE2175EE4913F4499E1F2633A7B5936321EED1CDAEB6115181D2 SWAP1 PUSH1 0x20 SWAP1 LOG1 CODESIZE DUP1 PUSH1 0x4D JUMP JUMPDEST PUSH4 0xF92EE8A9 PUSH1 0xE0 SHL PUSH1 0x0 MSTORE PUSH1 0x4 PUSH1 0x0 REVERT JUMPDEST PUSH1 0x0 DUP1 REVERT INVALID PUSH1 0x80 DUP1 PUSH1 0x40 MSTORE PUSH1 0x4 CALLDATASIZE LT ISZERO PUSH2 0x13 JUMPI PUSH1 0x0 DUP1 REVERT JUMPDEST PUSH1 0x0 SWAP1 DUP2 CALLDATALOAD PUSH1 0xE0 SHR SWAP1 DUP2 PUSH4 0x23F4147 EQ PUSH2 0xC23 JUMPI POP DUP1 PUSH4 0x2B9EDEE9 EQ PUSH2 0xC00 JUMPI DUP1 PUSH4 0x3197CBB6 EQ PUSH2 0xBE2 JUMPI DUP1 PUSH4 0x45787844 EQ PUSH2 0xBA9 JUMPI DUP1 PUSH4 0x48C54B9D EQ PUSH2 0xAC4 JUMPI DUP1 PUSH4 0x55D1B4D3 EQ PUSH2 0xAA6 JUMPI DUP1 PUSH4 0x590E1AE3 EQ PUSH2 0x9F7 JUMPI DUP1 PUSH4 0x715018A6 EQ PUSH2 0x98D JUMPI DUP1 PUSH4 0x78E97925 EQ PUSH2 0x96F JUMPI DUP1 PUSH4 0x80D021A9 EQ PUSH2 0x774 JUMPI DUP1 PUSH4 0x89476069 EQ PUSH2 0x588 JUMPI DUP1 PUSH4 0x8DA5CB5B EQ PUSH2 0x552 JUMPI DUP1 PUSH4 0x906A26E0 EQ PUSH2 0x534 JUMPI DUP1 PUSH4 0x966DAE0E EQ PUSH2 0x50D JUMPI DUP1 PUSH4 0xA035B1FE EQ PUSH2 0x4EF JUMPI DUP1 PUSH4 0xC1CBBCA7 EQ PUSH2 0x2DF JUMPI DUP1 PUSH4 0xE086E5EC EQ PUSH2 0x1B7 JUMPI DUP1 PUSH4 0xE730395A EQ PUSH2 0x17E JUMPI DUP1 PUSH4 0xF2FDE38B EQ PUSH2 0x151 JUMPI DUP1 PUSH4 0xFB86A404 EQ PUSH2 0x133 JUMPI PUSH4 0xFC0C546A EQ PUSH2 0x108 JUMPI PUSH1 0x0 DUP1 REVERT JUMPDEST CALLVALUE PUSH2 0x130 JUMPI DUP1 PUSH1 0x3 NOT CALLDATASIZE ADD SLT PUSH2 0x130 JUMPI PUSH1 0x1 SLOAD PUSH1 0x40 MLOAD PUSH1 0x1 PUSH1 0x1 PUSH1 0xA0 SHL SUB SWAP1 SWAP2 AND DUP2 MSTORE PUSH1 0x20 SWAP1 RETURN JUMPDEST DUP1 REVERT JUMPDEST POP CALLVALUE PUSH2 0x130 JUMPI DUP1 PUSH1 0x3 NOT CALLDATASIZE ADD SLT PUSH2 0x130 JUMPI PUSH1 0x20 PUSH1 0x3 SLOAD PUSH1 0x40 MLOAD SWAP1 DUP2 MSTORE RETURN JUMPDEST POP CALLVALUE PUSH2 0x130 JUMPI PUSH1 0x20 CALLDATASIZE PUSH1 0x3 NOT ADD SLT PUSH2 0x130 JUMPI PUSH2 0x17B PUSH2 0x16E PUSH2 0xC3F JUMP JUMPDEST PUSH2 0x176 PUSH2 0xD39 JUMP JUMPDEST PUSH2 0xCC3 JUMP JUMPDEST DUP1 RETURN JUMPDEST POP CALLVALUE PUSH2 0x130 JUMPI PUSH1 0x20 CALLDATASIZE PUSH1 0x3 NOT ADD SLT PUSH2 0x130 JUMPI PUSH1 0x20 SWAP1 PUSH1 0x40 SWAP1 PUSH1 0x1 PUSH1 0x1 PUSH1 0xA0 SHL SUB PUSH2 0x1A6 PUSH2 0xC3F JUMP JUMPDEST AND DUP2 MSTORE PUSH1 0xB DUP4 MSTORE KECCAK256 SLOAD PUSH1 0x40 MLOAD SWAP1 DUP2 MSTORE RETURN JUMPDEST POP CALLVALUE PUSH2 0x130 JUMPI DUP1 PUSH1 0x3 NOT CALLDATASIZE ADD SLT PUSH2 0x130 JUMPI PUSH2 0x1D0 PUSH2 0xD39 JUMP JUMPDEST PUSH1 0x4 SLOAD ISZERO ISZERO DUP1 PUSH2 0x2D2 JUMPI JUMPDEST PUSH2 0x2C3 JUMPI SELFBALANCE PUSH1 0x64 DUP2 DIV DUP1 DUP3 SUB SWAP2 DUP1 DUP4 GT PUSH2 0x2AF JUMPI SWAP1 DUP4 SWAP2 DUP3 DUP1 DUP1 DUP1 DUP6 PUSH1 0x1 DUP1 PUSH1 0xA0 SHL SUB DUP3 SLOAD AND DUP3 DUP3 ISZERO PUSH2 0x2A6 JUMPI JUMPDEST CALL ISZERO PUSH2 0x29B JUMPI DUP3 DUP5 DUP2 SWAP4 DUP3 SWAP4 PUSH1 0x1 DUP1 PUSH1 0xA0 SHL SUB PUSH1 0x0 DUP1 MLOAD PUSH1 0x20 PUSH2 0xD9E DUP4 CODECOPY DUP2 MLOAD SWAP2 MSTORE SLOAD AND SWAP2 DUP5 SWAP2 EQ PUSH2 0x292 JUMPI JUMPDEST CALL ISZERO PUSH2 0x285 JUMPI PUSH1 0x0 DUP1 MLOAD PUSH1 0x20 PUSH2 0xD9E DUP4 CODECOPY DUP2 MLOAD SWAP2 MSTORE SLOAD PUSH1 0x40 MLOAD SWAP2 DUP3 MSTORE PUSH1 0x1 PUSH1 0x1 PUSH1 0xA0 SHL SUB AND SWAP1 PUSH32 0x6097061AEDA806B5E9CB4133D9899F332FF0913956567FC0F7EA15E3D19947C SWAP1 PUSH1 0x20 SWAP1 LOG2 DUP1 RETURN JUMPDEST POP PUSH1 0x40 MLOAD SWAP1 RETURNDATASIZE SWAP1 DUP3 RETURNDATACOPY RETURNDATASIZE SWAP1 REVERT JUMPDEST POP PUSH2 0x8FC PUSH2 0x236 JUMP JUMPDEST PUSH1 0x40 MLOAD RETURNDATASIZE DUP5 DUP3 RETURNDATACOPY RETURNDATASIZE SWAP1 REVERT JUMPDEST POP PUSH2 0x8FC PUSH2 0x209 JUMP JUMPDEST PUSH4 0x4E487B71 PUSH1 0xE0 SHL DUP5 MSTORE PUSH1 0x11 PUSH1 0x4 MSTORE PUSH1 0x24 DUP5 REVERT JUMPDEST PUSH4 0x2BDC91AD PUSH1 0xE0 SHL DUP2 MSTORE PUSH1 0x4 SWAP1 REVERT JUMPDEST POP PUSH1 0xFF PUSH1 0x9 SLOAD AND ISZERO PUSH2 0x1DB JUMP JUMPDEST POP PUSH1 0x20 CALLDATASIZE PUSH1 0x3 NOT ADD SLT PUSH2 0x130 JUMPI PUSH1 0x4 CALLDATALOAD PUSH1 0x5 SLOAD TIMESTAMP LT PUSH2 0x4E0 JUMPI PUSH1 0x6 SLOAD DUP1 ISZERO ISZERO SWAP1 DUP2 PUSH2 0x4D6 JUMPI JUMPDEST POP PUSH2 0x4C7 JUMPI PUSH1 0x2 SLOAD PUSH1 0xFF PUSH1 0x9 SLOAD AND PUSH2 0x4BE JUMPI JUMPDEST PUSH2 0x322 SWAP1 DUP3 PUSH2 0xC8D JUMP JUMPDEST CALLVALUE DUP2 SUB PUSH2 0x4A8 JUMPI POP PUSH1 0x8 SLOAD PUSH2 0x337 CALLVALUE DUP3 PUSH2 0xCB6 JUMP JUMPDEST PUSH1 0x3 SLOAD DUP1 SWAP2 GT PUSH2 0x490 JUMPI POP PUSH2 0x34D SWAP1 CALLVALUE SWAP1 PUSH2 0xCB6 JUMP JUMPDEST PUSH1 0x8 SSTORE CALLER DUP3 MSTORE PUSH1 0xB PUSH1 0x20 MSTORE PUSH1 0x40 DUP3 KECCAK256 PUSH2 0x367 CALLVALUE DUP3 SLOAD PUSH2 0xCB6 JUMP JUMPDEST SWAP1 SSTORE PUSH1 0x1 SLOAD PUSH1 0x40 MLOAD PUSH4 0x313CE567 PUSH1 0xE0 SHL DUP2 MSTORE SWAP1 PUSH1 0x20 SWAP1 DUP3 SWAP1 PUSH1 0x4 SWAP1 DUP3 SWAP1 PUSH1 0x1 PUSH1 0x1 PUSH1 0xA0 SHL SUB AND GAS STATICCALL DUP1 ISZERO PUSH2 0x485 JUMPI DUP4 SWAP1 PUSH2 0x444 JUMPI JUMPDEST PUSH1 0xFF SWAP2 POP AND PUSH1 0x4D DUP2 GT PUSH2 0x430 JUMPI PUSH2 0x3B6 SWAP1 PUSH1 0xA EXP DUP3 PUSH2 0xC8D JUMP JUMPDEST CALLER DUP4 MSTORE PUSH1 0xA PUSH1 0x20 MSTORE PUSH2 0x3CD PUSH1 0x40 DUP5 KECCAK256 SWAP2 DUP3 SLOAD PUSH2 0xCB6 JUMP JUMPDEST SWAP1 SSTORE PUSH1 0x9 SLOAD PUSH1 0xFF DUP2 AND ISZERO DUP1 PUSH2 0x422 JUMPI JUMPDEST PUSH2 0x412 JUMPI JUMPDEST POP PUSH1 0x40 MLOAD SWAP1 DUP2 MSTORE PUSH32 0xBDAA686EB6F59012D211A74523DA260341C516896E9E5BE954163D6ECF26FFA2 PUSH1 0x20 CALLER SWAP3 LOG2 DUP1 RETURN JUMPDEST PUSH1 0xFF NOT AND PUSH1 0x1 OR PUSH1 0x9 SSTORE CODESIZE PUSH2 0x3E2 JUMP JUMPDEST POP PUSH1 0x8 SLOAD PUSH1 0x4 SLOAD GT ISZERO PUSH2 0x3DD JUMP JUMPDEST PUSH4 0x4E487B71 PUSH1 0xE0 SHL DUP4 MSTORE PUSH1 0x11 PUSH1 0x4 MSTORE PUSH1 0x24 DUP4 REVERT JUMPDEST POP PUSH1 0x20 DUP2 RETURNDATASIZE PUSH1 0x20 GT PUSH2 0x47D JUMPI JUMPDEST DUP2 PUSH2 0x45E PUSH1 0x20 SWAP4 DUP4 PUSH2 0xC55 JUMP JUMPDEST DUP2 ADD SUB SLT PUSH2 0x479 JUMPI MLOAD PUSH1 0xFF DUP2 AND DUP2 SUB PUSH2 0x479 JUMPI PUSH1 0xFF SWAP1 PUSH2 0x39C JUMP JUMPDEST DUP3 DUP1 REVERT JUMPDEST RETURNDATASIZE SWAP2 POP PUSH2 0x451 JUMP JUMPDEST PUSH1 0x40 MLOAD RETURNDATASIZE DUP6 DUP3 RETURNDATACOPY RETURNDATASIZE SWAP1 REVERT JUMPDEST PUSH4 0x1AF68B11 PUSH1 0xE2 SHL DUP5 MSTORE PUSH1 0x4 SWAP2 SWAP1 SWAP2 MSTORE PUSH1 0x24 MSTORE PUSH1 0x44 DUP3 REVERT JUMPDEST PUSH4 0x26FEA35B PUSH1 0xE0 SHL DUP4 MSTORE CALLVALUE PUSH1 0x4 MSTORE PUSH1 0x24 MSTORE PUSH1 0x44 DUP3 REVERT JUMPDEST POP PUSH1 0x7 SLOAD PUSH2 0x318 JUMP JUMPDEST PUSH4 0x1EB1561F PUSH1 0xE0 SHL DUP3 MSTORE PUSH1 0x4 DUP3 REVERT JUMPDEST SWAP1 POP TIMESTAMP GT CODESIZE PUSH2 0x305 JUMP JUMPDEST PUSH4 0x13858657 PUSH1 0xE2 SHL DUP3 MSTORE PUSH1 0x4 DUP3 REVERT JUMPDEST POP CALLVALUE PUSH2 0x130 JUMPI DUP1 PUSH1 0x3 NOT CALLDATASIZE ADD SLT PUSH2 0x130 JUMPI PUSH1 0x20 PUSH1 0x2 SLOAD PUSH1 0x40 MLOAD SWAP1 DUP2 MSTORE RETURN JUMPDEST POP CALLVALUE PUSH2 0x130 JUMPI DUP1 PUSH1 0x3 NOT CALLDATASIZE ADD SLT PUSH2 0x130 JUMPI SLOAD PUSH1 0x40 MLOAD PUSH1 0x1 PUSH1 0x1 PUSH1 0xA0 SHL SUB SWAP1 SWAP2 AND DUP2 MSTORE PUSH1 0x20 SWAP1 RETURN JUMPDEST POP CALLVALUE PUSH2 0x130 JUMPI DUP1 PUSH1 0x3 NOT CALLDATASIZE ADD SLT PUSH2 0x130 JUMPI PUSH1 0x20 PUSH1 0x4 SLOAD PUSH1 0x40 MLOAD SWAP1 DUP2 MSTORE RETURN JUMPDEST POP CALLVALUE PUSH2 0x130 JUMPI DUP1 PUSH1 0x3 NOT CALLDATASIZE ADD SLT PUSH2 0x130 JUMPI PUSH1 0x0 DUP1 MLOAD PUSH1 0x20 PUSH2 0xD9E DUP4 CODECOPY DUP2 MLOAD SWAP2 MSTORE SLOAD PUSH1 0x40 MLOAD PUSH1 0x1 PUSH1 0x1 PUSH1 0xA0 SHL SUB SWAP1 SWAP2 AND DUP2 MSTORE PUSH1 0x20 SWAP1 RETURN JUMPDEST POP CALLVALUE PUSH2 0x130 JUMPI PUSH1 0x20 CALLDATASIZE PUSH1 0x3 NOT ADD SLT PUSH2 0x130 JUMPI PUSH2 0x5A2 PUSH2 0xC3F JUMP JUMPDEST PUSH2 0x5AA PUSH2 0xD39 JUMP JUMPDEST PUSH1 0x0 DUP1 MLOAD PUSH1 0x20 PUSH2 0xD9E DUP4 CODECOPY DUP2 MLOAD SWAP2 MSTORE SLOAD PUSH1 0x1 SLOAD PUSH1 0x40 MLOAD PUSH4 0x70A08231 PUSH1 0xE0 SHL DUP2 MSTORE ADDRESS PUSH1 0x4 DUP3 ADD MSTORE SWAP2 PUSH1 0x1 PUSH1 0x1 PUSH1 0xA0 SHL SUB SWAP1 DUP2 AND SWAP2 PUSH1 0x20 SWAP2 DUP5 SWAP2 PUSH1 0x24 SWAP2 DUP4 SWAP2 AND GAS STATICCALL SWAP2 DUP3 ISZERO PUSH2 0x769 JUMPI DUP5 SWAP3 PUSH2 0x733 JUMPI JUMPDEST POP PUSH1 0x40 MLOAD PUSH4 0xA9059CBB PUSH1 0xE0 SHL DUP2 MSTORE PUSH1 0x1 PUSH1 0x1 PUSH1 0xA0 SHL SUB SWAP1 SWAP2 AND PUSH1 0x4 DUP3 ADD MSTORE PUSH1 0x24 DUP2 ADD SWAP2 SWAP1 SWAP2 MSTORE SWAP1 PUSH1 0x20 SWAP1 DUP3 SWAP1 DUP2 DUP6 DUP2 PUSH1 0x44 DUP2 ADD JUMPDEST SUB SWAP3 PUSH1 0x1 PUSH1 0x1 PUSH1 0xA0 SHL SUB AND GAS CALL DUP1 ISZERO PUSH2 0x29B JUMPI PUSH2 0x6FB JUMPI JUMPDEST POP PUSH1 0x0 DUP1 MLOAD PUSH1 0x20 PUSH2 0xD9E DUP4 CODECOPY DUP2 MLOAD SWAP2 MSTORE SLOAD PUSH1 0x1 SLOAD PUSH1 0x40 MLOAD PUSH4 0x70A08231 PUSH1 0xE0 SHL DUP2 MSTORE ADDRESS PUSH1 0x4 DUP3 ADD MSTORE PUSH1 0x1 PUSH1 0x1 PUSH1 0xA0 SHL SUB SWAP3 DUP4 AND SWAP3 SWAP1 SWAP2 PUSH1 0x20 SWAP2 DUP4 SWAP2 PUSH1 0x24 SWAP2 DUP4 SWAP2 AND GAS STATICCALL SWAP1 DUP2 ISZERO PUSH2 0x485 JUMPI DUP4 SWAP2 PUSH2 0x6C3 JUMPI JUMPDEST POP PUSH1 0x20 PUSH32 0xA2BD9FCFCDBA69F52BCD9A520846AD4BD685B187483F53EFC42D035B2DDEBFF0 SWAP2 PUSH1 0x40 MLOAD SWAP1 DUP2 MSTORE LOG2 DUP1 RETURN JUMPDEST SWAP1 POP PUSH1 0x20 DUP2 RETURNDATASIZE PUSH1 0x20 GT PUSH2 0x6F3 JUMPI JUMPDEST DUP2 PUSH2 0x6DE PUSH1 0x20 SWAP4 DUP4 PUSH2 0xC55 JUMP JUMPDEST DUP2 ADD SUB SLT PUSH2 0x6EE JUMPI MLOAD PUSH1 0x20 PUSH2 0x694 JUMP JUMPDEST PUSH1 0x0 DUP1 REVERT JUMPDEST RETURNDATASIZE SWAP2 POP PUSH2 0x6D1 JUMP JUMPDEST PUSH1 0x20 DUP2 RETURNDATASIZE PUSH1 0x20 GT PUSH2 0x72B JUMPI JUMPDEST DUP2 PUSH2 0x714 PUSH1 0x20 SWAP4 DUP4 PUSH2 0xC55 JUMP JUMPDEST DUP2 ADD SUB SLT PUSH2 0x727 JUMPI MLOAD DUP1 ISZERO ISZERO DUP2 EQ PUSH2 0x644 JUMPI JUMPDEST POP DUP1 REVERT JUMPDEST RETURNDATASIZE SWAP2 POP PUSH2 0x707 JUMP JUMPDEST SWAP2 POP PUSH1 0x20 DUP3 RETURNDATASIZE PUSH1 0x20 GT PUSH2 0x761 JUMPI JUMPDEST DUP2 PUSH2 0x74E PUSH1 0x20 SWAP4 DUP4 PUSH2 0xC55 JUMP JUMPDEST DUP2 ADD SUB SLT PUSH2 0x6EE JUMPI SWAP1 MLOAD SWAP1 PUSH2 0x62C PUSH2 0x5F8 JUMP JUMPDEST RETURNDATASIZE SWAP2 POP PUSH2 0x741 JUMP JUMPDEST PUSH1 0x40 MLOAD RETURNDATASIZE DUP7 DUP3 RETURNDATACOPY RETURNDATASIZE SWAP1 REVERT JUMPDEST POP CALLVALUE PUSH2 0x130 JUMPI PUSH2 0x120 CALLDATASIZE PUSH1 0x3 NOT ADD SLT PUSH2 0x130 JUMPI PUSH2 0x78F PUSH2 0xC3F JUMP JUMPDEST PUSH1 0x24 CALLDATALOAD PUSH1 0x1 PUSH1 0x1 PUSH1 0xA0 SHL SUB DUP2 AND SWAP1 DUP2 SWAP1 SUB PUSH2 0x479 JUMPI PUSH1 0xE4 CALLDATALOAD SWAP1 PUSH1 0x84 CALLDATALOAD SWAP1 PUSH1 0x44 CALLDATALOAD SWAP1 PUSH2 0x104 CALLDATALOAD PUSH1 0x1 PUSH1 0x1 PUSH1 0xA0 SHL SUB DUP2 AND SWAP1 DUP2 SWAP1 SUB PUSH2 0x96B JUMPI PUSH1 0x0 DUP1 MLOAD PUSH1 0x20 PUSH2 0xDBE DUP4 CODECOPY DUP2 MLOAD SWAP2 MSTORE SLOAD SWAP6 PUSH1 0xFF DUP8 PUSH1 0x40 SHR AND ISZERO SWAP7 PUSH8 0xFFFFFFFFFFFFFFFF DUP2 AND DUP1 ISZERO SWAP1 DUP2 PUSH2 0x963 JUMPI JUMPDEST PUSH1 0x1 EQ SWAP1 DUP2 PUSH2 0x959 JUMPI JUMPDEST ISZERO SWAP1 DUP2 PUSH2 0x950 JUMPI JUMPDEST POP PUSH2 0x941 JUMPI PUSH8 0xFFFFFFFFFFFFFFFF NOT DUP2 AND PUSH1 0x1 OR PUSH1 0x0 DUP1 MLOAD PUSH1 0x20 PUSH2 0xDBE DUP4 CODECOPY DUP2 MLOAD SWAP2 MSTORE SSTORE PUSH2 0x846 SWAP2 SWAP1 DUP9 PUSH2 0x914 JUMPI JUMPDEST POP PUSH2 0x83E PUSH2 0xD6F JUMP JUMPDEST PUSH2 0x176 PUSH2 0xD6F JUMP JUMPDEST DUP4 PUSH2 0x8F6 JUMPI JUMPDEST PUSH12 0xFFFFFFFFFFFFFFFFFFFFFFFF PUSH1 0xA0 SHL DUP8 SLOAD AND OR DUP7 SSTORE PUSH12 0xFFFFFFFFFFFFFFFFFFFFFFFF PUSH1 0xA0 SHL PUSH1 0x1 SLOAD AND OR PUSH1 0x1 SSTORE PUSH1 0x2 SSTORE PUSH1 0x64 CALLDATALOAD PUSH1 0x3 SSTORE PUSH1 0x4 SSTORE PUSH1 0xA4 CALLDATALOAD PUSH1 0x5 SSTORE PUSH1 0xC4 CALLDATALOAD PUSH1 0x6 SSTORE PUSH1 0x7 SSTORE PUSH2 0x89C JUMPI DUP1 RETURN JUMPDEST PUSH9 0xFF0000000000000000 NOT PUSH1 0x0 DUP1 MLOAD PUSH1 0x20 PUSH2 0xDBE DUP4 CODECOPY DUP2 MLOAD SWAP2 MSTORE SLOAD AND PUSH1 0x0 DUP1 MLOAD PUSH1 0x20 PUSH2 0xDBE DUP4 CODECOPY DUP2 MLOAD SWAP2 MSTORE SSTORE PUSH32 0xC7F505B2F371AE2175EE4913F4499E1F2633A7B5936321EED1CDAEB6115181D2 PUSH1 0x20 PUSH1 0x40 MLOAD PUSH1 0x1 DUP2 MSTORE LOG1 DUP1 RETURN JUMPDEST DUP5 ISZERO PUSH2 0x905 JUMPI DUP3 DUP6 LT ISZERO PUSH2 0x84C JUMPI JUMPDEST PUSH4 0x23187AE3 PUSH1 0xE0 SHL DUP8 MSTORE PUSH1 0x4 DUP8 REVERT JUMPDEST PUSH9 0xFFFFFFFFFFFFFFFFFF NOT AND PUSH9 0x10000000000000001 OR PUSH1 0x0 DUP1 MLOAD PUSH1 0x20 PUSH2 0xDBE DUP4 CODECOPY DUP2 MLOAD SWAP2 MSTORE SSTORE CODESIZE PUSH2 0x835 JUMP JUMPDEST PUSH4 0xF92EE8A9 PUSH1 0xE0 SHL DUP10 MSTORE PUSH1 0x4 DUP10 REVERT JUMPDEST SWAP1 POP ISZERO CODESIZE PUSH2 0x806 JUMP JUMPDEST ADDRESS EXTCODESIZE ISZERO SWAP2 POP PUSH2 0x7FE JUMP JUMPDEST DUP10 SWAP2 POP PUSH2 0x7F4 JUMP JUMPDEST DUP7 DUP1 REVERT JUMPDEST POP CALLVALUE PUSH2 0x130 JUMPI DUP1 PUSH1 0x3 NOT CALLDATASIZE ADD SLT PUSH2 0x130 JUMPI PUSH1 0x20 PUSH1 0x5 SLOAD PUSH1 0x40 MLOAD SWAP1 DUP2 MSTORE RETURN JUMPDEST POP CALLVALUE PUSH2 0x130 JUMPI DUP1 PUSH1 0x3 NOT CALLDATASIZE ADD SLT PUSH2 0x130 JUMPI PUSH2 0x9A6 PUSH2 0xD39 JUMP JUMPDEST PUSH1 0x0 DUP1 MLOAD PUSH1 0x20 PUSH2 0xD9E DUP4 CODECOPY DUP2 MLOAD SWAP2 MSTORE DUP1 SLOAD PUSH1 0x1 PUSH1 0x1 PUSH1 0xA0 SHL SUB NOT DUP2 AND SWAP1 SWAP2 SSTORE DUP2 SWAP1 PUSH1 0x1 PUSH1 0x1 PUSH1 0xA0 SHL SUB AND PUSH32 0x8BE0079C531659141344CD1FD0A4F28419497F9722A3DAAFE3B4186F6B6457E0 DUP3 DUP1 LOG3 DUP1 RETURN JUMPDEST POP CALLVALUE PUSH2 0x130 JUMPI DUP1 PUSH1 0x3 NOT CALLDATASIZE ADD SLT PUSH2 0x130 JUMPI PUSH1 0x6 SLOAD TIMESTAMP GT ISZERO PUSH2 0xA97 JUMPI PUSH1 0xFF PUSH1 0x9 SLOAD AND PUSH2 0xA88 JUMPI CALLER DUP2 MSTORE PUSH1 0xB PUSH1 0x20 MSTORE PUSH1 0x40 DUP2 KECCAK256 SLOAD DUP1 ISZERO PUSH2 0xA79 JUMPI CALLER DUP3 MSTORE PUSH1 0xB PUSH1 0x20 MSTORE DUP2 PUSH1 0x40 DUP2 KECCAK256 SSTORE DUP2 DUP1 DUP1 DUP1 DUP5 CALLER DUP3 CALL ISZERO PUSH2 0x285 JUMPI PUSH1 0x40 MLOAD SWAP1 DUP2 MSTORE PUSH32 0xFFAB3269BDACECA4D1BBC53E74B982AC2B306687E17E21F1E499E7FDF6751AC8 PUSH1 0x20 CALLER SWAP3 LOG2 DUP1 RETURN JUMPDEST PUSH4 0x634B67F5 PUSH1 0xE1 SHL DUP3 MSTORE PUSH1 0x4 DUP3 REVERT JUMPDEST PUSH4 0x5780964B PUSH1 0xE0 SHL DUP2 MSTORE PUSH1 0x4 SWAP1 REVERT JUMPDEST PUSH4 0x65603EED PUSH1 0xE1 SHL DUP2 MSTORE PUSH1 0x4 SWAP1 REVERT JUMPDEST POP CALLVALUE PUSH2 0x130 JUMPI DUP1 PUSH1 0x3 NOT CALLDATASIZE ADD SLT PUSH2 0x130 JUMPI PUSH1 0x20 PUSH1 0x7 SLOAD PUSH1 0x40 MLOAD SWAP1 DUP2 MSTORE RETURN JUMPDEST POP CALLVALUE PUSH2 0x130 JUMPI DUP1 PUSH1 0x3 NOT CALLDATASIZE ADD SLT PUSH2 0x130 JUMPI PUSH1 0x4 SLOAD ISZERO ISZERO DUP1 PUSH2 0xB9C JUMPI JUMPDEST PUSH2 0x2C3 JUMPI CALLER DUP2 MSTORE PUSH1 0xA PUSH1 0x20 MSTORE PUSH1 0x40 DUP2 KECCAK256 SLOAD SWAP1 DUP2 ISZERO PUSH2 0xB8E JUMPI CALLER DUP2 MSTORE PUSH1 0xA PUSH1 0x20 MSTORE PUSH1 0x40 DUP2 KECCAK256 DUP2 SWAP1 SSTORE PUSH1 0x1 SLOAD PUSH1 0x1 PUSH1 0x1 PUSH1 0xA0 SHL SUB AND DUP1 EXTCODESIZE ISZERO PUSH2 0x727 JUMPI PUSH1 0x40 MLOAD PUSH4 0x40C10F19 PUSH1 0xE0 SHL DUP2 MSTORE CALLER PUSH1 0x4 DUP3 ADD MSTORE PUSH1 0x24 DUP2 ADD DUP5 SWAP1 MSTORE SWAP1 DUP3 SWAP1 DUP3 SWAP1 PUSH1 0x44 SWAP1 DUP3 SWAP1 DUP5 SWAP1 GAS CALL DUP1 ISZERO PUSH2 0x29B JUMPI PUSH2 0xB7E JUMPI JUMPDEST POP SWAP1 PUSH1 0x40 MLOAD SWAP1 DUP2 MSTORE PUSH32 0x896E034966EAAF1ADC54ACC0F257056FEBBD300C9E47182CF761982CF1F5E430 PUSH1 0x20 CALLER SWAP3 LOG2 DUP1 RETURN JUMPDEST DUP2 PUSH2 0xB88 SWAP2 PUSH2 0xC55 JUMP JUMPDEST CODESIZE PUSH2 0xB4D JUMP JUMPDEST PUSH3 0xF3F861 PUSH1 0xE4 SHL DUP2 MSTORE PUSH1 0x4 SWAP1 REVERT JUMPDEST POP PUSH1 0xFF PUSH1 0x9 SLOAD AND ISZERO PUSH2 0xAE0 JUMP JUMPDEST POP CALLVALUE PUSH2 0x130 JUMPI PUSH1 0x20 CALLDATASIZE PUSH1 0x3 NOT ADD SLT PUSH2 0x130 JUMPI PUSH1 0x20 SWAP1 PUSH1 0x40 SWAP1 PUSH1 0x1 PUSH1 0x1 PUSH1 0xA0 SHL SUB PUSH2 0xBD1 PUSH2 0xC3F JUMP JUMPDEST AND DUP2 MSTORE PUSH1 0xA DUP4 MSTORE KECCAK256 SLOAD PUSH1 0x40 MLOAD SWAP1 DUP2 MSTORE RETURN JUMPDEST POP CALLVALUE PUSH2 0x130 JUMPI DUP1 PUSH1 0x3 NOT CALLDATASIZE ADD SLT PUSH2 0x130 JUMPI PUSH1 0x20 PUSH1 0x6 SLOAD PUSH1 0x40 MLOAD SWAP1 DUP2 MSTORE RETURN JUMPDEST POP CALLVALUE PUSH2 0x130 JUMPI DUP1 PUSH1 0x3 NOT CALLDATASIZE ADD SLT PUSH2 0x130 JUMPI PUSH1 0x20 PUSH1 0xFF PUSH1 0x9 SLOAD AND PUSH1 0x40 MLOAD SWAP1 ISZERO ISZERO DUP2 MSTORE RETURN JUMPDEST SWAP1 POP CALLVALUE PUSH2 0x727 JUMPI DUP2 PUSH1 0x3 NOT CALLDATASIZE ADD SLT PUSH2 0x727 JUMPI PUSH1 0x20 SWAP1 PUSH1 0x8 SLOAD DUP2 MSTORE RETURN JUMPDEST PUSH1 0x4 CALLDATALOAD SWAP1 PUSH1 0x1 PUSH1 0x1 PUSH1 0xA0 SHL SUB DUP3 AND DUP3 SUB PUSH2 0x6EE JUMPI JUMP JUMPDEST SWAP1 PUSH1 0x1F DUP1 NOT SWAP2 ADD AND DUP2 ADD SWAP1 DUP2 LT PUSH8 0xFFFFFFFFFFFFFFFF DUP3 GT OR PUSH2 0xC77 JUMPI PUSH1 0x40 MSTORE JUMP JUMPDEST PUSH4 0x4E487B71 PUSH1 0xE0 SHL PUSH1 0x0 MSTORE PUSH1 0x41 PUSH1 0x4 MSTORE PUSH1 0x24 PUSH1 0x0 REVERT JUMPDEST DUP2 DUP2 MUL SWAP3 SWAP2 DUP2 ISZERO SWAP2 DUP5 DIV EQ OR ISZERO PUSH2 0xCA0 JUMPI JUMP JUMPDEST PUSH4 0x4E487B71 PUSH1 0xE0 SHL PUSH1 0x0 MSTORE PUSH1 0x11 PUSH1 0x4 MSTORE PUSH1 0x24 PUSH1 0x0 REVERT JUMPDEST SWAP2 SWAP1 DUP3 ADD DUP1 SWAP3 GT PUSH2 0xCA0 JUMPI JUMP JUMPDEST PUSH1 0x1 PUSH1 0x1 PUSH1 0xA0 SHL SUB AND DUP1 ISZERO PUSH2 0xD23 JUMPI PUSH1 0x0 DUP1 MLOAD PUSH1 0x20 PUSH2 0xD9E DUP4 CODECOPY DUP2 MLOAD SWAP2 MSTORE DUP1 SLOAD PUSH1 0x1 PUSH1 0x1 PUSH1 0xA0 SHL SUB NOT DUP2 AND DUP4 OR SWAP1 SWAP2 SSTORE PUSH1 0x1 PUSH1 0x1 PUSH1 0xA0 SHL SUB AND PUSH32 0x8BE0079C531659141344CD1FD0A4F28419497F9722A3DAAFE3B4186F6B6457E0 PUSH1 0x0 DUP1 LOG3 JUMP JUMPDEST PUSH4 0x1E4FBDF7 PUSH1 0xE0 SHL PUSH1 0x0 MSTORE PUSH1 0x0 PUSH1 0x4 MSTORE PUSH1 0x24 PUSH1 0x0 REVERT JUMPDEST PUSH1 0x0 DUP1 MLOAD PUSH1 0x20 PUSH2 0xD9E DUP4 CODECOPY DUP2 MLOAD SWAP2 MSTORE SLOAD PUSH1 0x1 PUSH1 0x1 PUSH1 0xA0 SHL SUB AND CALLER SUB PUSH2 0xD5A JUMPI JUMP JUMPDEST PUSH4 0x118CDAA7 PUSH1 0xE0 SHL PUSH1 0x0 MSTORE CALLER PUSH1 0x4 MSTORE PUSH1 0x24 PUSH1 0x0 REVERT JUMPDEST PUSH1 0xFF PUSH1 0x0 DUP1 MLOAD PUSH1 0x20 PUSH2 0xDBE DUP4 CODECOPY DUP2 MLOAD SWAP2 MSTORE SLOAD PUSH1 0x40 SHR AND ISZERO PUSH2 0xD8C JUMPI JUMP JUMPDEST PUSH4 0x1AFCD79F PUSH1 0xE3 SHL PUSH1 0x0 MSTORE PUSH1 0x4 PUSH1 0x0 REVERT INVALID SWAP1 AND 0xD0 SWAP14 PUSH19 0xD40FDAE2FD8CEAC6B6234C7706214FD39C1CD1 0xE6 MULMOD LOG0 MSTORE DUP13 NOT SWAP4 STOP CREATE 0xC5 PUSH31 0x16840DF040F15088DC2F81FE391C3923BEC73E23A9662EFC9C229C6A00A264 PUSH10 0x7066735822122053167B SELFBALANCE 0xDE STATICCALL PC REVERT SWAP12 0x28 PUSH4 0x679B4F48 AND BLOBBASEFEE 0x2A RETURNDATACOPY GAS PUSH14 0x23BBD9FB228A9799EEA90A64736F PUSH13 0x634300081A0033000000000000 "
        },
        "methodIdentifiers": {
          "claimTokens()": "48c54b9d",
          "contribute(uint256)": "c1cbbca7",
          "endTime()": "3197cbb6",
          "ethContributions(address)": "e730395a",
          "factoryAddress()": "966dae0e",
          "hardCap()": "fb86a404",
          "initialize(address,address,uint256,uint256,uint256,uint256,uint256,uint256,address)": "80d021a9",
          "owner()": "8da5cb5b",
          "price()": "a035b1fe",
          "refund()": "590e1ae3",
          "renounceOwnership()": "715018a6",
          "softCap()": "906a26e0",
          "softCapPrice()": "55d1b4d3",
          "softCapReached()": "2b9edee9",
          "startTime()": "78e97925",
          "token()": "fc0c546a",
          "tokenContributions(address)": "45787844",
          "totalContributed()": "023f4147",
          "transferOwnership(address)": "f2fde38b",
          "withdrawETH()": "e086e5ec",
          "withdrawToken(address)": "89476069"
        }
      }
    }
  }
}