{
  "contracts/PresaleFactory.sol": {
    "PresaleFactory": {
      "abi": [
        {
          "inputs": [
            {
              "internalType": "address",
              "name": "presale_",
              "type": "address"
            },
            {
              "internalType": "address",
              "name": "token_",
              "type": "address"
            },
            {
              "internalType": "uint256",
              "name": "initialFee",
              "type": "uint256"
            },
            {
              "internalType": "address",
              "name": "ownerAddress",
              "type": "address"
            }
          ],
          "stateMutability": "nonpayable",
          "type": "constructor"
        },
        {
          "inputs": [],
          "name": "FailedDeployment",
          "type": "error"
        },
        {
          "inputs": [
            {
              "internalType": "uint256",
              "name": "sent",
              "type": "uint256"
            },
            {
              "internalType": "uint256",
              "name": "required",
              "type": "uint256"
            }
          ],
          "name": "IncorrectPresaleCreationFee",
          "type": "error"
        },
        {
          "inputs": [
            {
              "internalType": "uint256",
              "name": "balance",
              "type": "uint256"
            },
            {
              "internalType": "uint256",
              "name": "needed",
              "type": "uint256"
            }
          ],
          "name": "InsufficientBalance",
          "type": "error"
        },
        {
          "inputs": [
            {
              "internalType": "address",
              "name": "owner",
              "type": "address"
            }
          ],
          "name": "OwnableInvalidOwner",
          "type": "error"
        },
        {
          "inputs": [
            {
              "internalType": "address",
              "name": "account",
              "type": "address"
            }
          ],
          "name": "OwnableUnauthorizedAccount",
          "type": "error"
        },
        {
          "anonymous": false,
          "inputs": [
            {
              "indexed": true,
              "internalType": "address",
              "name": "previousOwner",
              "type": "address"
            },
            {
              "indexed": true,
              "internalType": "address",
              "name": "newOwner",
              "type": "address"
            }
          ],
          "name": "OwnershipTransferred",
          "type": "event"
        },
        {
          "anonymous": false,
          "inputs": [
            {
              "indexed": true,
              "internalType": "address",
              "name": "presale",
              "type": "address"
            }
          ],
          "name": "PresaleCreated",
          "type": "event"
        },
        {
          "inputs": [
            {
              "internalType": "uint256",
              "name": "",
              "type": "uint256"
            }
          ],
          "name": "allPresales",
          "outputs": [
            {
              "internalType": "address",
              "name": "",
              "type": "address"
            }
          ],
          "stateMutability": "view",
          "type": "function"
        },
        {
          "inputs": [
            {
              "internalType": "string",
              "name": "name",
              "type": "string"
            },
            {
              "internalType": "string",
              "name": "symbol",
              "type": "string"
            },
            {
              "internalType": "uint256",
              "name": "supply",
              "type": "uint256"
            },
            {
              "internalType": "uint256",
              "name": "price",
              "type": "uint256"
            },
            {
              "internalType": "uint256",
              "name": "hardCap",
              "type": "uint256"
            },
            {
              "internalType": "uint256",
              "name": "softCap",
              "type": "uint256"
            },
            {
              "internalType": "uint256",
              "name": "startTime",
              "type": "uint256"
            },
            {
              "internalType": "uint256",
              "name": "endTime",
              "type": "uint256"
            },
            {
              "internalType": "uint256",
              "name": "softCapPrice",
              "type": "uint256"
            }
          ],
          "name": "createPresale",
          "outputs": [],
          "stateMutability": "payable",
          "type": "function"
        },
        {
          "inputs": [],
          "name": "getFactoryBalance",
          "outputs": [
            {
              "internalType": "uint256",
              "name": "",
              "type": "uint256"
            }
          ],
          "stateMutability": "view",
          "type": "function"
        },
        {
          "inputs": [
            {
              "internalType": "uint256",
              "name": "page",
              "type": "uint256"
            }
          ],
          "name": "getPaginatedPresales",
          "outputs": [
            {
              "internalType": "address[]",
              "name": "",
              "type": "address[]"
            }
          ],
          "stateMutability": "view",
          "type": "function"
        },
        {
          "inputs": [
            {
              "internalType": "uint256",
              "name": "page",
              "type": "uint256"
            },
            {
              "internalType": "uint256",
              "name": "pageSize",
              "type": "uint256"
            }
          ],
          "name": "getPaginatedPresalesDecreasingByCreation",
          "outputs": [
            {
              "internalType": "address[]",
              "name": "",
              "type": "address[]"
            }
          ],
          "stateMutability": "view",
          "type": "function"
        },
        {
          "inputs": [
            {
              "internalType": "address",
              "name": "user",
              "type": "address"
            }
          ],
          "name": "getUserCreatedTokens",
          "outputs": [
            {
              "internalType": "address[]",
              "name": "",
              "type": "address[]"
            }
          ],
          "stateMutability": "view",
          "type": "function"
        },
        {
          "inputs": [],
          "name": "owner",
          "outputs": [
            {
              "internalType": "address",
              "name": "",
              "type": "address"
            }
          ],
          "stateMutability": "view",
          "type": "function"
        },
        {
          "inputs": [],
          "name": "presale",
          "outputs": [
            {
              "internalType": "contract Presale",
              "name": "",
              "type": "address"
            }
          ],
          "stateMutability": "view",
          "type": "function"
        },
        {
          "inputs": [],
          "name": "presaleCreationFee",
          "outputs": [
            {
              "internalType": "uint256",
              "name": "",
              "type": "uint256"
            }
          ],
          "stateMutability": "view",
          "type": "function"
        },
        {
          "inputs": [],
          "name": "renounceOwnership",
          "outputs": [],
          "stateMutability": "nonpayable",
          "type": "function"
        },
        {
          "inputs": [
            {
              "internalType": "uint256",
              "name": "_newFee",
              "type": "uint256"
            }
          ],
          "name": "setPresaleCreationFee",
          "outputs": [],
          "stateMutability": "nonpayable",
          "type": "function"
        },
        {
          "inputs": [],
          "name": "token",
          "outputs": [
            {
              "internalType": "contract MintableERC20",
              "name": "",
              "type": "address"
            }
          ],
          "stateMutability": "view",
          "type": "function"
        },
        {
          "inputs": [
            {
              "internalType": "address",
              "name": "newOwner",
              "type": "address"
            }
          ],
          "name": "transferOwnership",
          "outputs": [],
          "stateMutability": "nonpayable",
          "type": "function"
        },
        {
          "inputs": [],
          "name": "withdrawFees",
          "outputs": [],
          "stateMutability": "nonpayable",
          "type": "function"
        },
        {
          "stateMutability": "payable",
          "type": "receive"
        }
      ],
      "evm": {
        "bytecode": {
          "linkReferences": {},
          "object": "60c03461011557601f610c6538819003918201601f19168301916001600160401b0383118484101761011a578084926080946040528339810103126101155761004781610130565b9061005460208201610130565b6040820151916001600160a01b039061006f90606001610130565b169283156100ff57600080546001600160a01b031981168617825560405195916001600160a01b03909116907f8be0079c531659141344cd1fd0a4f28419497f9722a3daafe3b4186f6b6457e09080a36001600160a01b039081166080521660a052600155610b209081610145823960805181818160d60152610481015260a05181818161011e015261044f0152f35b631e4fbdf760e01b600052600060045260246000fd5b600080fd5b634e487b7160e01b600052604160045260246000fd5b51906001600160a01b03821682036101155756fe6080604052600436101561001b575b361561001957600080fd5b005b6000803560e01c80630d30e9bc146106fa578063168269d7146106d757806331008f3d146103d7578063476343ee14610389578063715018a61461032f57806380878418146103115780638da5cb5b146102ea578063a9e1a14a146102a6578063c00be1a014610227578063dcff36c01461020b578063ee443750146101db578063f2fde38b1461014d578063fc0c546a146101085763fdea8e0b146100c1575061000e565b346101055780600319360112610105576040517f00000000000000000000000000000000000000000000000000000000000000006001600160a01b03168152602090f35b80fd5b50346101055780600319360112610105576040517f00000000000000000000000000000000000000000000000000000000000000006001600160a01b03168152602090f35b5034610105576020366003190112610105576004356001600160a01b038116908190036101d75761017c610a5a565b80156101c35781546001600160a01b03198116821783556001600160a01b03167f8be0079c531659141344cd1fd0a4f28419497f9722a3daafe3b4186f6b6457e08380a380f35b631e4fbdf760e01b82526004829052602482fd5b5080fd5b5034610105576020366003190112610105576102076101fb6004356109a6565b6040519182918261071d565b0390f35b5034610105578060031936011261010557602047604051908152f35b5034610105576020366003190112610105576004356001600160a01b038116908190036101d7578152600360205260408120604051918260208354918281520192825260208220915b81811061028757610207856101fb818703826107dc565b82546001600160a01b0316845260209093019260019283019201610270565b503461010557602036600319011261010557600435906002548210156101055760206102d183610793565b905460405160039290921b1c6001600160a01b03168152f35b5034610105578060031936011261010557546040516001600160a01b039091168152602090f35b50346101055780600319360112610105576020600154604051908152f35b5034610105578060031936011261010557610348610a5a565b80546001600160a01b03198116825581906001600160a01b03167f8be0079c531659141344cd1fd0a4f28419497f9722a3daafe3b4186f6b6457e08280a380f35b50346101055780600319360112610105576103a2610a5a565b808080804760018060a01b038254168282156103ce575bf1156103c25780f35b604051903d90823e3d90fd5b506108fc6103b9565b506101203660031901126101055760043567ffffffffffffffff81116101d757610405903690600401610760565b60243567ffffffffffffffff81116106a757610425903690600401610760565b926001548034036106c157508490818034156106b8575b8180809234903090f1156106ab5761047c7f00000000000000000000000000000000000000000000000000000000000000006001600160a01b0316610a83565b6104ae7f00000000000000000000000000000000000000000000000000000000000000006001600160a01b0316610a83565b6001600160a01b0390911695863b156106a7576040516393d2392360e01b81523360048201526001600160a01b039092166024830181905260a060448401529591948593849361051993916105079160a4870191610985565b84810360031901606486015291610985565b6044356084830152038183875af1801561069c57610688575b50803b1561067957826040516380d021a960e01b81523360048201528360248201526064356044820152608435606482015260a435608482015260c43560a482015260e43560c48201526101043560e48201523061010482015281816101248183875af1801561067d57610664575b5050600254600160401b811015610650578060016105c4920160025560026107c4565b81546001600160a01b0360039290921b91821b19169083901b1790557f8b27b1a9a5960fe85b0267737620545414f3bb7d104301f7ef6b397e7ebfc9938380a2338252600360205260408220805490600160401b821015610650579061062f916001820181556107c4565b81546001600160a01b0360039290921b91821b191692901b91909117905580f35b634e487b7160e01b84526041600452602484fd5b8161066e916107dc565b6106795782386105a1565b8280fd5b6040513d84823e3d90fd5b83610695919492946107dc565b9138610532565b6040513d86823e3d90fd5b8380fd5b50604051903d90823e3d90fd5b506108fc61043c565b631d50115d60e01b865234600452602452604485fd5b5034610105576040366003190112610105576102076101fb6024356004356108a2565b503461010557602036600319011261010557610714610a5a565b60043560015580f35b602060408183019282815284518094520192019060005b8181106107415750505090565b82516001600160a01b0316845260209384019390920191600101610734565b9181601f8401121561078e5782359167ffffffffffffffff831161078e576020838186019501011161078e57565b600080fd5b6002548110156107ae57600260005260206000200190600090565b634e487b7160e01b600052603260045260246000fd5b80548210156107ae5760005260206000200190600090565b90601f8019910116810190811067ffffffffffffffff8211176107fe57604052565b634e487b7160e01b600052604160045260246000fd5b67ffffffffffffffff81116107fe5760051b60200190565b9061083682610814565b61084360405191826107dc565b8281528092610854601f1991610814565b0190602036910137565b9190820391821161086b57565b634e487b7160e01b600052601160045260246000fd5b9190820180921161086b57565b80518210156107ae5760209160051b010190565b90600254908115801561097d575b61096057600019830192831161086b578083029280840482149015171561086b578183101561096057816108e48285610881565b11610950575b6108f38161082c565b92600019830192831160005b83811061090e57505050505090565b8161086b578061093161092c600193610927878a61085e565b61085e565b610793565b838060a01b0391549060031b1c16610949828961088e565b52016108ff565b5061095b828261085e565b6108ea565b5050506040516109716020826107dc565b60008152600036813790565b5082156108b0565b908060209392818452848401376000828201840152601f01601f1916010190565b906002548215610a4957600019830192831161086b57600a830292808404600a149015171561086b5780831015610a4957600a83019081841161086b576109f7918491808211610a41575b5061085e565b610a008161082c565b9060005b818110610a12575090925050565b80610a2261092c60019388610881565b838060a01b0391549060031b1c16610a3a828661088e565b5201610a04565b9050386109f1565b5090506040516109716020826107dc565b6000546001600160a01b03163303610a6e57565b63118cdaa760e01b6000523360045260246000fd5b6e5af43d82803e903d91602b57fd5bf390763d602d80600a3d3981f3363d3d373d3d3d363d7300000062ffffff8260881c161760005260781b17602052603760096000f0906001600160a01b03821615610ad957565b63b06ebf3d60e01b60005260046000fdfea2646970667358221220c667206920044b4da459d24cc06ff173427ff57169197d4212da3248a303b46064736f6c634300081a0033",
          "opcodes": "PUSH1 0xC0 CALLVALUE PUSH2 0x115 JUMPI PUSH1 0x1F PUSH2 0xC65 CODESIZE DUP2 SWAP1 SUB SWAP2 DUP3 ADD PUSH1 0x1F NOT AND DUP4 ADD SWAP2 PUSH1 0x1 PUSH1 0x1 PUSH1 0x40 SHL SUB DUP4 GT DUP5 DUP5 LT OR PUSH2 0x11A JUMPI DUP1 DUP5 SWAP3 PUSH1 0x80 SWAP5 PUSH1 0x40 MSTORE DUP4 CODECOPY DUP2 ADD SUB SLT PUSH2 0x115 JUMPI PUSH2 0x47 DUP2 PUSH2 0x130 JUMP JUMPDEST SWAP1 PUSH2 0x54 PUSH1 0x20 DUP3 ADD PUSH2 0x130 JUMP JUMPDEST PUSH1 0x40 DUP3 ADD MLOAD SWAP2 PUSH1 0x1 PUSH1 0x1 PUSH1 0xA0 SHL SUB SWAP1 PUSH2 0x6F SWAP1 PUSH1 0x60 ADD PUSH2 0x130 JUMP JUMPDEST AND SWAP3 DUP4 ISZERO PUSH2 0xFF JUMPI PUSH1 0x0 DUP1 SLOAD PUSH1 0x1 PUSH1 0x1 PUSH1 0xA0 SHL SUB NOT DUP2 AND DUP7 OR DUP3 SSTORE PUSH1 0x40 MLOAD SWAP6 SWAP2 PUSH1 0x1 PUSH1 0x1 PUSH1 0xA0 SHL SUB SWAP1 SWAP2 AND SWAP1 PUSH32 0x8BE0079C531659141344CD1FD0A4F28419497F9722A3DAAFE3B4186F6B6457E0 SWAP1 DUP1 LOG3 PUSH1 0x1 PUSH1 0x1 PUSH1 0xA0 SHL SUB SWAP1 DUP2 AND PUSH1 0x80 MSTORE AND PUSH1 0xA0 MSTORE PUSH1 0x1 SSTORE PUSH2 0xB20 SWAP1 DUP2 PUSH2 0x145 DUP3 CODECOPY PUSH1 0x80 MLOAD DUP2 DUP2 DUP2 PUSH1 0xD6 ADD MSTORE PUSH2 0x481 ADD MSTORE PUSH1 0xA0 MLOAD DUP2 DUP2 DUP2 PUSH2 0x11E ADD MSTORE PUSH2 0x44F ADD MSTORE RETURN JUMPDEST PUSH4 0x1E4FBDF7 PUSH1 0xE0 SHL PUSH1 0x0 MSTORE PUSH1 0x0 PUSH1 0x4 MSTORE PUSH1 0x24 PUSH1 0x0 REVERT JUMPDEST PUSH1 0x0 DUP1 REVERT JUMPDEST PUSH4 0x4E487B71 PUSH1 0xE0 SHL PUSH1 0x0 MSTORE PUSH1 0x41 PUSH1 0x4 MSTORE PUSH1 0x24 PUSH1 0x0 REVERT JUMPDEST MLOAD SWAP1 PUSH1 0x1 PUSH1 0x1 PUSH1 0xA0 SHL SUB DUP3 AND DUP3 SUB PUSH2 0x115 JUMPI JUMP INVALID PUSH1 0x80 PUSH1 0x40 MSTORE PUSH1 0x4 CALLDATASIZE LT ISZERO PUSH2 0x1B JUMPI JUMPDEST CALLDATASIZE ISZERO PUSH2 0x19 JUMPI PUSH1 0x0 DUP1 REVERT JUMPDEST STOP JUMPDEST PUSH1 0x0 DUP1 CALLDATALOAD PUSH1 0xE0 SHR DUP1 PUSH4 0xD30E9BC EQ PUSH2 0x6FA JUMPI DUP1 PUSH4 0x168269D7 EQ PUSH2 0x6D7 JUMPI DUP1 PUSH4 0x31008F3D EQ PUSH2 0x3D7 JUMPI DUP1 PUSH4 0x476343EE EQ PUSH2 0x389 JUMPI DUP1 PUSH4 0x715018A6 EQ PUSH2 0x32F JUMPI DUP1 PUSH4 0x80878418 EQ PUSH2 0x311 JUMPI DUP1 PUSH4 0x8DA5CB5B EQ PUSH2 0x2EA JUMPI DUP1 PUSH4 0xA9E1A14A EQ PUSH2 0x2A6 JUMPI DUP1 PUSH4 0xC00BE1A0 EQ PUSH2 0x227 JUMPI DUP1 PUSH4 0xDCFF36C0 EQ PUSH2 0x20B JUMPI DUP1 PUSH4 0xEE443750 EQ PUSH2 0x1DB JUMPI DUP1 PUSH4 0xF2FDE38B EQ PUSH2 0x14D JUMPI DUP1 PUSH4 0xFC0C546A EQ PUSH2 0x108 JUMPI PUSH4 0xFDEA8E0B EQ PUSH2 0xC1 JUMPI POP PUSH2 0xE JUMP JUMPDEST CALLVALUE PUSH2 0x105 JUMPI DUP1 PUSH1 0x3 NOT CALLDATASIZE ADD SLT PUSH2 0x105 JUMPI PUSH1 0x40 MLOAD PUSH32 0x0 PUSH1 0x1 PUSH1 0x1 PUSH1 0xA0 SHL SUB AND DUP2 MSTORE PUSH1 0x20 SWAP1 RETURN JUMPDEST DUP1 REVERT JUMPDEST POP CALLVALUE PUSH2 0x105 JUMPI DUP1 PUSH1 0x3 NOT CALLDATASIZE ADD SLT PUSH2 0x105 JUMPI PUSH1 0x40 MLOAD PUSH32 0x0 PUSH1 0x1 PUSH1 0x1 PUSH1 0xA0 SHL SUB AND DUP2 MSTORE PUSH1 0x20 SWAP1 RETURN JUMPDEST POP CALLVALUE PUSH2 0x105 JUMPI PUSH1 0x20 CALLDATASIZE PUSH1 0x3 NOT ADD SLT PUSH2 0x105 JUMPI PUSH1 0x4 CALLDATALOAD PUSH1 0x1 PUSH1 0x1 PUSH1 0xA0 SHL SUB DUP2 AND SWAP1 DUP2 SWAP1 SUB PUSH2 0x1D7 JUMPI PUSH2 0x17C PUSH2 0xA5A JUMP JUMPDEST DUP1 ISZERO PUSH2 0x1C3 JUMPI DUP2 SLOAD PUSH1 0x1 PUSH1 0x1 PUSH1 0xA0 SHL SUB NOT DUP2 AND DUP3 OR DUP4 SSTORE PUSH1 0x1 PUSH1 0x1 PUSH1 0xA0 SHL SUB AND PUSH32 0x8BE0079C531659141344CD1FD0A4F28419497F9722A3DAAFE3B4186F6B6457E0 DUP4 DUP1 LOG3 DUP1 RETURN JUMPDEST PUSH4 0x1E4FBDF7 PUSH1 0xE0 SHL DUP3 MSTORE PUSH1 0x4 DUP3 SWAP1 MSTORE PUSH1 0x24 DUP3 REVERT JUMPDEST POP DUP1 REVERT JUMPDEST POP CALLVALUE PUSH2 0x105 JUMPI PUSH1 0x20 CALLDATASIZE PUSH1 0x3 NOT ADD SLT PUSH2 0x105 JUMPI PUSH2 0x207 PUSH2 0x1FB PUSH1 0x4 CALLDATALOAD PUSH2 0x9A6 JUMP JUMPDEST PUSH1 0x40 MLOAD SWAP2 DUP3 SWAP2 DUP3 PUSH2 0x71D JUMP JUMPDEST SUB SWAP1 RETURN JUMPDEST POP CALLVALUE PUSH2 0x105 JUMPI DUP1 PUSH1 0x3 NOT CALLDATASIZE ADD SLT PUSH2 0x105 JUMPI PUSH1 0x20 SELFBALANCE PUSH1 0x40 MLOAD SWAP1 DUP2 MSTORE RETURN JUMPDEST POP CALLVALUE PUSH2 0x105 JUMPI PUSH1 0x20 CALLDATASIZE PUSH1 0x3 NOT ADD SLT PUSH2 0x105 JUMPI PUSH1 0x4 CALLDATALOAD PUSH1 0x1 PUSH1 0x1 PUSH1 0xA0 SHL SUB DUP2 AND SWAP1 DUP2 SWAP1 SUB PUSH2 0x1D7 JUMPI DUP2 MSTORE PUSH1 0x3 PUSH1 0x20 MSTORE PUSH1 0x40 DUP2 KECCAK256 PUSH1 0x40 MLOAD SWAP2 DUP3 PUSH1 0x20 DUP4 SLOAD SWAP2 DUP3 DUP2 MSTORE ADD SWAP3 DUP3 MSTORE PUSH1 0x20 DUP3 KECCAK256 SWAP2 JUMPDEST DUP2 DUP2 LT PUSH2 0x287 JUMPI PUSH2 0x207 DUP6 PUSH2 0x1FB DUP2 DUP8 SUB DUP3 PUSH2 0x7DC JUMP JUMPDEST DUP3 SLOAD PUSH1 0x1 PUSH1 0x1 PUSH1 0xA0 SHL SUB AND DUP5 MSTORE PUSH1 0x20 SWAP1 SWAP4 ADD SWAP3 PUSH1 0x1 SWAP3 DUP4 ADD SWAP3 ADD PUSH2 0x270 JUMP JUMPDEST POP CALLVALUE PUSH2 0x105 JUMPI PUSH1 0x20 CALLDATASIZE PUSH1 0x3 NOT ADD SLT PUSH2 0x105 JUMPI PUSH1 0x4 CALLDATALOAD SWAP1 PUSH1 0x2 SLOAD DUP3 LT ISZERO PUSH2 0x105 JUMPI PUSH1 0x20 PUSH2 0x2D1 DUP4 PUSH2 0x793 JUMP JUMPDEST SWAP1 SLOAD PUSH1 0x40 MLOAD PUSH1 0x3 SWAP3 SWAP1 SWAP3 SHL SHR PUSH1 0x1 PUSH1 0x1 PUSH1 0xA0 SHL SUB AND DUP2 MSTORE RETURN JUMPDEST POP CALLVALUE PUSH2 0x105 JUMPI DUP1 PUSH1 0x3 NOT CALLDATASIZE ADD SLT PUSH2 0x105 JUMPI SLOAD PUSH1 0x40 MLOAD PUSH1 0x1 PUSH1 0x1 PUSH1 0xA0 SHL SUB SWAP1 SWAP2 AND DUP2 MSTORE PUSH1 0x20 SWAP1 RETURN JUMPDEST POP CALLVALUE PUSH2 0x105 JUMPI DUP1 PUSH1 0x3 NOT CALLDATASIZE ADD SLT PUSH2 0x105 JUMPI PUSH1 0x20 PUSH1 0x1 SLOAD PUSH1 0x40 MLOAD SWAP1 DUP2 MSTORE RETURN JUMPDEST POP CALLVALUE PUSH2 0x105 JUMPI DUP1 PUSH1 0x3 NOT CALLDATASIZE ADD SLT PUSH2 0x105 JUMPI PUSH2 0x348 PUSH2 0xA5A JUMP JUMPDEST DUP1 SLOAD PUSH1 0x1 PUSH1 0x1 PUSH1 0xA0 SHL SUB NOT DUP2 AND DUP3 SSTORE DUP2 SWAP1 PUSH1 0x1 PUSH1 0x1 PUSH1 0xA0 SHL SUB AND PUSH32 0x8BE0079C531659141344CD1FD0A4F28419497F9722A3DAAFE3B4186F6B6457E0 DUP3 DUP1 LOG3 DUP1 RETURN JUMPDEST POP CALLVALUE PUSH2 0x105 JUMPI DUP1 PUSH1 0x3 NOT CALLDATASIZE ADD SLT PUSH2 0x105 JUMPI PUSH2 0x3A2 PUSH2 0xA5A JUMP JUMPDEST DUP1 DUP1 DUP1 DUP1 SELFBALANCE PUSH1 0x1 DUP1 PUSH1 0xA0 SHL SUB DUP3 SLOAD AND DUP3 DUP3 ISZERO PUSH2 0x3CE JUMPI JUMPDEST CALL ISZERO PUSH2 0x3C2 JUMPI DUP1 RETURN JUMPDEST PUSH1 0x40 MLOAD SWAP1 RETURNDATASIZE SWAP1 DUP3 RETURNDATACOPY RETURNDATASIZE SWAP1 REVERT JUMPDEST POP PUSH2 0x8FC PUSH2 0x3B9 JUMP JUMPDEST POP PUSH2 0x120 CALLDATASIZE PUSH1 0x3 NOT ADD SLT PUSH2 0x105 JUMPI PUSH1 0x4 CALLDATALOAD PUSH8 0xFFFFFFFFFFFFFFFF DUP2 GT PUSH2 0x1D7 JUMPI PUSH2 0x405 SWAP1 CALLDATASIZE SWAP1 PUSH1 0x4 ADD PUSH2 0x760 JUMP JUMPDEST PUSH1 0x24 CALLDATALOAD PUSH8 0xFFFFFFFFFFFFFFFF DUP2 GT PUSH2 0x6A7 JUMPI PUSH2 0x425 SWAP1 CALLDATASIZE SWAP1 PUSH1 0x4 ADD PUSH2 0x760 JUMP JUMPDEST SWAP3 PUSH1 0x1 SLOAD DUP1 CALLVALUE SUB PUSH2 0x6C1 JUMPI POP DUP5 SWAP1 DUP2 DUP1 CALLVALUE ISZERO PUSH2 0x6B8 JUMPI JUMPDEST DUP2 DUP1 DUP1 SWAP3 CALLVALUE SWAP1 ADDRESS SWAP1 CALL ISZERO PUSH2 0x6AB JUMPI PUSH2 0x47C PUSH32 0x0 PUSH1 0x1 PUSH1 0x1 PUSH1 0xA0 SHL SUB AND PUSH2 0xA83 JUMP JUMPDEST PUSH2 0x4AE PUSH32 0x0 PUSH1 0x1 PUSH1 0x1 PUSH1 0xA0 SHL SUB AND PUSH2 0xA83 JUMP JUMPDEST PUSH1 0x1 PUSH1 0x1 PUSH1 0xA0 SHL SUB SWAP1 SWAP2 AND SWAP6 DUP7 EXTCODESIZE ISZERO PUSH2 0x6A7 JUMPI PUSH1 0x40 MLOAD PUSH4 0x93D23923 PUSH1 0xE0 SHL DUP2 MSTORE CALLER PUSH1 0x4 DUP3 ADD MSTORE PUSH1 0x1 PUSH1 0x1 PUSH1 0xA0 SHL SUB SWAP1 SWAP3 AND PUSH1 0x24 DUP4 ADD DUP2 SWAP1 MSTORE PUSH1 0xA0 PUSH1 0x44 DUP5 ADD MSTORE SWAP6 SWAP2 SWAP5 DUP6 SWAP4 DUP5 SWAP4 PUSH2 0x519 SWAP4 SWAP2 PUSH2 0x507 SWAP2 PUSH1 0xA4 DUP8 ADD SWAP2 PUSH2 0x985 JUMP JUMPDEST DUP5 DUP2 SUB PUSH1 0x3 NOT ADD PUSH1 0x64 DUP7 ADD MSTORE SWAP2 PUSH2 0x985 JUMP JUMPDEST PUSH1 0x44 CALLDATALOAD PUSH1 0x84 DUP4 ADD MSTORE SUB DUP2 DUP4 DUP8 GAS CALL DUP1 ISZERO PUSH2 0x69C JUMPI PUSH2 0x688 JUMPI JUMPDEST POP DUP1 EXTCODESIZE ISZERO PUSH2 0x679 JUMPI DUP3 PUSH1 0x40 MLOAD PUSH4 0x80D021A9 PUSH1 0xE0 SHL DUP2 MSTORE CALLER PUSH1 0x4 DUP3 ADD MSTORE DUP4 PUSH1 0x24 DUP3 ADD MSTORE PUSH1 0x64 CALLDATALOAD PUSH1 0x44 DUP3 ADD MSTORE PUSH1 0x84 CALLDATALOAD PUSH1 0x64 DUP3 ADD MSTORE PUSH1 0xA4 CALLDATALOAD PUSH1 0x84 DUP3 ADD MSTORE PUSH1 0xC4 CALLDATALOAD PUSH1 0xA4 DUP3 ADD MSTORE PUSH1 0xE4 CALLDATALOAD PUSH1 0xC4 DUP3 ADD MSTORE PUSH2 0x104 CALLDATALOAD PUSH1 0xE4 DUP3 ADD MSTORE ADDRESS PUSH2 0x104 DUP3 ADD MSTORE DUP2 DUP2 PUSH2 0x124 DUP2 DUP4 DUP8 GAS CALL DUP1 ISZERO PUSH2 0x67D JUMPI PUSH2 0x664 JUMPI JUMPDEST POP POP PUSH1 0x2 SLOAD PUSH1 0x1 PUSH1 0x40 SHL DUP2 LT ISZERO PUSH2 0x650 JUMPI DUP1 PUSH1 0x1 PUSH2 0x5C4 SWAP3 ADD PUSH1 0x2 SSTORE PUSH1 0x2 PUSH2 0x7C4 JUMP JUMPDEST DUP2 SLOAD PUSH1 0x1 PUSH1 0x1 PUSH1 0xA0 SHL SUB PUSH1 0x3 SWAP3 SWAP1 SWAP3 SHL SWAP2 DUP3 SHL NOT AND SWAP1 DUP4 SWAP1 SHL OR SWAP1 SSTORE PUSH32 0x8B27B1A9A5960FE85B0267737620545414F3BB7D104301F7EF6B397E7EBFC993 DUP4 DUP1 LOG2 CALLER DUP3 MSTORE PUSH1 0x3 PUSH1 0x20 MSTORE PUSH1 0x40 DUP3 KECCAK256 DUP1 SLOAD SWAP1 PUSH1 0x1 PUSH1 0x40 SHL DUP3 LT ISZERO PUSH2 0x650 JUMPI SWAP1 PUSH2 0x62F SWAP2 PUSH1 0x1 DUP3 ADD DUP2 SSTORE PUSH2 0x7C4 JUMP JUMPDEST DUP2 SLOAD PUSH1 0x1 PUSH1 0x1 PUSH1 0xA0 SHL SUB PUSH1 0x3 SWAP3 SWAP1 SWAP3 SHL SWAP2 DUP3 SHL NOT AND SWAP3 SWAP1 SHL SWAP2 SWAP1 SWAP2 OR SWAP1 SSTORE DUP1 RETURN JUMPDEST PUSH4 0x4E487B71 PUSH1 0xE0 SHL DUP5 MSTORE PUSH1 0x41 PUSH1 0x4 MSTORE PUSH1 0x24 DUP5 REVERT JUMPDEST DUP2 PUSH2 0x66E SWAP2 PUSH2 0x7DC JUMP JUMPDEST PUSH2 0x679 JUMPI DUP3 CODESIZE PUSH2 0x5A1 JUMP JUMPDEST DUP3 DUP1 REVERT JUMPDEST PUSH1 0x40 MLOAD RETURNDATASIZE DUP5 DUP3 RETURNDATACOPY RETURNDATASIZE SWAP1 REVERT JUMPDEST DUP4 PUSH2 0x695 SWAP2 SWAP5 SWAP3 SWAP5 PUSH2 0x7DC JUMP JUMPDEST SWAP2 CODESIZE PUSH2 0x532 JUMP JUMPDEST PUSH1 0x40 MLOAD RETURNDATASIZE DUP7 DUP3 RETURNDATACOPY RETURNDATASIZE SWAP1 REVERT JUMPDEST DUP4 DUP1 REVERT JUMPDEST POP PUSH1 0x40 MLOAD SWAP1 RETURNDATASIZE SWAP1 DUP3 RETURNDATACOPY RETURNDATASIZE SWAP1 REVERT JUMPDEST POP PUSH2 0x8FC PUSH2 0x43C JUMP JUMPDEST PUSH4 0x1D50115D PUSH1 0xE0 SHL DUP7 MSTORE CALLVALUE PUSH1 0x4 MSTORE PUSH1 0x24 MSTORE PUSH1 0x44 DUP6 REVERT JUMPDEST POP CALLVALUE PUSH2 0x105 JUMPI PUSH1 0x40 CALLDATASIZE PUSH1 0x3 NOT ADD SLT PUSH2 0x105 JUMPI PUSH2 0x207 PUSH2 0x1FB PUSH1 0x24 CALLDATALOAD PUSH1 0x4 CALLDATALOAD PUSH2 0x8A2 JUMP JUMPDEST POP CALLVALUE PUSH2 0x105 JUMPI PUSH1 0x20 CALLDATASIZE PUSH1 0x3 NOT ADD SLT PUSH2 0x105 JUMPI PUSH2 0x714 PUSH2 0xA5A JUMP JUMPDEST PUSH1 0x4 CALLDATALOAD PUSH1 0x1 SSTORE DUP1 RETURN JUMPDEST PUSH1 0x20 PUSH1 0x40 DUP2 DUP4 ADD SWAP3 DUP3 DUP2 MSTORE DUP5 MLOAD DUP1 SWAP5 MSTORE ADD SWAP3 ADD SWAP1 PUSH1 0x0 JUMPDEST DUP2 DUP2 LT PUSH2 0x741 JUMPI POP POP POP SWAP1 JUMP JUMPDEST DUP3 MLOAD PUSH1 0x1 PUSH1 0x1 PUSH1 0xA0 SHL SUB AND DUP5 MSTORE PUSH1 0x20 SWAP4 DUP5 ADD SWAP4 SWAP1 SWAP3 ADD SWAP2 PUSH1 0x1 ADD PUSH2 0x734 JUMP JUMPDEST SWAP2 DUP2 PUSH1 0x1F DUP5 ADD SLT ISZERO PUSH2 0x78E JUMPI DUP3 CALLDATALOAD SWAP2 PUSH8 0xFFFFFFFFFFFFFFFF DUP4 GT PUSH2 0x78E JUMPI PUSH1 0x20 DUP4 DUP2 DUP7 ADD SWAP6 ADD ADD GT PUSH2 0x78E JUMPI JUMP JUMPDEST PUSH1 0x0 DUP1 REVERT JUMPDEST PUSH1 0x2 SLOAD DUP2 LT ISZERO PUSH2 0x7AE JUMPI PUSH1 0x2 PUSH1 0x0 MSTORE PUSH1 0x20 PUSH1 0x0 KECCAK256 ADD SWAP1 PUSH1 0x0 SWAP1 JUMP JUMPDEST PUSH4 0x4E487B71 PUSH1 0xE0 SHL PUSH1 0x0 MSTORE PUSH1 0x32 PUSH1 0x4 MSTORE PUSH1 0x24 PUSH1 0x0 REVERT JUMPDEST DUP1 SLOAD DUP3 LT ISZERO PUSH2 0x7AE JUMPI PUSH1 0x0 MSTORE PUSH1 0x20 PUSH1 0x0 KECCAK256 ADD SWAP1 PUSH1 0x0 SWAP1 JUMP JUMPDEST SWAP1 PUSH1 0x1F DUP1 NOT SWAP2 ADD AND DUP2 ADD SWAP1 DUP2 LT PUSH8 0xFFFFFFFFFFFFFFFF DUP3 GT OR PUSH2 0x7FE JUMPI PUSH1 0x40 MSTORE JUMP JUMPDEST PUSH4 0x4E487B71 PUSH1 0xE0 SHL PUSH1 0x0 MSTORE PUSH1 0x41 PUSH1 0x4 MSTORE PUSH1 0x24 PUSH1 0x0 REVERT JUMPDEST PUSH8 0xFFFFFFFFFFFFFFFF DUP2 GT PUSH2 0x7FE JUMPI PUSH1 0x5 SHL PUSH1 0x20 ADD SWAP1 JUMP JUMPDEST SWAP1 PUSH2 0x836 DUP3 PUSH2 0x814 JUMP JUMPDEST PUSH2 0x843 PUSH1 0x40 MLOAD SWAP2 DUP3 PUSH2 0x7DC JUMP JUMPDEST DUP3 DUP2 MSTORE DUP1 SWAP3 PUSH2 0x854 PUSH1 0x1F NOT SWAP2 PUSH2 0x814 JUMP JUMPDEST ADD SWAP1 PUSH1 0x20 CALLDATASIZE SWAP2 ADD CALLDATACOPY JUMP JUMPDEST SWAP2 SWAP1 DUP3 SUB SWAP2 DUP3 GT PUSH2 0x86B JUMPI JUMP JUMPDEST PUSH4 0x4E487B71 PUSH1 0xE0 SHL PUSH1 0x0 MSTORE PUSH1 0x11 PUSH1 0x4 MSTORE PUSH1 0x24 PUSH1 0x0 REVERT JUMPDEST SWAP2 SWAP1 DUP3 ADD DUP1 SWAP3 GT PUSH2 0x86B JUMPI JUMP JUMPDEST DUP1 MLOAD DUP3 LT ISZERO PUSH2 0x7AE JUMPI PUSH1 0x20 SWAP2 PUSH1 0x5 SHL ADD ADD SWAP1 JUMP JUMPDEST SWAP1 PUSH1 0x2 SLOAD SWAP1 DUP2 ISZERO DUP1 ISZERO PUSH2 0x97D JUMPI JUMPDEST PUSH2 0x960 JUMPI PUSH1 0x0 NOT DUP4 ADD SWAP3 DUP4 GT PUSH2 0x86B JUMPI DUP1 DUP4 MUL SWAP3 DUP1 DUP5 DIV DUP3 EQ SWAP1 ISZERO OR ISZERO PUSH2 0x86B JUMPI DUP2 DUP4 LT ISZERO PUSH2 0x960 JUMPI DUP2 PUSH2 0x8E4 DUP3 DUP6 PUSH2 0x881 JUMP JUMPDEST GT PUSH2 0x950 JUMPI JUMPDEST PUSH2 0x8F3 DUP2 PUSH2 0x82C JUMP JUMPDEST SWAP3 PUSH1 0x0 NOT DUP4 ADD SWAP3 DUP4 GT PUSH1 0x0 JUMPDEST DUP4 DUP2 LT PUSH2 0x90E JUMPI POP POP POP POP POP SWAP1 JUMP JUMPDEST DUP2 PUSH2 0x86B JUMPI DUP1 PUSH2 0x931 PUSH2 0x92C PUSH1 0x1 SWAP4 PUSH2 0x927 DUP8 DUP11 PUSH2 0x85E JUMP JUMPDEST PUSH2 0x85E JUMP JUMPDEST PUSH2 0x793 JUMP JUMPDEST DUP4 DUP1 PUSH1 0xA0 SHL SUB SWAP2 SLOAD SWAP1 PUSH1 0x3 SHL SHR AND PUSH2 0x949 DUP3 DUP10 PUSH2 0x88E JUMP JUMPDEST MSTORE ADD PUSH2 0x8FF JUMP JUMPDEST POP PUSH2 0x95B DUP3 DUP3 PUSH2 0x85E JUMP JUMPDEST PUSH2 0x8EA JUMP JUMPDEST POP POP POP PUSH1 0x40 MLOAD PUSH2 0x971 PUSH1 0x20 DUP3 PUSH2 0x7DC JUMP JUMPDEST PUSH1 0x0 DUP2 MSTORE PUSH1 0x0 CALLDATASIZE DUP2 CALLDATACOPY SWAP1 JUMP JUMPDEST POP DUP3 ISZERO PUSH2 0x8B0 JUMP JUMPDEST SWAP1 DUP1 PUSH1 0x20 SWAP4 SWAP3 DUP2 DUP5 MSTORE DUP5 DUP5 ADD CALLDATACOPY PUSH1 0x0 DUP3 DUP3 ADD DUP5 ADD MSTORE PUSH1 0x1F ADD PUSH1 0x1F NOT AND ADD ADD SWAP1 JUMP JUMPDEST SWAP1 PUSH1 0x2 SLOAD DUP3 ISZERO PUSH2 0xA49 JUMPI PUSH1 0x0 NOT DUP4 ADD SWAP3 DUP4 GT PUSH2 0x86B JUMPI PUSH1 0xA DUP4 MUL SWAP3 DUP1 DUP5 DIV PUSH1 0xA EQ SWAP1 ISZERO OR ISZERO PUSH2 0x86B JUMPI DUP1 DUP4 LT ISZERO PUSH2 0xA49 JUMPI PUSH1 0xA DUP4 ADD SWAP1 DUP2 DUP5 GT PUSH2 0x86B JUMPI PUSH2 0x9F7 SWAP2 DUP5 SWAP2 DUP1 DUP3 GT PUSH2 0xA41 JUMPI JUMPDEST POP PUSH2 0x85E JUMP JUMPDEST PUSH2 0xA00 DUP2 PUSH2 0x82C JUMP JUMPDEST SWAP1 PUSH1 0x0 JUMPDEST DUP2 DUP2 LT PUSH2 0xA12 JUMPI POP SWAP1 SWAP3 POP POP JUMP JUMPDEST DUP1 PUSH2 0xA22 PUSH2 0x92C PUSH1 0x1 SWAP4 DUP9 PUSH2 0x881 JUMP JUMPDEST DUP4 DUP1 PUSH1 0xA0 SHL SUB SWAP2 SLOAD SWAP1 PUSH1 0x3 SHL SHR AND PUSH2 0xA3A DUP3 DUP7 PUSH2 0x88E JUMP JUMPDEST MSTORE ADD PUSH2 0xA04 JUMP JUMPDEST SWAP1 POP CODESIZE PUSH2 0x9F1 JUMP JUMPDEST POP SWAP1 POP PUSH1 0x40 MLOAD PUSH2 0x971 PUSH1 0x20 DUP3 PUSH2 0x7DC JUMP JUMPDEST PUSH1 0x0 SLOAD PUSH1 0x1 PUSH1 0x1 PUSH1 0xA0 SHL SUB AND CALLER SUB PUSH2 0xA6E JUMPI JUMP JUMPDEST PUSH4 0x118CDAA7 PUSH1 0xE0 SHL PUSH1 0x0 MSTORE CALLER PUSH1 0x4 MSTORE PUSH1 0x24 PUSH1 0x0 REVERT JUMPDEST PUSH15 0x5AF43D82803E903D91602B57FD5BF3 SWAP1 PUSH23 0x3D602D80600A3D3981F3363D3D373D3D3D363D73000000 PUSH3 0xFFFFFF DUP3 PUSH1 0x88 SHR AND OR PUSH1 0x0 MSTORE PUSH1 0x78 SHL OR PUSH1 0x20 MSTORE PUSH1 0x37 PUSH1 0x9 PUSH1 0x0 CREATE SWAP1 PUSH1 0x1 PUSH1 0x1 PUSH1 0xA0 SHL SUB DUP3 AND ISZERO PUSH2 0xAD9 JUMPI JUMP JUMPDEST PUSH4 0xB06EBF3D PUSH1 0xE0 SHL PUSH1 0x0 MSTORE PUSH1 0x4 PUSH1 0x0 REVERT INVALID LOG2 PUSH5 0x6970667358 0x22 SLT KECCAK256 0xC6 PUSH8 0x206920044B4DA459 0xD2 0x4C 0xC0 PUSH16 0xF173427FF57169197D4212DA3248A303 0xB4 PUSH1 0x64 PUSH20 0x6F6C634300081A00330000000000000000000000 "
        },
        "methodIdentifiers": {
          "allPresales(uint256)": "a9e1a14a",
          "createPresale(string,string,uint256,uint256,uint256,uint256,uint256,uint256,uint256)": "31008f3d",
          "getFactoryBalance()": "dcff36c0",
          "getPaginatedPresales(uint256)": "ee443750",
          "getPaginatedPresalesDecreasingByCreation(uint256,uint256)": "168269d7",
          "getUserCreatedTokens(address)": "c00be1a0",
          "owner()": "8da5cb5b",
          "presale()": "fdea8e0b",
          "presaleCreationFee()": "80878418",
          "renounceOwnership()": "715018a6",
          "setPresaleCreationFee(uint256)": "0d30e9bc",
          "token()": "fc0c546a",
          "transferOwnership(address)": "f2fde38b",
          "withdrawFees()": "476343ee"
        }
      }
    }
  }
}